:020000040800F2
:10000000100D0020590300089F4C0008B932000869
:100010009D4C00082D1F0008D9500008000000006A
:10002000000000000000000000000000A34C0008D9
:10003000C51F000800000000A14C0008A54C0008E6
:1000400073030008730300087303000873030008B8
:1000500073030008730300087303000873030008A8
:100060007303000873030008730300087303000898
:100070007303000873030008730300087303000888
:1000800073030008730300087303000800000000F6
:1000900000000000000000000000000073030008E2
:1000A0007303000873030008730300087303000858
:1000B0007303000873030008730300087303000848
:1000C0007303000873030008730300087303000838
:1000D00073030008730300087303000800000000A6
:1000E0007303000873030008730300080000000096
:1000F000000000000000000000000000311F0008A8
:100100000000000073030008730300087303000875
:1001100000000000000000000000000000000000DF
:100120003D1F0008730300087303000873030008F1
:100130007303000800000000000000000000000041
:100140000000000000000000000000007303000831
:1001500073030008730300087303000873030008A7
:100160007303000873030008000000000000000093
:10017000000000000000000000000000000000007F
:1001800000000000730300080000000000000000F1
:100190007303000800F002F800F0B4F80AA090E839
:1001A000000C82448344AAF10107DA4501D100F032
:1001B000A9F8AFF2090EBAE80F0013F0010F18BF4B
:1001C000FB1A43F001031847CC660000EC66000000
:1001D0000A444FF0000C10F8013B13F0070408BF6D
:1001E00010F8014B1D1108BF10F8015B641E05D00B
:1001F00010F8016B641E01F8016BF9D113F0080FC0
:100200001EBF10F8014BAD1C0C1B09D16D1E58BF51
:1002100001F801CBFAD505E014F8016B01F8016B88
:100220006D1EF9D59142D6D37047000000230024FB
:1002300000250026103A28BF78C1FBD8520728BFF6
:1002400030C148BF0B6070476E2900F06A83702987
:1002500000F0AD84662905F0E485652905F0E185A7
:10026000672905F0DE85612905F0DD8503681B0A35
:1002700028BF41F08001692900F02E81642900F037
:100280002B81752900F028816F2900F03A847829A4
:1002900000F07984E92900F0D583E42900F0D283C5
:1002A000F52900F0CF83EF2900F03784F82900F01A
:1002B00078840368DB0928BF41F08001632901F0DD
:1002C0005D80732901F06280E32901F06D80F329DC
:1002D00001F07280002070471FB505F09DFD00F011
:1002E00010FA01F0BFF804000020002105F07EFDA7
:1002F000401C60600020002105F062FDE0601FBD31
:1003000010B510BD01F080F81146FFF7E5FF05F0CC
:1003100015FB01F05DF903B4FFF7F2FF03BC01F038
:10032000A1F900000B49D1F800C04A685CF8043B11
:100330001068184442F8040B8C4528BFA1F1DC0C6E
:100340008A4228BFA1F1DC02C1F800C04A6020F057
:1003500000407047A8060020094880470948004728
:10036000FEE7FEE7FEE7FEE7FEE7FEE7FEE7FEE765
:10037000FEE7FEE704480549054A064B70470000C2
:100380004D4D00089501000810070020100D0020B9
:10039000100900201009002053EA020C00F06980C7
:1003A0002DE9F04B4FF00006002B1FBFB3FA83F589
:1003B00003FA05F424FA05F65E4012BF1643B2FABA
:1003C00082F502FA05F4C5F120051EBF22FA05FCEC
:1003D00044EA0C04203556EA044C4FEA144418BF92
:1003E000641C4FF000084FF00009904271EB030CC1
:1003F00039D3002919BFB1FA81F701FA07F6B0FA2B
:1004000080F700FA07F6C7F120071EBF20FA07FCA5
:1004100046EA0C062037B6FBF4FCA7EB0507103FB5
:1004200007F01F0BCBF120060CFA0BFB2CFA06F69B
:1004300044BFB3460026202FA4BF5E464FF0000BFA
:100440005BEA060C08BF4FF0010B19EB0B09ABFB85
:10045000027C48EB0608C01B06FB02CC0BFB03CC5E
:1004600071EB0C01C1E70B46024641464846BDE828
:10047000F08B13B54FF000004FF00001AFF3008098
:10048000BDE81C40704700001CB50C46064B7B4481
:1004900069460090204600F05EFA04460020694656
:1004A00000F06CFA20461CBDEB0400000FB41CB534
:1004B000084B06AA7B4469460090059800F04BFA69
:1004C00004460020694600F059FA20461CBC5DF83D
:1004D00014FB0000C50400002DE9F041064600248D
:1004E00010687529314616A510D000F086F900284D
:1004F00002DA404213A507E031688A0701D512A548
:1005000002E0490704D511A5012401E000F07EF9BD
:1005100000210A2206F1240709E0B0FBF2FCB0FB3F
:10052000F2F302FB1C00303078541846491C0028B6
:10053000F3D123462A463046BDE8F04100F098B991
:10054000000000002D0000002B0000002000000033
:100550002DE9F05F894604464FF0000ADFF874B1D8
:10056000FB44C0F820A02046E1688847002874D0EA
:10057000252806D0D4E901219047206A401C20623A
:10058000F1E700265F462046E168884720280546B7
:1005900007DB312D05D2781910F8200C08B106437D
:1005A000F1E7B00701D526F00406C4F81CA0002727
:1005B000C4F818A02A2D09D0284604F05DFF38B3EE
:1005C00004EB8708303DC8F8185019E059F8041BAF
:1005D000204604EB87029161E1688847012F0546B8
:1005E00018D1E069002820DA26F020061DE0D8F8AE
:1005F000180000EB800005EB40003038C8F8180008
:100600002046E1688847054604F036FF0028EED111
:10061000012F0AD02E2D08D12046E16888477F1C83
:100620000546022F46F02006C4DBA069002803DA45
:10063000404246F00106A061F00701D026F0100606
:100640006C2D0BD0682D09D04C2D39D06A2D35D0AA
:10065000742D35D07A2D33D016E038E0E1682F467E
:1006600020468847B842054609D16C2F26D04FF462
:100670008060E168064320468847054604E06C2F09
:100680001AD04FF4807006430DB3A5F1410019282C
:1006900002D8203546F400664A46294620462660A0
:1006A0004E46FFF7D1FD80B101280BD0F61D26F094
:1006B000070000F1080956E74020E4E78020D8E76A
:1006C0000020D6E706F104094DE7284652E7206AE4
:1006D000BDE8F09F306200000B4910B5A1F17C022B
:1006E0000A4CC2E93712372106E000EB104342F80A
:1006F0002130074B00FB03400B1EA1F10101F4DC8C
:1007000010BD0120E8E7000048060020E119D66688
:10071000CD0D01004FF000020429C0F0128010F04E
:10072000030C00F01B80CCF1040CBCF1020F18BFCD
:1007300000F8012BA8BF20F8022BA1EB0C0100F060
:100740000DB85FEAC17C24BF00F8012B00F8012B33
:1007500048BF00F8012B70474FF0000200B5134668
:1007600094469646203922BFA0E80C50A0E80C50D1
:10077000B1F12001BFF4F7AF090728BFA0E80C5082
:1007800048BF0CC05DF804EB890028BF40F8042B7B
:1007900008BF704748BF20F8022B11F0804F18BFE8
:1007A00000F8012B704770477047704770B50446DA
:1007B00085690068C10601D5302600E02026C00703
:1007C00007D070BDD4E9012130469047206A401C13
:1007D00020626D1EF6D570BD70B50446856900783F
:1007E000C00707D170BDD4E9012120209047206ABD
:1007F000401C20626D1EF6D570BD09684A0501D502
:1008000040B27047C905FCD500B2704709684A0577
:1008100001D5C0B27047C905FCD580B2704770B52C
:100820000C460546012A05D02878800600D5EA69DD
:10083000002302E0012305E05B1C934202D2E05C4E
:100840000028F9D1A869E618C01AA861286A1844D6
:1008500028622846FFF7AAFF04E0D5E9012114F831
:10086000010B9047B442F8D32846FFF7B5FF70BD9F
:100870002DE9F0470D4699469246044600F12408BA
:100880000168880604D5E06921F01001216000E0CC
:100890000120A84201DD471B00E00027A1697A1969
:1008A00002EB0900081AA0612078C00602D4204695
:1008B000FFF77CFF002608E0D4E901211AF80600C2
:1008C0009047206A401C761C20624E45F4DB20785D
:1008D000C0060AD52046FFF769FF06E0D4E90121EA
:1008E00030209047206A401C2062381EA7F1010783
:1008F000F4DC07E0D4E9012118F805009047206AEC
:10090000401C2062281EA5F10105F3DC2046FFF7FC
:1009100063FF2078000602D50220BDE8F0870120A1
:10092000FBE711680268006A530501D508700AE008
:10093000D30501D5088006E0130603D5C217C1E927
:10094000000200E0086001207047000001694A1CB5
:1009500002610878704700B58FB0CDE90131002100
:10096000059105497944CDE9031011466846FFF722
:10097000EFFD0FB000BD0000E5FFFFFF0A6802F8C1
:10098000010B0A60704700002DE9FF5F15468A469B
:100990000446DFF8AC80F8440027D8E900103E4652
:1009A000CDE9001010E03AF816106A4602A800F0EF
:1009B00007FD411C07D02178890603D5E269391863
:1009C00091420DD80744761C2078800602D5E06954
:1009D000B84205DDAE42E6DB3AF816000028E2D167
:1009E000A069C01BA0612046FFF7E0FED8E9001017
:1009F000CDE90010002017E03AF818106A4602A866
:100A000000F0DEFCB0F1FF3F81460BD000250DF178
:100A1000080B05E0D4E901211BF8050090476D1C87
:100A20004D45F7D308F10100B0428046E4DB206A6F
:100A3000384420622046FFF7CFFEBDE8FF9F00004C
:100A40000E5E00002DE9F0418046D21D22F0070223
:100A50000025D2E90002F52915A614D0011E72F175
:100A6000000106DA0023D0EB030063EB020211A6BB
:100A700008E0D8F800108B0701D50FA602E049075F
:100A800001D50EA601251146002408F1240704E033
:100A900000F098F830323A55641C50EA0102F7D160
:100AA0002B46324621464046BDE8F041FFF7E0BE06
:100AB000000000002D0000002B00000020000000BE
:100AC00030B4002100F1240408E002F00705D20848
:100AD000303542EA4372DB086554491C52EA03058B
:100AE000F3D10468002310A2250707D5A40600D47B
:100AF00021B1C46901230DA2641EC46130BCFFF79B
:100B0000B7BE10B5044621461068FFF77FFE0246C7
:100B10002046BDE810400023D2E7D21D22F0070195
:100B2000D1E90023CCE70000000000003000000005
:100B3000F0B40D460188090502D5214C7C4402E041
:100B40001F4C7C440E34002100F1240608E002F022
:100B50000F071209E75D42EA03721B097754491C2B
:100B600052EA0307F3D102780023120704D5702D4F
:100B700006D009B1022311342246F0BCFFF778BE3B
:100B800001231034F8E770B504460D46214610687D
:100B9000FFF73CFE024629462046BDE87040002390
:100BA000C6E7D21D22F00703D3E90023C0E703689C
:100BB000126843F0200303600823C3610023B7E7F2
:100BC000705C000030B5B0F10A024FEA900E71F18E
:100BD00000034EEA817EB0EB0E0061EB91014FEA1B
:100BE000101E4EEA017E10EB0E0041EB11114FEA90
:100BF000102E4EEA016E10EB0E0041EB11214FEA70
:100C0000104E4EEA014E10EB0E0041EB1141401820
:100C100041F100014FEAD00040EA41704FEAD101B2
:100C200010EB80054FEA810444EA907444EB010420
:100C30006D1944EB0404521BA3414FF0000348BF5D
:100C40000A3200D530BD401C41F1000130BD704773
:100C50002DE9FF4F0C461E464FF0FF378BB0D2E90F
:100C60000001DDF860800A908A46C1F30A5505B993
:100C70003D46002108464FF00000BAF1000F00F495
:100C8000400005DA00EB80004FF4400101EA50001B
:100C90004FEA9059B9F1010F00DDB9460A9850EAC0
:100CA0004A000ED044F61050A5F2FF3545432F14EC
:100CB000B8F1000F1ED07542291E1EDDC9F10002D9
:100CC0001CE0B8F1010F4FF0000001D0302103E02B
:100CD000F24305E02154401CB042FBDB30460022C9
:100CE000002121540B99C1F80880C1E900200FB000
:100CF000BDE8F08FBD1B6D1CDEE74A4600DA694295
:100D000006A800F0F3FB06AB93E8070003AB83E80B
:100D1000070050460A9900F0ACFC8DE80700A0F5EA
:100D200000501F3800900398002D0ADD42F21F0189
:100D30004A460844002303A90390684600F015FFC3
:100D400009E0A0F500504A461F38002303A903908C
:100D5000684600F01FFF8DE807000004000C03D078
:100D60004FF0FF30410800E01046B8F1000F03D00B
:100D70000022009215461EE0751E05D4FFF722FFE3
:100D8000303262556D1EF9D5B3460122084302D0B8
:100D900000227F1C04E02078302801D100227F1E31
:100DA000002A099784D01DE0112D07DAFFF70AFF0A
:100DB000303262556D1C50EA0102F5D1084302D071
:100DC0000098C8B10EE00021681E05E0235C625C5B
:100DD00063542254401E491C8142F7DBAB46A81BDA
:100DE000401E0990002004F80B000B98099AC0F8E7
:100DF0000880C0E9002B7AE711264FF0000857E77A
:100E00002DE9F04F88460446D21D22F0070191B02B
:100E1000D1E90001CDE90A0104F006FB02460B9876
:100E2000C00F01D02D2007E02068810701D52B20BD
:100E300002E0202101EAC000032A099001D0072A1C
:100E400005DB03464146204600F010FB0BE120780D
:100E5000800601D5E06900E00620B8F1650F814603
:100E600006D0B8F1660F18D0B8F1670F70D131E035
:100E70000020B9F1110F009001DB112301E009F10D
:100E800001030AAA01A90CA8FFF7E2FEDDE90C7034
:100E9000002609F10105834647E001204B460090FA
:100EA0004FF000470AAA01A90CA8FFF7D1FEDDE91F
:100EB0000DB00C995D46002610B909F101000D181E
:100EC000B9EB050003D4C0F1FF3609F10105A5EB2C
:100ED00009002BE0B9F1010F01DA4FF00109002000
:100EE000B9F1110F0090484601DD112300E00346DF
:100EF0000AAA01A90CA8FFF7ABFEDDE90C704D466C
:100F000000268346207800070AD4AB4500DA5D4608
:100F100001A8012D04DD411911F8011C302907D069
:100F20004F4502DA17F1040F04DA012082460FE080
:100F30006D1EEEE7002F02DCED1B3E4403E0781C43
:100F4000A84200DD7D1CB81B00F1010A4FF00047EC
:100F50002078000703D4AA4501DB4FF0FF3A0021B7
:100F6000B7F1004F0DF143088DF8431024D0022053
:100F70002B23002F01DA7F422D230A21021EA0F12C
:100F8000010000DC5FB197FBF1FC97FBF1F201FB84
:100F90001C7C17460CF1300C08F801CDEEE7A8F1E7
:100FA000010003702188090501D5452100E0652174
:100FB000A0F1010800F8011C09980FA9A1EB08078E
:100FC000FF1D00B10120411901EBEA70A16938440D
:100FD000081A401EA0612078C00602D42046FFF700
:100FE000E5FB099828B1D4E901219047206A401C0B
:100FF00020622078C00622D52046FFF7D7FB1EE0EE
:10100000002E04DBB34502DD01A8805D00E0302046
:10101000D4E901219047206A401C2062761CAAF185
:1010200001005FEA000A0AD100F01CFAC0680168FA
:10103000405CD4E901219047206A401C2062281EB0
:10104000A5F10105DCDC07E0D4E9012118F8010B6A
:101050009047206A401C2062381EA7F10107F3DC8C
:101060002046FFF7B9FB032011B041E62DE9F04F10
:1010700004460D46D21D22F0070089B0D0E9009742
:101080004846394604F0D0F90246F80F01D02D2326
:1010900007E02068810701D52B2302E0202101EA27
:1010A000C0038DF820300BB1012000E00020032A9E
:1010B000824601D0072A04DB2946204600F0D6F9F3
:1010C0003FE12078800601D40D2500E0E569C7F3F3
:1010D0000A560D2D49DA00214FEA175B08464FF0FA
:1010E0000000002F00F4400007DA00EB80004FF40E
:1010F000400100EBD07001EA60008115012901DD9B
:101100004FF0FF3100224FEA850CBCF1180F06D3D7
:101110001346ACF118004FF08052C24003E04FF488
:10112000801323FA0CF30CF10C0CBCF1200F04D348
:10113000ACF1200C09FA0CF001E007FA0CF00029E0
:101140004FF0004801DD18B90FE00ED140450CD337
:1011500019EB02095F4121B9404502D19F4329EAB9
:101160000209BBEB175F00D0761C2088000502D572
:101170007B48784402E07A487844193808AA30233A
:1011800002F80A30037C0AF10101002E0AF1020A7A
:1011900053546A4602DC4FF0300101E04FF0310158
:1011A0004FF001088DF8001002D0A6F2FF3603E0E0
:1011B00059EA470100D06B4E002D02DC2178090767
:1011C00004D54FF002082E218DF80110C4460021ED
:1011D0000BE0C7F303433F01C35C491C6D1E02F8DB
:1011E0000830052908F1010801DA002DF1DC0021A1
:1011F0000CE000EB1973491C1B786D1E082902F8DE
:1012000008304FEA091908F1010801DA002DF0DC75
:1012100021688B0602D516E0A8F10108E04505DD3E
:1012200002EB080313F8013C302BF5D0B8F1000FA6
:1012300009DD02EB080313F8013C2E2B03D109074B
:1012400001D4A8F10108002D05DD3E2102F80810A7
:101250006D1E08F10108407C002E02F8080008F11C
:10126000010804DA2D20764202F8080002E02B2063
:1012700002F808000A214FF47A70864208F101084A
:101280000BDB96FBF0F3303302F8083096FBF0F3FB
:1012900008F1010800FB136601E0642E0CDB6420FA
:1012A00096FBF0F3303302F8083096FBF0F308F1C8
:1012B000010800FB136601E00A2E06DB96FBF1F045
:1012C000303002F8080008F1010896FBF1F001FB4C
:1012D0001060303002F80800A16908F1010808EB3D
:1012E000050202EB0A00081AA0612078C00602D4A9
:1012F0002046FFF75BFA216A08AE01EB0A00206284
:1013000004E0D4E9012116F8010B9047BAF1010A73
:10131000F7D22078C00602D52046FFF747FA6E467E
:1013200009E016F8010B3E280FD0D4E901219047BF
:10133000206A401C2062B8F10108F2D22046FFF773
:101340004BFA09B00320BDE8F08F206A28442062E0
:1013500003E0D4E90121302090476D1EEBD3F8E77C
:101360007556000002FCFFFF10B5436913B1AFF3DF
:10137000008001E0FFF753FA012010BD127800F160
:1013800024010A7000224A700122EDE711684FF033
:10139000FF32E9E710B5436913B1AFF3008001E014
:1013A000FFF7F2FA012010BD128800F124018284B7
:1013B0000022C2840122EDE711684FF0FF32E9E715
:1013C00070B516460C46054600F044F8036893F8DD
:1013D0000101012806D0FF2C0FD8185D68B101204B
:1013E0002C7070BDD3F807013246214603F2071373
:1013F00003442846BDE8704018474FF0FF3070BDE9
:1014000000487047B00600207546FFF7F9FFAE466A
:1014100005006946534620F00700854618B020B500
:10142000FEF7A8FFBDE820404FF000064FF0000790
:101430004FF000084FF0000B21F00701AC46ACE87C
:10144000C009ACE8C009ACE8C009ACE8C0098D46E9
:101450007047000010B500F005F8001D10BD00BF7A
:101460008D49000000487047D00600202DE9F0416A
:101470001F46044603260168072A01F4006004DBC6
:1014800008B116A505E016A503E008B115A500E012
:1014900015A521F010002060A069C01EA0610FB149
:1014A000401EA0612046FFF781F94FB1D4E9012128
:1014B00038469047206A401C2062C01C206206E02B
:1014C000206AFAE7D4E9012115F8010B9047761E4E
:1014D000F8D22046FFF780F9BDE8F0814E414E007A
:1014E0006E616E00494E4600696E66002DE9F04758
:1014F000814616468AB0354878440DC88DE80D00FF
:1015000032487844801C03AC0DC884E80D0041F6D5
:101510009B300844372190FBF1F290FBF1F5A5F1E7
:10152000800501FB12041B3C02D56442012000E04F
:101530000020DFF898A080460027FA44AAF1BE0AEE
:101540000EE0E0070AD03246684607EB4701012368
:101550000AEB810100F01EFB8DE8070064107F1C80
:10156000002CEED1194F7F44AE3F19E0E80715D0AB
:1015700007EB04100DF1180A90E80E008AE80E003F
:10158000C068F04201D1981908903246012306A99B
:1015900003A800F0FFFA03AB83E807006D10641C9A
:1015A000002DE3D14FF0010332466946B8F1000F38
:1015B00003A802D000F0D9FA01E000F0EBFAC9E983
:1015C0000001C9F808200AB0BDE8F0878053000088
:1015D00010B50446AFF300802046BDE81040FEF78A
:1015E0009ABE00004FF0013C50F8042B51F8043B28
:1015F0009A4221D1A2EB0C03934313EACC1317D1E7
:1016000050F8042B51F8043B9A4215D1A2EB0C037D
:10161000934313EACC130BD150F8042B51F8043B3D
:101620009A4209D1A2EB0C03934313EACC13DBD00B
:101630004FF00000704700BFD01A01BAB1FA81F133
:1016400001F0180122FA01F0CB40C1F12001DBB218
:10165000C0B2C01A2CFA01F3D11A914311EAC31196
:10166000E6D1704701491820ABBEFEE72600020014
:1016700070475FEA400C08BF91F0000F4FEA8C23DF
:101680004FEAC12243EA51514FEA1C5018BF00F5FE
:10169000F0404FEA300018BF41F000415FEA6C5C57
:1016A00000F02980BCF1FF3F08BF40F08040704748
:1016B000130C06BF12044FF0100C4FF0000C130E69
:1016C00004BF12020CF1080C130F04BF12010CF13D
:1016D000040C930F04BF92000CF1020CD30F04BF53
:1016E00052000CF1010C11464FF00002A0F11F0056
:1016F000A0EB0C00704711F0004F08BF704731F0AD
:1017000000413FF4D5AF0B0C06BF09044FF0100C9D
:101710004FF0000C0B0E04BF09020CF1080C0B0F6C
:1017200004BF09010CF1040C8B0F04BF89000CF1FC
:10173000020CCB0F04BF49000CF1010CCCF12003CB
:10174000A0EB0C0022FA03F302FA0CF241EA0301C7
:1017500000F10100704720F07F4C80EA030023F085
:101760007F47ACEB070303F57C5300F0004003F127
:10177000FF032DE980494FEA154B09B44FEA1443A2
:1017800025EA0B4E24EA03480FF2042606EB132742
:1017900049083E785FEA320203FB0667C7F5000797
:1017A00007FB06F64FEA54374FEAD64606F1020623
:1017B00007FB066CCCF1005C4FEA1C472CEA074C97
:1017C00007FB06F40CFB06F504EB15464FEA9616EC
:1017D00034BF00204FF000404FEAD13706FB07FC32
:1017E0004FEA1C4C0CFB0BF7D21B03FB0CF761EB15
:1017F00007010CFB0EF7B0EB074072EB17420CFB36
:1018000008F734BFA2EB0742B2EB074261EB174186
:101810004FEA0C444FEA910706FB07FC4FEA1C4CC9
:101820000CFB0BF7B0EBC74072EB573203FB0CF726
:1018300034BFA2EBC742B2EBC74261EB57310CFB9E
:101840000EF7B0EBC70072EB57720CFB08F734BF12
:10185000A2EBC702B2EBC70261EB5771039F4FEADD
:10186000816141EA921104EBCC044FEAD1374FEA8F
:10187000826206FB07FC42EA90124FEA80604FEA60
:101880001C4C0CFB0BF7D21B03FB0CF761EB0701A5
:101890000CFB0EF7B0EB074072EB17420CFB08F79E
:1018A00034BFA2EB0742B2EB074261EB17414FEAAC
:1018B0008C554FEA910704EB9C2406FB07FC4FEA8A
:1018C0001C4C0CFB0BF7B0EBC74072EB573203FB21
:1018D0000CF734BFA2EBC742B2EBC74261EB573102
:1018E0000CFB0EF7B0EBC70072EB57720CFB08F75E
:1018F00034BFA2EBC702B2EBC70261EB577115EB25
:101900004C254FEA816141EA92114FEA82624FEA27
:10191000D13742EA901206FB07FC44F100044FEA7B
:1019200080604FEA1C4C0CFB0BF7D21B03FB0CF73F
:1019300061EB07010CFB0EF7B0EB074072EB1742AF
:101940000CFB08F734BFA2EB0742B2EB074261EB96
:10195000174115EB1C154FEA813141EA92414FEADC
:10196000823242EA90424FEA80304FEA0C7644F1EC
:10197000000448EA03434EEA0B484FF0000EB2EB76
:10198000080C71EB030724BF624639464EEB0E0E7E
:101990004FF0000B0018524149414BEB0B0BB2EBDF
:1019A000080C71EB03077BF1000B24BF624639463C
:1019B0004EEB0E0E4FF0000B0018524149414BEB1D
:1019C0000B0BB2EB080C71EB03077BF1000B24BF90
:1019D000624639464EEB0E0E51EA020718BF46F03A
:1019E000010616EB0E7655F1000254F1000103D505
:1019F000BDE88901BDE80088BDE88901BDE800486F
:101A0000B619524141EB0101A3F1010370478080F7
:101A10007F7E7D7C7B7A7978777676757473727148
:101A200071706F6E6E6D6C6C6B6A6A696868676600
:101A300066656464636362616160605F5F5E5E5D92
:101A40005D5C5C5B5B5A5A59595858575756565506
:101A500055555454535352525251515050504F4F68
:101A60004F4E4E4D4D4D4C4C4C4B4B4B4A4A4A49B8
:101A700049494848484747474746464645454544FB
:101A80004444444343434342424242414141002B88
:101A90009C4630D477002BD01CB54FEA370703B4EF
:101AA0004FF010004FF01001BAF1000F06D0BCF15A
:101AB000000FDCBF40F0080040F008014FF00000CC
:101AC0000FBCBDE810400BF1010BBBF1010F08BFCB
:101AD0005FEA170722BF12F1010211F101014FF075
:101AE000004143F1000300F0004043EA000070476A
:101AF000F9D35708D0E746EA064613F1400F4FEAFC
:101B000016461FDD13F1200FDFBF16430A460021E2
:101B100020335B42BED0C3F1200746EA064602FAF4
:101B200007F74FEA164646EA0706C3F1200722FAEE
:101B300003F201FA07F721FA03F14FF0000342EA3A
:101B40000702A7E746EA020646EA06464FEA1646B5
:101B500046EA0106BCBF46EA0646360C4FF00003D3
:101B60004FF000024FF0000194E72DE9804C9A46B7
:101B7000934670B491E8380007C831EA400C48BF7A
:101B800034EA430C03D5FFF7E6FDFFF780FFF0BC16
:101B9000BDE8008C2DE9804C9A46934670B491E8DC
:101BA000380007C810F0804F08BF13F0804F03D1F2
:101BB00000F005F8FFF76BFFF0BCBDE8008C20F0EB
:101BC0007F4780EA030023F07F4C07EB0C03A3F56B
:101BD0007C5300F00040A3F1FE0392F0000F00F0F0
:101BE000B38095F0000F00F077802DE901494FEAAE
:101BF00011404FEA144621EA004800FB06FC24EAA3
:101C0000064708FB06F607FB08F800FB07F718EB8A
:101C100006484CEB164C4FEA124B18EB07484FEABC
:101C200015464CEB174022EA0B4E0BFB06FC25EA4F
:101C300006470EFB06F607FB0EFE0BFB07F71EEB37
:101C4000064E4CEB164C4FF000061EEB074E4CEBCD
:101C5000174B18EB0B0840F1000018EB0E0B58EB7C
:101C6000000840F100008F1A4FF000013CBFC9434B
:101C7000661B14BFB5EB040C00213CBFC943F61B27
:101C80004FEA17444EEA8E0E27EA04454FEA1C47F6
:101C900004FB07622CEA074C05FB07F70CFB05F673
:101CA00004FB0CFC16EB074642EB174216EB0C4606
:101CB00042EB1C421BEB060658EB0202414146EA8E
:101CC0009E0601D5BDE80189B619524141EB0101DB
:101CD000A3F10103BDE801894FEA14454FEA11471A
:101CE00024EA054621EA074C05FB07F406FB07F743
:101CF0000CFB06F105FB0CFC11EB074144EB174410
:101D00004FEA124711EB0C4144EB1C4422EA074C0A
:101D100005FB07F206FB07F70CFB06F605FB0CFCC0
:101D200016EB074642EB174216EB0C4642EB1C45FE
:101D30006A1854F1000148BF7047B619524141EB8F
:101D40000101A3F10103704795F0000F37D04FEA6E
:101D500011424FEA144721EA024624EA074C02FBEB
:101D600007F106FB07F70CFB06F402FB0CFC14EB77
:101D7000074441EB17414FEA154714EB0C4441EB84
:101D80001C4125EA074C02FB07F506FB07F70CFB95
:101D900006F602FB0CFC16EB074645EB174516EB67
:101DA0000C4645EB1C42121951F1000148BF704727
:101DB000B619524141EB0101A3F1010370474FEA0B
:101DC00014454FEA114724EA054621EA074C05FB72
:101DD00007F106FB07F70CFB06F24FF0000605FBC8
:101DE0000CFC12EB074241EB174112EB0C4251EB9A
:101DF0001C4148BF7047921841EB0101A3F1010358
:101E000070470000464910B54A6822F440324A60E3
:101E10004A6843681A434A6001684A6822F480723B
:101E20004A6001684A68036942EA03224A6001681D
:101E30004A6822F040724A6001684A6883681A431F
:101E40004A6001688A6822F400628A6001688A68D0
:101E5000C3681A438A60816A6FF07062D142016878
:101E60008A6822F070628A6001688A680CD0836A8E
:101E70001A438A6001688A6822F040528A600168C9
:101E80008A68C36A1A4301E022F040528A600168FE
:101E90008A6822F002028A6001688A68037E42EA48
:101EA00043028A6090F82010002901684A680FD028
:101EB00042F400624A6001684A6822F460424A6063
:101EC00001684A68174C436A04EB43331A4301E044
:101ED00022F400624A600168CA6A22F47002CA628F
:101EE0000168CA6A838B104C04EB03531A43CA621D
:101EF00001688A6822F400728A6001688A6890F832
:101F0000303042EA43228A6001688A6822F48062A3
:101F10008A6001688A68406942EA8020886010BD52
:101F20000023014000E0FFFF0000F0FFFEE700009B
:101F3000014800F069B9000028050020014800F0C0
:101F400063B900003804002001681823CAB2103AAF
:101F5000B2FBF3F2054B6FF30901032A9B5CC365E7
:101F600000D9091D816508467047000074670008A4
:101F700010B5014600208B698A6A4FF0C07453B1D6
:101F8000B3F5005F15D072B1012A0CD0022A0AD035
:101F9000032A09D104E01AB1012A06D0022A03D18A
:101FA000C96AC90100D5012010BDC96AA142FAD091
:101FB00010BD002AF7D0012AF2D0022AF3D0032A5A
:101FC000F3D010BD704772B6FEE7000078B500246C
:101FD000009490F83C20012A19D0012280F83C207E
:101FE0000A6807250368092A13D9DE680A3A02EB52
:101FF00042029540AE43DE600A788B680A3A02EBF3
:10200000420293400268D5682B43D36010E002205F
:1020100078BD1E6902EB42029540AE431E610A780C
:102020008B6802EB42029340026815692B431361EF
:102030004A681F25072A13D203685E6B521E02EB03
:1020400082029540AE435E630A8893B20A79521EBB
:1020500002EB820293400268556B2B43536327E0E7
:1020600003680D2A12D21E6BD21F02EB820295402A
:10207000AE431E630A8893B20A79D21F02EB820232
:1020800093400268156B2B43136311E0DE6A0D3A2F
:1020900002EB82029540AE43DE620A8893B20A796F
:1020A0000D3A02EB820293400268D56A2B43D36259
:1020B000164B0568144A9D4206D10D68122D03D1B6
:1020C000556845F48005556005689D4218D10B6838
:1020D000102B01D0112B13D1536843F4000353602C
:1020E000096810290CD10A490A4A0968B1FBF2F1C2
:1020F00001EB8101490000E0491E00910029FBD15C
:1021000080F83C40002078BD0023014000200140C1
:102110001402002040420F0070B504004FF000068A
:1021200003D0206C002510B107E0012070BD2046CF
:1021300000F01CF8656484F83C50206CC00610D494
:10214000206C20F4885040F0020020642046FFF705
:1021500059FE6564206C20F0020040F0010020640C
:1021600000E0012684F83C50304670BD70B586B062
:10217000064614216846FEF7EFFA1E493068884289
:1021800035D11D480025016841F480710160006867
:1021900000F48070059018481438016841F002017D
:1021A00001600068694600F002000590022000907E
:1021B0000320CDE90105114800F072F9114C1048D7
:1021C000C4E900050015A560C4E903508000606102
:1021D0008000A0618011E0614002C4E9080520464A
:1021E00000F0E2F808B1FFF7EEFEB463A66306B0B4
:1021F00070BD00000020014044380240000402404D
:1022000010640240380400202DE9F84304464FF0E2
:102210000009CDF8009063484FF41651A56D006891
:10222000B0FBF1F72E6894F85C20082101FA02F067
:1022300030420FD02068026852070BD5026822F0A6
:102240000402026094F85C008140A960606D40F077
:102250000100606594F85C104FF0010808FA01F085
:10226000304208D021684969090604D5A860606D2C
:1022700040F00200606594F85C1004208840304211
:1022800008D021680968890704D5A860606D40F00E
:102290000400606594F85C1010208840304218D02B
:1022A00021680968090714D5A860206801684903F6
:1022B00004D50068000308D5A16C07E00168C905D2
:1022C00003D4016821F008010160216C09B12046A6
:1022D000884794F85C1020208840304231D0216833
:1022E0000968C9062DD5A86094F83500052820682E
:1022F000016806D0490347D5006800031DD4616C0E
:102300001CE021F0160101602068416921F0800184
:102310004161206C08B9A06C20B12068016821F0EF
:102320000801016094F85C103F208840A86084F8A0
:10233000358084F83490216D1FE0E16B09B12046AF
:102340008847606D00282BD0606DC00714D0052031
:1023500084F835002068016821F0010101600098CF
:10236000401C0090B84203D820680068C007F6D12E
:1023700084F8358084F83490E16C002910D001B0E5
:102380002046BDE8F04308470168C905D5D4016877
:1023900021F01001016084F8358084F83490CCE796
:1023A000BDE8F883140200202DE9F041044600F056
:1023B00053F905465CB1022084F83500002684F804
:1023C00034602068016821F0010101600DE0012006
:1023D000BDE8F08100F040F9401B052805D9202018
:1023E0006065032084F83500F2E720680068C007C4
:1023F000F0D121680A6820480240D4E9010318435B
:10240000D4E903352B43184363691843A369184380
:10241000E3691843236A18431043626A042A03D10C
:10242000D4E90B231A431043086020684069656AA9
:1024300020F0070128460D43012704280CD1A06A8B
:102440000543E06A40B12046FFF792FD20B14020ED
:10245000606584F83570BAE7206845612046FFF76B
:1024600073FD94F85C203F2191408160666584F89B
:1024700035700020ACE700003F8010F070B50446D6
:1024800000F0EAF80546601C02D0044800780444D5
:1024900000F0E2F8401BA042FAD370BD0802002011
:1024A0002DE9F84FDFF87C91002209F1040A0AF1C6
:1024B000040B03274FF00F0C0BF1040E01250B68E2
:1024C00095402B40AB426ED10C7904F00304012CF3
:1024D00001D0022C15D18668540007FA04F826EAC8
:1024E0000806D1F80C8008FA04F848EA0608C0F893
:1024F00008804468AC430D79C5F300159540254329
:1025000045600C79E443A40708D0C568540007FA75
:1025100004F6B5438E68A6402E43C6600C7904F0DD
:102520000304022C11D1D40800EB8406356A540749
:10253000E40E0CFA04F825EA0805D1F8108008FA30
:1025400004F848EA0508C6F820800568540007FA30
:1025500004F6B5430E7906F00306A6402E43066046
:102560004C6814F4403F57D02F4C256845F4804503
:102570002560246822F0030504F4804400942B4C69
:1025800005EB0408D8F808589407260F0CFA06F44F
:10259000A543274CA04201D1002415E0254CA042C0
:1025A00002D1012410E037E0234CA04201D10224E3
:1025B0000AE0224CA04201D1032405E0204CA042B5
:1025C00001D1042400E00724B4402C43C8F8084893
:1025D000D9F800404D464E689C43F60300D51C4395
:1025E0002C60DAF8004055464E689C43B60300D58F
:1025F0001C432C60DBF800405D464E689C43F602AD
:1026000000D51C432C60DEF8004075464E689C43A4
:10261000B60200D51C432C60521C102AFFF44EAFAA
:10262000BDE8F88F003C01404438024000300140D2
:10263000000002400004024000080240000C02407A
:10264000001002400069084000D0012070470AB124
:10265000816170470904FBE701488068704700000A
:1026600008020020024881680278114481607047A6
:10267000080200200B4810B5016841F400710160A8
:10268000016841F480610160016841F4807101607A
:10269000032000F071F8002000F006F800F024F8A4
:1026A000002010BD003C024070B50D4D04464FF4B3
:1026B0007A712878B1FBF0F00A490968B1FBF0F0B3
:1026C00000F032FB48B9102C07D200222146501EE0
:1026D00000F032F800206C6070BD012070BD000079
:1026E00008020020140200200B4882B0016841F467
:1026F00080410160006800F4804000900648001F9F
:10270000016841F080510160006800F08050009045
:10271000072002B000F030B844380240002809DB3E
:1027200000F01F02012191404009800000F1E020EB
:10273000C0F8001170470000F0B40E4B1B68C3F3E3
:102740000223C3F10704042C00D904241D1D072D06
:1027500001D2002300E0DB1E012606FA04F56D1EFF
:102760000D409D409E40761E164045EA0601F0BC95
:1027700002F072BE0CED00E0064A00F0070110689E
:102780004FF6FF03184040EA012003490843106058
:10279000704700000CED00E00000FA052DE9F0475D
:1027A0000D46040065D0DFF81491D9F80000EFB2AF
:1027B00000F00700A84207D289F80070D9F800009D
:1027C00000F00700A84254D120683D4E810712D581
:1027D000400703D5306840F4E050306020780007AF
:1027E00003D5306840F4604030603068A16820F064
:1027F000F000084330602078C0072DD03049606871
:102800000839012812D0022813D0032811D00968F2
:10281000890700292DDA316821F003010143316075
:10282000FFF71AFF804641F2883A0EE009688903F3
:10283000EFE709688901ECE7FFF70EFFA0EB08015D
:10284000514502D90320BDE8F0873068616800F087
:102850000C00B0EB810FEFD1D9F80010484601F021
:102860000701A94207D90770006800F00700A842D5
:1028700001D00120E7E72078400705D53068E168FE
:1028800020F4E050084330602078000706D5306817
:10289000216920F4604040EAC100306000F038F85F
:1028A0003168084AC1F30311515CC8400649086009
:1028B00006480068FFF7F8FE0020C4E7003C02402D
:1028C000083802407C670008140200200C02002037
:1028D0000448054900680968044AC1F38221515C33
:1028E000C840704714020020083802408C67000876
:1028F0000448054900680968044AC1F34231515C43
:10290000C840704714020020083802408C67000855
:10291000154810B5006810F00C01144813D043108E
:1029200004290FD008290ED10F4C241F216801F073
:102930003F022168490207D52068C0F38810A0FB38
:10294000030106E0184610BD2168C1F38811A1FB00
:1029500000010023FDF720FD2168C1F30141491C5E
:102960004900B0FBF1F010BD083802400024F4002B
:102970002DE9F84F040075D02078DFF838A3C007A0
:10298000AAF1040548D00AF104000168C1F38101ED
:10299000012908D00068C0F3810002280AD1DAF8C2
:1029A0000000400206D52868800335D560680028FD
:1029B000E1D031E06068B0F5803F10D0B0F5A02FD5
:1029C000286810D020F480302860286820F4802007
:1029D00028606068A0B1FFF73FFE06460CE028685B
:1029E00040F48030F4E740F480202860F7E7FFF7F8
:1029F00033FE801B642871D828688003F7D50BE06C
:102A0000FFF72AFE064604E0FFF726FE801B642837
:102A1000F1D828688003F7D42078DFF89C928007EB
:102A20004FF0000B3DD5A348001D016811F00C0FBD
:102A300008D00068C0F3810002280AD1DAF800004B
:102A4000400206D42868800715D5E068012809D11E
:102A500011E0E068B8B10120C9F80000FFF7FCFD03
:102A6000064605E022E1FFF7F7FD801B0228C2D8E9
:102A700028688007F7D52868216920F0F80040EA27
:102A8000C10028600DE0C9F800B0FFF7E5FD06467B
:102A900004E0FFF7E1FD801B02281FD828688007AB
:102AA000F7D42078000722D5824F844861697037B7
:102AB00071B101210160FFF7CFFD064604E0FFF789
:102AC000CBFD801B022809D838688007F7D50EE0B7
:102AD000C0F800B0FFF7C0FD064605E082E0FFF752
:102AE000BBFD801B02287DD838688007F7D420788A
:102AF000400765D56F484FF000083C300068C000C3
:102B00000BD46C483C30016841F080510160006892
:102B10004FF0010800F080500090694F3868C00500
:102B20000FD4386840F480703860FFF795FD064692
:102B300004E0FFF791FD801B022853D83868C005D8
:102B4000F7D55C4FA0686C3701280FD0052838688E
:102B500010D020F001003860386820F004003860A0
:102B6000A068B0B1FFF778FD06460EE0386840F087
:102B70000100F4E740F004003860F7E7FFF76CFD70
:102B8000811B41F28830814263D838688007F5D5CF
:102B90000DE0FFF761FD064606E0FFF75DFD811BD6
:102BA00041F28830814254D838688007F5D4B8F1B2
:102BB000000F05D03F483C30016821F08051016092
:102BC000A069B8B33B49091D0968C1F38101022915
:102BD00046D00228584606D0C9F86000FFF73CFDF1
:102BE000044639E035E04F46C9F86000FFF734FD90
:102BF000064604E0FFF730FD801B022829D828682C
:102C00008001F7D4D4E907010843A16A2D4A490895
:102C100002EB0141626A41EA8211084394F82C10E8
:102C200040EA0161CAF8001001203866FFF714FD80
:102C3000044605E03CE0FFF70FFD001B022808D822
:102C400028688001F7D533E0FFF706FD001B022856
:102C500002D90320BDE8F88F28688001F4D427E06A
:102C60000128F7D0DAF80000E26900F4800191420F
:102C70001CD1226A00F03F01914217D147F6C07182
:102C8000626A0140B1EB821F10D1A26A4FF0FF339C
:102C900000F4403103EB5202B1EB024F06D194F83D
:102CA0002C1000F07060B0EB016F01D00120D1E773
:102CB0000020CFE70438024000004742800E474220
:102CC000007000400000FFFF2DE9F04102F074FEAB
:102CD00001260027124D0446012803D02F70022C34
:102CE0000CD007E0287820B900210E4A481E02F0D7
:102CF0006FFC2E706F70042C0BD007E0687820B941
:102D0000084A0021012002F063FC6E70AF70BDE83C
:102D1000F081A87810B9034802F090FEAE70F6E793
:102D200004020020F801002010B5401EB0F1807FA1
:102D300001D3012010BD4FF0E02460610F21601726
:102D400002F08AFB0020A06107202061002010BD56
:102D500010B5FFF7B9FF10BD70B590F83C20012AFF
:102D60002CD0012580F83C50022280F83D200268DA
:102D70005368946823F070060B6833435360104B1C
:102D800002689A420ED0B2F1804F0BD00D4B9A429E
:102D900008D00D4B9A4205D00C4B9A4202D00C4BF6
:102DA0009A4204D1496824F080031943916080F865
:102DB0003D50002180F83C10084670BD022070BDD7
:102DC000000001400004004000080040000C0040EA
:102DD0000040014010B5040003D094F83D0010B14C
:102DE00007E0012010BD002084F83C00204600F0E0
:102DF0001FF8022084F83D00211D206801F0AEFF7D
:102E0000012084F8460084F83E0084F83F0084F8EE
:102E1000400084F8410084F8420084F8430084F8BC
:102E2000440084F8450084F83D00002010BD0000F7
:102E300038B50546006800221949B0F1804F26D008
:102E4000184B984222D1086840F0020008600868D8
:102E5000164C00F002000090134820604FF02060F4
:102E600060604020C4E902020001206180006061CE
:102E70008000C4E90602C000C4E908022046FFF74A
:102E800093FA08B1FFF79FF8EC62A56338BD0868B4
:102E900040F001000860086800F00100009038BDB3
:102EA0004038024000040040B8600240280500207D
:102EB00070B5044690F83C000025012817D0012683
:102EC00084F83C60022084F83D002068826822F08B
:102ED000770222F47F4282600868502838D00DDCE7
:102EE00020284FD005DC90B3102811D14AE00220F1
:102EF00070BD302846D040280AD13BE060282FD052
:102F000070280DD0B0F5805F03D0B0F5005F12D00F
:102F1000012584F83D60002084F83C00284670BDFF
:102F2000CB68D1E90121206801F071FF2068816838
:102F300041F0770109E0CB68D1E90121206801F077
:102F400066FF2068816841F480418160E1E719E013
:102F5000CA684968206802F015F85021206806E028
:102F6000CA684968206802F01EF86021206801F0F4
:102F700058FFCEE7CA684968206802F003F840218C
:102F80002068F4E7226801461046F0E710B586B0E5
:102F9000044614216846FDF7DFFB2068002217492C
:102FA0000223B0F1804F16D0154CA04211D1086811
:102FB00040F004000860086800F0040005908815DF
:102FC0000090CDE9013269460E48CDE90323FFF7B1
:102FD00067FA06B010BD086840F001000860086894
:102FE000694600F0010005904FF400400090CDE9E3
:102FF00001320120CDE903200348E8E730380240E0
:1030000000040040000802400000024070B5044681
:1030100090F83C0000260D4601280FD0012084F8CE
:103020003C006AB1042A1DD0082A2FD00C2A3FD0B8
:103030000126002084F83C00304670BD022070BD9F
:10304000206801F0F7FE2068816941F00801816184
:103050002068816921F004018161206881692A6901
:10306000114311E0206801F011FF2068816941F4EB
:10307000006181612068816921F48061816120683B
:1030800081692A6941EA02218161D2E7206801F061
:103090002BFF2068C16941F00801C1612068C16946
:1030A00021F00401C1612068C1692A69114311E05E
:1030B000206801F045FF2068C16941F40061C161E9
:1030C0002068C16921F48061C1612068C1692A69F1
:1030D00041EA0221C161ACE710B5040003D094F8C5
:1030E0003D0010B107E0012010BD002084F83C0035
:1030F000204600F01EF8022084F83D00211D2068C3
:1031000001F02CFE012084F8460084F83E0084F88B
:103110003F0084F8400084F8410084F8420084F8BD
:10312000430084F8440084F8450084F83D00002002
:1031300010BD704710B5044649B104290AD00829CA
:103140000BD094F8410001280AD0012010BD94F85A
:103150003E00F8E794F83F00F5E794F84000F2E706
:10316000022071B3042930D0082931D084F84100FD
:103170000122206801F03EFE17492068884203D1F1
:10318000426C42F400424264206888420ED0B0F1A2
:10319000804F0BD01149884208D01149884205D090
:1031A0001049884202D01049884204D1816801F058
:1031B0000701062903D0016841F0010101600020E8
:1031C00010BDFFE784F83E00D2E784F83F00CFE768
:1031D00084F84000CCE700000000014000040040FB
:1031E00000080040000C00400040014070B50400A1
:1031F00004D094F83D00002510B106E0012070BD18
:1032000084F83C50204600F023F8242084F83D0048
:103210002068C16821F40051C160204601F0D6FE4B
:103220002068016921F4904101612068416921F021
:103230002A0141612068C16841F40051C1602564E0
:10324000202084F83D0084F83E00002070BD00007E
:1032500010B586B0044614216846FDF77DFA13497F
:10326000206888421FD112480021026842F40032CF
:103270000260006800F4003005900D4810380268C4
:1032800042F001020260006800F0010005900C208D
:1032900000900220CDE901010720CDE90310694625
:1032A0000448FFF7FDF806B010BD000000440040E0
:1032B0004038024000000240FEE700002DE9F84FD0
:1032C00047F28377002401F00DF8D34DA34649F26D
:1032D0009008A5F818B0D148AF834FF4805A4FF446
:1032E000F07C40F2134240F2034341F2134941F2B1
:1032F000040E4FF4A07147454FDC45F21038A7EBA0
:103300000800474578D026DC41F22653A7EB03009E
:103310009F4272D011DC41F20553A7EB03009F429C
:103320006CD005DC992F6AD0B7F5AA7F68D17EE012
:103330000C2878D01B28F9D186E05B2874D0DC28D3
:1033400073D0A0F530602D3870D0A0F2E240B0F517
:10335000005FEBD182E042F27948A0EB08074045DC
:103360006FD00DDCF82849D000F60730B0F50050DA
:1033700068D00B2867D0A0F570607A38D6D186E087
:103380000A2F73D00D2F72D0A7F50067A83F6FD01A
:10339000A7F54077263FC9D18CE0B0F52C7F68D0E7
:1033A00019DCB0F5267F70D00ADCA0F50070723809
:1033B0006CD01E2822D0232867D0252820D19FE05A
:1033C000A0F50070993873D0082872D00C2870D0FE
:1033D0000F2815D1ABE0B0F57E7F0CD011DCA0F545
:1033E0000070B1386FD088426ED0A0F5807045383B
:1033F0006BD0012804D1F5E03CE02AE06CE065E008
:1034000077E06FF4DC51401872D0A0F50060F4381A
:1034100003D004282AD050456BD141F208006883BC
:10342000B0217F481FE008E0CCE075E077E041F292
:10343000020068839C217B4815E0032068837A4C56
:1034400021E02AE04DE01BE0774C6A830934062630
:103450007CE0744C6A839C340C2677E07148A5F8B4
:103460001AA09C21A83002F02FFA6FE0C4E0B7E068
:1034700018E065E06C4C40F613606883241F1EE082
:10348000694C6B83E41C0326B0E02DE04DE041F273
:103490001240688390216548E5E7644C6A83903464
:1034A000412653E0614CA5F81A90D13412264DE024
:1034B0003FE01FE05C4C41F203406883A41E0226FB
:1034C00094E0018042E03DE07EE084E0544CA5F8C9
:1034D0001A90DB3C1D2689E0A5F81AE0D821544853
:1034E000C1E741F2021001E04FF48850688303E025
:1034F00018E08DE0A5F81AA04D48CC21D830B2E7ED
:103500004548474C0A306B834FF4C871BE3C01807C
:103510001E26801EF021D4E740F213500BE041F24A
:10352000174008E0A5F81A9006E06B8304E06A8370
:1035300002E041F2036068833B4CA41D032605E0D2
:10354000A5F81A90364C6A83A03C6526688BC0F3B8
:103550000030E88364B10921364802F08FF9314622
:10356000204602F08BF9304806210F3002F086F930
:10357000002000F0C1FF002000F07AFAA88BA0F52F
:10358000144188391CD185F806B04FF6E072084620
:1035900000F0B6F80021084600F09AFEA0F57F4141
:1035A0001F390DD106208DF80000012269463A200E
:1035B00000F0F6FA688B20F0100068830120A871F3
:1035C000BDE8F88F6A8302E040F207406883194C37
:1035D000703C45260AE0124C6B833B3C3B2605E0E1
:1035E0006B8300E06A83134C2B3C2B260A480A307D
:1035F000A0F800C0801E64E70948A5F81AA0C02101
:10360000B03002F061F904484FF4C8710A3058E74D
:1036100001485946083054E700000020F3E6FFFF58
:10362000C6630008C46000082E5E00080862000837
:10363000366500084A67000800F0F800000201F053
:10364000FC0140EAC10040EAD20070472DE9FF4F7B
:1036500081B09A46DDE90EB60F468046F02840DA82
:10366000B7F5A07F3DDA06EB460108EB41000128E3
:1036700037D407EBC600012833D40024052C2CD006
:1036800003981E4900EB80002044002511F80090AB
:103690005FEAC9700BD0012E02D0CDF800A00CE07B
:1036A000781901B208EB040000B2524622E0D3457B
:1036B0000DD0012E18D0CDF800B005FB067001B278
:1036C00004FB0680334600B21A4600F041F86D1C38
:1036D0006DB24FEA5909082DDADB641C64B2062C7E
:1036E000CCDB05B0BDE8F08F781901B208EB04001F
:1036F00000B25A4600F004F8E9E70000435E000813
:103700002DE9F0410C46050017461CD4002C1ADBAD
:103710000E4EB6F90C00854215DAB6F90E00844259
:1037200011DAB07918B1104601F0ADFE0746234614
:103730002A461946104600F037FE3946F08CBDE89F
:10374000F04101F02FB9BDE8F08100000000002039
:103750002DE9F04FDFF8EC9285B0074699F80600A6
:10376000DDF838801C4616460D4618B1404601F07B
:103770008AFE8046002E03DA704206B2B81B07B2FA
:10378000B81900B2002F00DA0027B9F90C104E4624
:10379000884200DD0846C01B0FFA80F9002C03DACE
:1037A000604204B2281B05B2281900B2002D00DACD
:1037B0000025B6F90E10884200DD0846401B04B211
:1037C0002819401E03B207EB0900401E02B2294629
:1037D000384600F0E9FD9C494FF480300860010153
:1037E0009A48816197494FF0E06EC98CC0F818E0A3
:1037F0000A0AC9B2944D4FF0876BC5F800B0944DDA
:103800004FF4000A5646C5F800A0D3079B0D02F0FE
:10381000040743EA072302F0800743EA4703836172
:1038200002F0080302F0100743EA4707102303EAF7
:10383000520C47EA0C0702F0400C47EA0C17DFF87D
:1038400008C2CCF8007002F002022F4692013A60E2
:103850005A038261826182618261826182618261D6
:1038600082618261826182618261826102228261FF
:103870008261C0F818E0CCF800B03E60CE07B60D0B
:1038800001F0040746EA072601F0800746EA4706EA
:10389000866101F0080601F0100746EA470603EAD0
:1038A00051073E4301F0400746EA071667463E606F
:1038B00001F002012E4689013160110481618161AC
:1038C00081618161816181618161816181618161E8
:1038D0008161816181618261826183614C4502DD28
:1038E00020464C4681464FEA182308F0FF0283E049
:1038F000D807800D03F0040640EA062603F0800096
:1039000046EA4000049003F0080603F0100010217E
:1039100046EA400001EA5306304303F0400640EA1D
:103920000610039003F0020080010290D007800D82
:1039300002F0040640EA062002F0800640EA460053
:10394000019002F0080002F01006022740EA46004B
:1039500001EA5201084302F0400140EA01100090E0
:1039600002F00200CC464FEA801E38484FF0E06873
:10397000C0F81880344EC6F800B0C5F800A004990D
:10398000816103993160029929604FF400318161AE
:103990008161816181618161816181618161816117
:1039A000816181618161816187618761C0F818806F
:1039B000C6F800B0C5F800A0DDF80480C0F8188093
:1039C000DDF80080C6F80080C5F800E08161816103
:1039D00081618161816181618161816181618161D7
:1039E00081618161816187618761ACF1010C0FFAAE
:1039F0008CFCBCF1000FB8D1201EA4F1010424B24C
:103A00003FF776AF1048012101600E48817EC9075B
:103A100007D0818BA1F5A852263A0FD18178C9072A
:103A20000CD0C189808905B0491EBDE8F04F401E09
:103A30000BB202B20021084600F0B6BC05B0BDE8EA
:103A4000F08F000000000020180402400000024037
:103A50001808024008B5002100900448B0F90E3063
:103A6000B0F90C200846FFF773FE08BD00000020E7
:103A700008B52C4B5A8BC2F3003141401846D9830C
:103A8000808BD20721D05A79B2B1A0F50342473AD0
:103A900006D0A0F5A442523A02D031B1082005E088
:103AA00009B1062002E0022000E00A208DF80000A3
:103AB00001216A46084605E009B1212000E02020E6
:103AC0000022114601F018FB08BD49F22523C21A55
:103AD00098421BD00DDCB0F5AA7F17D0A0F5A150FD
:103AE000B0F5804017D0A0F27330B0F5005F0BD175
:103AF00011E0012A0AD0A2F58072013A0BD0A2F29D
:103B0000E312B2F5005F06D0612008E0132040EA1E
:103B10008101072003E041F0020140F2014000F082
:103B200041FF08BD000000200FB41B487CB507AA68
:103B30000699FCF7A9FC0026174D184C26E00A2A26
:103B40001DD00D2A21D02178E08ACDE90001A38A79
:103B5000B4F91210B4F91000FFF778FD2078228A2A
:103B600000EB400102EB410109B22182E27862B12F
:103B7000A0EB8000F02202EB4000884205DA608A68
:103B8000617800EBC100608226826D1C2A78002AD1
:103B9000D5D17CBC5DF814FB180200200000002089
:103BA00013460A46194601F0A7BA00002DE9FF4F57
:103BB000FF4F81B09146F88C00900E9904984843CD
:103BC00004B200267879354620B9B87EC00701D006
:103BD0002E20009002980844401E03B204990198D8
:103BE0000844401E02B2DDE9010100F0DDFB4FF4A4
:103BF000803B4BE3DFF8B8A39AF81A00C0070DD159
:103C000001985746284481B2BAF8220000F0CAFE53
:103C10000298304481B2B88C00F0C4FEE549C1F886
:103C200000B0E5484FF48011816100994FF0E063E6
:103C30000A0AC9B28361DF4F4FF087633B60DF4BF5
:103C40004FF40008C3F80080D707BF0D02F0040C42
:103C500047EA0C2702F0800C47EA4C07876102F024
:103C6000080702F0100C47EA4C074FF0100E0EEA5E
:103C7000520C47EA0C0702F0400C47EA0C17DFF839
:103C800034C3CCF8007002F0020292011A604FF4C3
:103C900000328261826182618261826182618261BD
:103CA0008261826182618261826182614FF0020C75
:103CB000C0F818C0C0F818C04FF0E0628261BD4F74
:103CC0004FF087623A60C3F80080CA07920D01F096
:103CD000040742EA072201F0800742EA47028261B4
:103CE00001F0080201F0100742EA47020EEA51070C
:103CF0003A4301F0400742EA0712AE4F3A6001F042
:103D00000201890119604FF4003181618161816193
:103D10008161816181618161816181618161816193
:103D200081618161C0F818C0C0F818C0C0F818E0FF
:103D3000016821F47C1101609E4918390A68A04B82
:103D40001A400A609D4918390A6822F440420A6004
:103D5000BAF81A1057464A0658D4C9075DD1B98B2C
:103D6000A1F59052893A58D0012383615946C0F891
:103D700018B0C0F818B0C0F818B0C0F818B0C0F843
:103D800018B0C0F818B0C0F818B0C0F818B0C0F833
:103D900018B0C0F818B0C0F818B0C0F818B0C0F823
:103DA00018B0C0F818B0C0F818B00269DFF80C827B
:103DB000A8F10808D8F8002002697E4A083AD2F82B
:103DC00000C0D2F800C0D2F800C0D2F800C0D0F8CD
:103DD00010C08361836183618161816181618161DF
:103DE00081618161816181618161816181618161C3
:103DF0008161816181610169D8F8001001691168F0
:103E0000116811681168016983618361BAF81C1037
:103E1000A1F5A852113A2FD007E201228261C0F821
:103E200018B0C0F818B0C0F818B0C0F818B0C0F892
:103E300018B0C0F818B0C0F818B0C0F818B0C0F882
:103E400018B0C0F818B0C0F818B0C0F818B0C0F872
:103E500018B0C0F818B0C0F818B00169574908394F
:103E600009680169534908390B680B680B680968D0
:103E7000016982618261C9E701228261C0F818B0DC
:103E8000C0F818B0C0F818B0C0F818B0C0F818B032
:103E9000C0F818B0C0F818B0C0F818B0C0F818B022
:103EA000C0F818B0C0F818B0C0F818B0C0F818B012
:103EB000C0F818B0C0F818B001694049083909685D
:103EC00001693C4908390B680B680B68096801698E
:103ED00082618261A9E13648478BF80672D5364B7C
:103EE0004FF0010CC3F818C05846C3F818B0C3F817
:103EF00018B0C3F818B0C3F818B0C3F818B0C3F8B6
:103F000018B0C3F818B0C3F818B0C3F818B0C3F8A5
:103F100018B0C3F818B0C3F818B0C3F818B0C3F895
:103F200018B0C3F818B01969DFF890E0C1F3402267
:103F3000AEF1080EDEF8001001F0800142EA9111A6
:103F40001A6902F4806241EA12211A4A083AD2F848
:103F5000008008F0080841EA0801D2F8008008F063
:103F6000200841EA5801D2F8008008F0100841EA20
:103F70004801D2F8008008F4806841EA1811D3F8AB
:103F80001080C3F818C008F4807841EA580AC3F8D2
:103F900018C0C3F818C098619861986198619861D9
:103FA00098619861986198619861986198610AE058
:103FB00000000020180402400000024018080240DF
:103FC0003FF0CFFF7CE09861986198611969C1F377
:103FD0004028DEF8001001F0800148EA9111D3F882
:103FE000108008F4806841EA1821D2F8008008F0B7
:103FF000080841EA0801D2F8008008F0200841EAE8
:104000005801D2F8008008F0100841EA4801D2F8BF
:10401000008008F4806841EA1811D3F81080C3F8D2
:1040200018C008F4807841EA5801C3F818C0C3F8F2
:1040300018C09861986198619861986198619861D9
:1040400098619861986198619861986198619861A8
:104050001869C0F34028DEF8000000F0800048EA4C
:104060009010D3F8108008F4806840EA1820D2F845
:10407000008008F0080840EA0800D2F8008008F044
:10408000200840EA5800D2F80080126808F01008B2
:1040900040EA480002F4806240EA12101A69C3F84C
:1040A00018C002F4807240EA5200C3F818C07A07C0
:1040B00001D5524601E002465046FFF7BDFAA1E0A5
:1040C0007D48012383615946C0F818B0C0F818B084
:1040D000C0F818B0C0F818B0C0F818B0C0F818B0E0
:1040E000C0F818B0C0F818B0C0F818B0C0F818B0D0
:1040F000C0F818B0C0F818B0C0F818B0C0F818B0C0
:10410000C0F818B00269DFF8B4A1C2F3402CDAF8A5
:10411000002002F080024CEA9212D0F810C00CF499
:10412000806C42EA1C2C664AD2F8008008F008082D
:104130004CEA080CD2F8008008F020084CEA580C31
:10414000D2F8008008F010084CEA480CD2F8008041
:1041500008F480684CEA181CD0F81080836108F4D9
:1041600080784CEA580C836183618161816181614F
:10417000816181618161816181618161816181612F
:1041800081618161816181610169C1F34028DAF84F
:10419000001001F0800148EA9111D0F8108008F475
:1041A000806841EA1821D2F8008008F0080841EA46
:1041B0000801D2F8008008F0200841EA5801D2F83E
:1041C0000080126808F0100841EA480102F4806299
:1041D00041EA12110269836102F4807241EA5201DC
:1041E000836141EA0C20390703D5010A41EA002026
:1041F00080B2790706D500F4FC6141EAD02141EA9A
:10420000C02080B22F4A917941B1202320F03F0194
:1042100003EA50131943C0F34400084329F8020B82
:10422000641E907E24B2800702D5002C7FF453AE2A
:104230006D1C04982DB2854206DB761C0E98002575
:1042400036B2864200DB00261B48012181611C4AF0
:1042500008321160016821F47C110160184910399D
:104260000A68194B1A400A60144A103A136823F47A
:1042700040431360036843F4A81303600868134BBA
:1042800018430860106840F480401060002C3FF72D
:10429000B1AC0C48817EC90709D1C1898089491E0A
:1042A0000BB2401E02B20021084600F07DF805B0B6
:1042B0000020BDE8F08F000000000240100802401E
:1042C00010040240000000203FF0CFFF4005100026
:1042D0001CB501221346009201AAFFF767FCBDF846
:1042E00004001CBD70B52A480123037129480168E8
:1042F00021F47C11016028490A68284C22400A6098
:10430000274A146824F440441460046844F4A81450
:1043100004600C68234D2C430C60146844F4804402
:104320001460046824F00304641C0460046824F02E
:104330000C04241D0460046824F4407444F4807464
:1043400004600C6824F00304641C0C60116821F004
:104350000C01091D1160104918310B6083610223A3
:1043600083610F4C18342360322001F09FF84FF422
:1043700000302060642001F099F82360642001F08F
:1043800095F8BDE870400021B02000F00BBB0000A4
:104390000000002000000240000402403FF0CFFF78
:1043A00000080240400510002DE9F84317464E4A28
:1043B0000D460646918B10461C468078A1F51343A6
:1043C000273B0DD1022802D0032805D008E0203574
:1043D00020342DB224B203E02036203736B23FB26B
:1043E000A1F5A853263B0FD1C0070DD0B81B01B2D1
:1043F000601B00B208B119B106E0641C24B203E0EE
:104400003918201A0FB204B2907EC00737D0F8B224
:104410000090F1B2904692F828000A46C7F30723AD
:10442000C6F307210F4600F058FEE0B20090C4F337
:104430000723C5F30721EAB298F82C000C4600F0D8
:104440004CFE98F80500002817D0B8F81C00652825
:1044500013D18DF800708DF801606A460221B8F81A
:10446000220000F049FE8DF800408DF801506A46A8
:104470000221B8F8240000F03FFEBDE8F883B1B295
:104480009046508C00F08EFAA9B2B8F8240000F0E3
:1044900089FABE4201D1A542EFD098F81A008006F1
:1044A0000CD598F80200C00704D045EA042004B2F5
:1044B000254603E046EA072006B23746B1B2B8F80F
:1044C000280000F06FFAA9B2B8F82C0000F06AFAE0
:1044D000B9B2B8F82A0000F065FAA1B2B8F82E0017
:1044E000BDE8F84300F05EBA00000020014A1082E7
:1044F00051827047000000202DE9FC47C64C00F0B7
:1045000003012246A170B2F90A30CD07B2F90820A2
:10451000002D01D01D4600E01546A58100D11A46A8
:10452000E28131B1012906D002297BD0032905D1CE
:104530007AE0482100E028218DF80010618BCA053F
:1045400005D59DF8002082F080028DF800208A05B4
:1045500005D59DF8002082F040028DF800200A0564
:1045600005D59DF8002082F008028DF80020AA4AA7
:10457000CD074FF02001928B4FF022034FF0080936
:1045800074D0A2F5D045143D2FD041F6631149F205
:10459000814541F211568A4203D0AA4201D0B2426B
:1045A00044D19DF80000030603D540F001008DF8CA
:1045B0000000C0B2430603D540F002008DF80000B1
:1045C0008A4203D100F03F008DF80000AA4203D1D7
:1045D00000F02F008DF80000B2425DD100F0EF0036
:1045E00040F0C0008DF8000056E09DF80000402229
:1045F00002EA500201EA500100F028008DF80000A4
:1046000000200A438DF8040042F002008DF80500F6
:104610003B208DF8060001AA0321B62000F06CFDB6
:104620003AE0FFE7982187E7F82185E7617979B3D8
:10463000022161840625A584E38421850421618506
:10464000A585A4F82E90652A11D0A2F5A440523871
:104650002CD19DF8000040F002008DF80000C1064A
:1046600024D540F004008DF800001FE02BE09DF8F9
:104670000010CA0603D481F081018DF80010C20732
:104680004FF082004FF0800103D06084A1840DE0E0
:1046900002E06184A08409E02A202B216084A184A7
:1046A0002C22E28420856085A185E185607908B1AE
:1046B000162000E036206A46012100F01DFD9DF81D
:1046C0000000208483E047F29375501B21264FF4AD
:1046D00000774FF480784FF4004CAA423ED006DCBD
:1046E000B2F5AA7F1FD0A2F5A840203807E000F25B
:1046F0006D40B0F5005031D0A0F50450E33868B3F8
:104700006184A684E3845020208551206085522056
:10471000A0855320E0859DF800000CEA002040F4BD
:104720001C5160203CE037202085362060853920F0
:10473000A0853820E0856184A684E3849DF800008C
:1047400007EA800108EA80000143A2F58070393849
:1047500002D02820014329E02720FBE7678440F2AC
:104760000120A084401CE0844FF404702085401C8C
:104770006085401CA085401CE0859DF80000A2F5E6
:1047800013430CEA00214FF4D440263B03D0A2F59A
:10479000A843203B01D14FF4545001434FF48060B3
:1047A00000F000F99DF8001008EA8101012000F0F6
:1047B000F9F89DF8001009EA9100090701D540F4C5
:1047C000805040F030012184032000F0EBF8A07805
:1047D000C0070ED0608B40050BD4608CA18C618427
:1047E000A084208DA18D2185A085608DE18D6185BE
:1047F000E085E0890021401E03B2A089401E02B27C
:104800000846FFF7D1FD0022B4F90A10104600F067
:104810000BF8BDE8FC87000000000020014A9082F0
:10482000D1827047000000202DE9FC415C4F164604
:1048300049F22733BA8B04469A4206D1B878022847
:1048400001D0032801D1203424B27889001B401AFA
:1048500000B29A4201D1203000B24B429E4201DDAB
:104860008E4200DB0026A3191DB2002E01DA6B1860
:104870001DB263185B1E97F81AC01BB25FEACC7CAE
:1048800049D0220A8DF800208DF801400A0A8DF8DF
:1048900002208DF80310010A8DF804108DF8050030
:1048A000787908B10E2000E033206A46062100F036
:1048B00023FC280A8DF800008DF80150787908B1A2
:1048C000142000E037206A46022100F015FC7879B8
:1048D000A8B148F2473136B1B88B884201D10220E5
:1048E00002E0082000E000208DF80000B88B88422C
:1048F00001D1182000E001206A46012107E0002EC6
:1049000007D1B87EC00704D000221146132000F062
:10491000F3FBBDE8FC81224849F22527D61BC18B59
:10492000BA4241F0020022D00FDCB2F5AA7F1ED0BD
:10493000A2F5A152B2F5804225D0A2F26332B2F5BF
:1049400000520ED0102A0BD11DE0012E0FD0A6F57B
:104950008076013E17D0A6F2E316B6F5005F12D0BE
:104960000146612000F01EF8A9B26A2013E099B256
:10497000312000F017F8A1B2322000F013F8281B04
:1049800081B2332007E0014640F2014000F00AF80E
:10499000A9B240F20440BDE8FC4100F003B80000B9
:1049A0000000002001F018B97FB5002416480094DB
:1049B000019402941349039401604FF48031C0E9DB
:1049C00001140461047680F820400903C1620125C6
:1049D000C5614FF0C061C460816280F830504561AC
:1049E000FDF79AFB08B1FDF7EEFA0920CDE90005C5
:1049F000694602940448FDF7E9FA002801D0FDF762
:104A0000E2FA7FBD00200140F0030020114808B504
:104A1000016841F480010160016801F480010091A6
:104A2000016841F4001101600068002200F40010E8
:104A3000009011462F20FDF77FFE2F20FDF76EFE20
:104A4000002211463820FDF777FEBDE808403820E7
:104A5000FDF764BE30380240F0B587B014216846D7
:104A6000FBF77AFE30480024016841F00401016040
:104A7000016801F004010591016841F080010160C5
:104A8000016801F080010591016841F001010160B8
:104A9000016801F001010591016841F00201016026
:104AA0000068224E00F002000590002241F28C4185
:104AB0003046FDF7CCFD1E4F002220213846FDF781
:104AC000C6FD4FF4005000904FF40410CDE90104EE
:104AD00069463046FDF7E4FC41F20C40009011209D
:104AE000CDE90104694630460394FDF7D9FC202046
:104AF00000900125CDE90154694638460394FDF73D
:104B0000CFFC70208DE8310069463046FDF7C8FCC7
:104B100080200090CDE90154694630460394FDF7AA
:104B2000BFFC07B0F0BD0000303802400008024072
:104B30000000024010B58EB0002407940894099438
:104B40000A940B941C2168460C94FBF705FE1E4842
:104B50004FF0804101605321C0E901143121C0E9C7
:104B600003148461FEF736F908B1FDF72CFA4FF40F
:104B70008050079007A91448FEF79AF908B1FDF78D
:104B800022FA1148FEF7A8FA08B1FDF71CFA0B94B7
:104B90000BA90D480C94FEF7DFF808B1FDF713FAE6
:104BA000602000900A20CDE90104002269460648F1
:104BB0000494FEF72BFA08B1FDF705FA0248FEF758
:104BC000E5F90EB010BD00009804002010B58EB0BD
:104BD00000240794089409940A940B941C216846B5
:104BE0000C94FBF7B9FD1E481C49C0E9001440F6BF
:104BF0003301C0E90241802104618161FEF7EAF8D6
:104C000008B1FDF7E0F94FF48050079007A9144868
:104C1000FEF74EF908B1FDF7D6F91148FEF75CFA38
:104C200008B1FDF7D0F90B940BA90D480C94FEF7D1
:104C300093F808B1FDF7C7F96020CDE900040294AC
:104C40000822694606480494FEF7E0F908B1FDF72A
:104C5000BAF90348FEF79AF90EB010BD00040040FF
:104C6000E00400200C4810B50A4901604FF4E1311E
:104C70004160002181600C22C160C0E904128161A1
:104C8000C161FEF7B3FA002803D0BDE81040FDF77C
:104C90009AB910BD0044004088050020FEE7FEE7F9
:104CA0007047704710B5FDF7DDFCBDE81040FEF71A
:104CB0004FB8000030B593B030216846FBF74CFD8B
:104CC00014210CA8FBF748FD1E480025016841F09F
:104CD00080510160006800F0805011901A4801680E
:104CE00021F4404141F4004101600068022400F4D5
:104CF00040401190012003901020009406940490ED
:104D0000CDE907504FF4A870099004200A900720BD
:104D10000B906846FDF72CFE08B172B6FEE70CA9B1
:104D20000F2081E831004FF48050CDE90F050221BA
:104D30000CA8FDF733FD002801D072B6FEE713B0D2
:104D400030BD000040380240007000400248016859
:104D500041F470010160704788ED00E0F0B5026831
:104D60001D4C1E4D1E4E1F4F4FF0804CA04207D0D1
:104D7000604505D0A84203D0B04201D0B84203D16B
:104D800022F070034A681A43A04210D060450ED04A
:104D9000A8420CD0B0420AD0B84208D0124B984278
:104DA00005D0124B984202D0114B984203D122F405
:104DB0004073CA681A434B6922F080021A430260AA
:104DC0008A68C2620A688262A04201D109690163ED
:104DD00001214161F0BD00000000014000040040DD
:104DE00000080040000C0040004001400044014029
:104DF0000048014010B501F01F010123046A8B40F7
:104E00009C430462036A8A401343036210BD10B5D9
:104E1000846842EA032224F47F440A4322438260E6
:104E200010BD826822F070020A4342F007018160DF
:104E30007047000030B5026A22F001020262036A84
:104E40004268846924F073050C682C4323F0020542
:104E50008B682B430C4DA84206D123F00805CB6884
:104E600043EA050323F0040307D14D6922F440729D
:104E700045EA02058A6942EA05024260846149689E
:104E80004163036230BD00000000014030B5026A9A
:104E900022F010020262026A436884690D6824F4F9
:104EA000E64444EA05248D6822F0200242EA051215
:104EB0000C4DA84206D1CD6822F0800242EA0512CC
:104EC00022F0400207D14D6923F4406343EA850391
:104ED0008D6943EA850343608461496881630262A6
:104EE00030BD00000000014030B5026A22F480723B
:104EF0000262036A4268C46923F4007324F07305F4
:104F00000C682C438D6843EA05230C4DA84206D15A
:104F1000CD6823F4006343EA052323F4806307D1BB
:104F20004D6922F4405242EA05128D6942EA0512A7
:104F30004260C4614968C163036230BD0000014042
:104F400030B5026A22F480520262036A4268C46980
:104F50000D6824F4E64444EA05248D6823F40053E4
:104F600043EA0533064DA84204D14D6922F480423C
:104F700042EA85124260C46149680164036230BD3F
:104F80000000014010B5046A036A23F001030362C4
:104F9000836923F0F00343EA021324F00A020A4370
:104FA0008361026210BD10B5036A23F0100303622F
:104FB0008469036A24F4704444EA023223F0A003B3
:104FC00043EA01118261016210BD000070B5044620
:104FD00000680169E26821F4405111430161A16850
:104FE0002069E26901436069104301432068C26897
:104FF00049F20C639A430A43C26020684169A2697E
:1050000021F440711143416131492068884202D046
:105010003049884202D1FDF76BFC01E0FDF758FCF6
:10502000E2690023192164253226B2F5004F626837
:1050300028D0A0FB0101930F9200FBF7ADF90146C8
:10504000B0FBF5F06FF01802504301EB800006EB67
:105050000010B0FBF5F000F0F002B1FBF5F002EB50
:105060000012B1FBF5F06FF01803584301EB80001C
:1050700006EB0010B0FBF5F000F00F0021681044C3
:10508000886070BDA0FB010192185B41FBF784F9B9
:105090000146B0FBF5F00201B1FBF5F06FF018032B
:1050A000584301EB800006EBC000B0FBF5F000F0C8
:1050B000F80002EB4002B1FBF5F0584301EB800031
:1050C00006EBC000B0FBF5F000F00700D6E70000EB
:1050D0000010014000140140FEE738B58DF80010C3
:1050E0008DF80120049C8DF802308DF803406A464B
:1050F000042100F001F838BD2DE9F04FC64B4FF404
:1051000080341C602301C54CA3614FF0E068050AA0
:10511000C3B2C4F81880C04F4FF08769C7F8009039
:10512000BF4F4FF4000AC7F800A0EE07B60D05F018
:10513000040746EA072605F0800746EA4706A66107
:1051400005F0080605F0100746EA4707102606EAAC
:10515000550C47EA0C0705F0400C47EA0C17DFF83E
:10516000B8C2CCF80070AE4F05F00205AD013D604D
:105170004FF4003BC4F818B0C4F818B0C4F818B025
:10518000C4F818B0C4F818B0C4F818B0C4F818B00F
:10519000C4F818B0C4F818B0C4F818B0C4F818B0FF
:1051A000C4F818B0C4F818B04FF0020E7546C4F831
:1051B00018E0C4F818E0C4F81880CCF80090BC4699
:1051C000CCF800A0DF07BF0D03F0040C47EA0C2762
:1051D00003F0800C47EA4C07A76103F0080703F0CF
:1051E000100C47EA4C0706EA530C47EA0C0703F099
:1051F000400C47EA0C17DFF820C2CCF80070884F4B
:1052000003F002039B013B607303A361A361A361ED
:10521000A361A361A361A361A361A361A361A3616E
:10522000A361A361A561A561A6616746EAE012F8E2
:10523000013B4FF0E065A5614FF087653D60DFF809
:10524000E0814FF40005C8F80050DD07AD0D03F014
:10525000040645EA062503F0800645EA4605A561F1
:1052600003F0080503F0100645EA4606102505EA96
:10527000530C46EA0C0603F0400C46EA0C163E605E
:1052800003F002039B01C8F80030C4F818B0C4F85A
:1052900018B0C4F818B0C4F818B0C4F818B0C4F8FE
:1052A00018B0C4F818B0C4F818B0C4F818B0C4F8EE
:1052B00018B0C4F818B0C4F818B0C4F818B0C4F8DE
:1052C00018E0C4F818E000297ED0564B5B79002B1B
:1052D0007AD0401C2B0480B2A3614FF0E06C060A28
:1052E000C3B2C4F818C04FF0876CC7F800C04FF4C1
:1052F000000CC146C8F800C04FEAC67C4FEA9C5C6F
:1053000006F004084CEA082C06F080084CEA480C29
:10531000C4F818C006F0080C06F01008AA464CEABB
:10532000480C05EA56054CEA050C06F040054CEA27
:1053300005153D6006F00205AE01C9F800605D4646
:10534000C4F818B0C4F818B0C4F818B0C4F818B04D
:10535000C4F818B0C4F818B0C4F818B0C4F818B03D
:10536000C4F818B0C4F818B0C4F818B0C4F818B02D
:10537000C4F818B07646C4F818E0C4F818E04FF046
:10538000E06CC4F818C04FF0876CC7F800C04FF449
:10539000000CC9F800C04FEAC37C4FEA9C5C03F0E4
:1053A00004084CEA082C03F080084CEA480CC4F8C6
:1053B00018C003F0080C03F010084CEA480C0AEA85
:1053C00053084CEA080C00E01CE003F040084CEAEB
:1053D000081CC7F800C003F002034FEA831CC9F899
:1053E00000C0A561A561A561A561A561A561A561D3
:1053F000A561A561A561A561A561A561A661A6617B
:10540000C4F818A00B1EA1F1010149B23FF70FAF7C
:1054100001203860BDE8F08F18040240000002400F
:10542000180802400000002003B4019841000098D1
:1054300050EAC12018BF04204A0D18BF40F00100F7
:1054400040F2FF72B2EB515F08BF40F0020001284A
:1054500008BF052002B070470907090E002804DBC9
:1054600000F1E02080F80014704700F00F0000F118
:10547000E02080F8141D704730380A2801D201203E
:1054800070470020704720F03F0100F01F0241EA02
:10549000420100F001000843704702880A804288F8
:1054A0004A8042794A7100790871704700214FF4AF
:1054B0007A72504305E000FB00F2491E02FB001126
:1054C000401E0028F7DC084670470000F0B51B4975
:1054D0001B4C0379497904EB831301F0030103EBBF
:1054E000011CB0F902701749B0F90000002200EB6E
:1054F000010E0020511E39440CEB82060DB2315CC6
:1055000009B1012400E00024290000D5002101EBAD
:10551000410100EB81011EF8011009B1012300E0F7
:1055200000231C4201D00120F0BD401C0428E6DB12
:10553000521C042ADDDB0020F0BD0000F801002031
:10554000300000201803002010B5044600F008F8D1
:1055500020B92046FFF7BAFF002800D0012010BD77
:10556000F0B51A4E0179002506EB811146792C46DB
:1055700006F0030603232A4601EB0617002107EB7A
:10558000820616F801C0BCF1000F08D0954200DA7F
:1055900015468C4200DA0C468B4200DD0B46491C56
:1055A0000429EEDB521C042AE8DBB0F90010B0F944
:1055B00002000A19D942284403D40C2A01DA13281C
:1055C00001DB0120F0BD0020F0BD00003000002014
:1055D0007CB50D460646144669461046FFF75DFF4A
:1055E000BDF800003044ADF80000BDF802002844CA
:1055F000ADF802006846FFF7A7FF08B101207CBDA7
:10560000204600F005F92088304420806088284436
:105610006080204600F09EF800207CBDF8B54FF673
:10562000FF700090B423782246213C20FEF790F8CA
:10563000134F002505EB4500002407EB8006305D85
:10564000B8B104EB84013C2202EB410C05EB85016F
:10565000462202EB41010B4A0A2302EB40001A46A4
:1056600030F8020C09B280B200900FFA8CF0FEF70D
:105670006FF8641C0C2CE2DB6D1C122DDADBF8BD1C
:1056800018030020546700080EB5094809A14268B4
:105690006846FAF70BFF32210020FEF727FF47F696
:1056A000EF310020FFF7BAF86846FEF73DFA0EBD6D
:1056B000F001002025640000F8B5174E00250024F5
:1056C00016480179437906EB811203F0030302EBDC
:1056D000031202EB8502125DB2B1028840882244B7
:1056E00002EB82025700284400EB8000642202EBA8
:1056F00040000B4A0A2332F811101A4689B2009171
:1057000001B238B2FEF724F8641C042CD8DB6D1CFF
:10571000042DD4DBF8BD000030000020FE01002085
:10572000546700080EB50948094902686846FAF747
:10573000BDFE00210846FEF7D9FE47F6EF310020F6
:10574000FFF76CF86846FEF7EFF90EBDF001002098
:10575000B4560008F8B51A4F0646002500243279E1
:10576000717907EB821001F0030100EB011000EBEF
:105770008500005DE0B1B6F900003C21204400EB5B
:10578000800001EB400CB6F90200284400EB8003D6
:1057900001EB430100280BDD0A480A2309B230F867
:1057A00012001A4680B200900FFA8CF0FDF7D0FF7D
:1057B000641C042CD3DB6D1C042DCFDBF8BD000072
:1057C000300000205467000830B5401E01B2094B7C
:1057D0000DE001EB4102002003EB82021518145C7E
:1057E000401C00B22C730C28F8DB491E09B20029BA
:1057F000EFDC30BD1803002008B547F6EF30282352
:1058000000901A4664210020FDF7A2FF08BD0000A9
:10581000F8B5194F0646002500243079717907EB59
:10582000801001F0030100EB011000EB8500005D2A
:10583000D0B1B6F900003C21204400EB800001EB20
:10584000400CB6F90200284400EB800201EB420153
:10585000002809DD4FF6FF700A2300901A4609B2AE
:105860000FFA8CF0FDF774FF641C042CD5DB6D1C63
:10587000042DD1DBF8BD00003000002070B586B0EB
:105880000E4604461CE014F8013B14F8015B7F2B24
:1058900002D00020694609E02846FFF707FE0025F0
:1058A0000BE014F8012B0A54401CC0B2A842F8D3F4
:1058B0000A4669B21846FFF71FFC701B801E06B22D
:1058C000002EE0DC06B070BD70B50D4604464FF604
:1058D000FF760DE034F8020B34F8021BB04203D11E
:1058E0000846FFF7E3FD01E000F076F92D1F2DB229
:1058F000002DEFDC70BD000010B5D8210D48FAF77F
:1059000009FFFAF70FFD072190FBF1F201FB1200EE
:1059100009490871881F00F06FF8074800210E3808
:1059200001604160FFF7FEFEFFF7AEFEBDE81040EC
:10593000FFF7C2BE18030020FE010020FCF79AFE0C
:10594000FFF7B8F9FFF788F8FFF78CF9FFF72CF8A5
:10595000FFF75CF8FFF7EEF8FFF738F9FDF7AEFC5C
:105960001420FCF78BFD0020FEF7C6FD0020FEF79B
:1059700071F847F6EF30FEF76DF8FFF7BDFFFFF760
:105980004DFE00210B48FDF7D5FB00F0AFF820B12C
:105990004FF47840FEF75EF8FEE71920FCF76EFD45
:1059A000012000F067F80A20FCF768FD4B20FCF7A7
:1059B00065FDEAE79804002070B50E4D0024102123
:1059C0002846FCF73FFE00B9012420212846FCF7B9
:1059D00039FE00B9A41C40212846FCF733FE00B96B
:1059E000241D80212846FCF72DFE00B908342046EE
:1059F00070BD00000008024070B5044604202080FD
:105A000000200D4D6080607128792071FAF78AFCC2
:105A1000072190FBF1F201FB12002871FFF7ECFE69
:105A2000FFF74AFE2046FFF795FE2046FFF74EFDA2
:105A3000002800D0012070BDFE0100201CB50446E6
:105A40006946FFF72AFD9DF80500401C8DF805000A
:105A50006846FFF779FD08B101201CBD2046FFF71D
:105A6000D7FE6079401C60712046FFF773FE00206E
:105A70001CBD00002DE9F0414FF48066B7001A4DBF
:105A80000446012807D0012204212846FCF7DFFD47
:105A9000022C0DD004E0002204212846FCF7D7FD9B
:105AA000012208212846FCF7D2FD032C0DD004E08A
:105AB000002208212846FCF7CAFD0122314628466B
:105AC000FCF7C5FD042C0CD004E00022314628462A
:105AD000FCF7BDFD012239462846BDE8F041FCF740
