:020000040800F2
:10000000400B0020AD010008134B0008452C0008F0
:10001000114B000801090008A95200080000000067
:10002000000000000000000000000000174B000866
:10003000C109000800000000154B0008194B00081A
:10004000C7010008C7010008C7010008C701000870
:10005000C7010008C7010008C7010008C701000860
:10006000C7010008C7010008C7010008C701000850
:10007000C7010008C7010008C7010008C701000840
:10008000C7010008C7010008C70100080000000000
:10009000000000000000000000000000C701000890
:1000A000C7010008C7010008C7010008C701000810
:1000B000C7010008D14B0008DD4B0008C70100084C
:1000C000C7010008C7010008C7010008C7010008F0
:1000D000C7010008C7010008C701000800000000B0
:1000E000C7010008C7010008C701000800000000A0
:1000F000000000000000000000000000C701000830
:1001000000000000C7010008C7010008C70100087F
:1001100000000000000000000000000000000000DF
:1001200005090008C7010008C7010008C701000849
:10013000C7010008000000000000000000000000EF
:10014000000000000000000000000000C7010008DF
:10015000C701000811090008C70100089D520008E6
:10016000C7010008C70100080000000000000000EF
:10017000000000000000000000000000000000007F
:1001800000000000C701000800000000000000009F
:10019000C7010008DFF810D000F0CEFA0048004791
:1001A0002D640008AFF30080400B00200648804714
:1001B00006480047FEE7FEE7FEE7FEE7FEE7FEE74C
:1001C000FEE7FEE7FEE7FEE7C14B000895010008E9
:1001D0002DE9F05F0546002092469B46884606467C
:1001E000814640241BE0284641464746224600F00F
:1001F0005EF953465A46C01A914110D3114618462B
:10020000224600F045F92D1A67EB01084F462246B9
:100210000120002100F03CF917EB00094E41201E9F
:10022000A4F10104DFDC484631462A464346BDE8D6
:10023000F09F00000649074A0868504343F239021C
:10024000104408604008704701490860704700008A
:10025000700200206D4EC641D2B201E000F8012BC1
:10026000491EFBD270470022F6E710B513460A4636
:1002700004461946FFF7F0FF204610BD2DE9FE4F5A
:1002800081EA030404F0004421F0004100944FF09F
:10029000000B23F0004350EA01045ED052EA03044D
:1002A0005BD0C3F30A54C1F30A552C44A4F2F334CF
:1002B0000194A0FB0254C1F3130141F48011C3F374
:1002C000130343F4801301FB024400FB034E840A32
:1002D000970A44EA815447EA8357A4FB07680295CA
:1002E0008D0A05FB07854FEA932C04FB0C54270568
:1002F000029D4FEA065847EA1637B5EB08056EEB44
:10030000070C870E920E47EA811742EA8312A7FB79
:100310000201B6EB0B0164EB00042B0D43EA0C3336
:100320005E1844EB1C50DA465146E7FB0201C5F368
:1003300013044FEA0B3343EA14534FEA0432019C8F
:1003400043EA0603A4F10C040294009CCDE900B436
:1003500000F0CCF803B0BDE8F08F00200146F9E7CB
:100360002DE9F04D81EA030404F0004B21F0004533
:1003700014464FF0000A23F0004150EA050220D055
:1003800054EA01021DD0C5F30A570246C5F3130310
:10039000C1F31300C1F30A5640F4801543F48013EF
:1003A000A7EB0608101BD64608F2FD3873EB0500D4
:1003B00002D308F1010801E092185B41B8F1000F87
:1003C00003DA00200146BDE8F08D00204FF48011D3
:1003D000064684460EE0171B73EB050705D3121B78
:1003E00063EB050306434CEA010C49084FEA300071
:1003F00092185B4150EA0107EDD152EA030012D096
:1004000082EA040083EA0501084305D0101BAB41D2
:1004100006D20122002306E000224FF0004302E052
:100420006FF0010253101AEB06004CEB085110EB71
:100430000A0041EB0B01BDE8F04D00F048B800F0B8
:10044000004230F000400AD0C10D01F56071C0F3E8
:10045000160042EA0151C2084007114370470020CC
:100460000146704730B50B4601460020202201248A
:1004700009E021FA02F59D4205D303FA02F5491B72
:1004800004FA02F52844151EA2F10102F1DC30BD88
:10049000202A04DB203A00FA02F100207047914044
:1004A000C2F1200320FA03F3194390407047202A39
:1004B00004DB203A21FA02F00021704721FA02F30E
:1004C000D040C2F12002914008431946704710B550
:1004D000141E73F1000408DA401C41F10001921867
:1004E0005B411A4301D120F0010010BD2DE9F04D10
:1004F00092469B4611B1B1FA81F202E0B0FA80F265
:1005000020329046FFF7C4FF04460F4640EA0A0037
:1005100041EA0B0153465A46084313D0114653EAA9
:10052000010019D0C8F140025046FFF7C0FF054650
:100530000E46504659464246FFF7AAFF084305D0EB
:10054000012004E020463946BDE8F08D0020054337
:1005500046EAE0762C4337430A986305E40AA0EBA9
:1005600008000022FD0A44EA47540A3002D5002060
:100570000146E9E7010510196941DDE9084500195F
:100580006941BDE8F04DA2E72DE9FE4F804681EAC2
:100590000300C00F0C46009021F0004123F00045FD
:1005A000B8EB0200A94105D24046214690461C46C0
:1005B0000B46024623F00040104347D0270DC7F3F7
:1005C0000A00C3F30A510290401A019040286BDAE6
:1005D000C3F3130040F4801B0098924620B100231F
:1005E000D2EB030A63EB0B0B01985946C0F14002B2
:1005F0005046FFF74DFF06460D4650465946019AB4
:1006000000F0ACF810EB08006141002487EA1152B9
:1006100084EAE7731A4340D0009A62B3019A012A30
:100620004FEA075215DC001B61EB02014FF000425C
:1006300002EA0752CDE90042001C41F58011324622
:100640002B46FFF753FF03B0BDE8F08F404621462D
:10065000F9E7001B61EB0201001C41F58013001853
:100660005B412018A2F5001747EB030140EAD57063
:10067000B6196D4111E06D084FEA360645EAC075BE
:100680004FEA0752001B61EB0201001C41F580118B
:1006900049084FEA30000019514132462B4603B059
:1006A000BDE8F04FFFF713BF009801224000002380
:1006B000D0EB020263EBE073009821464FEAE0744E
:1006C000B8EB000061EB0401E9E783F000435BE76E
:1006D00081F0004158E7C1F30A52C1F3130140F21F
:1006E000FF3341F480119A4202DA0020014670473C
:1006F00040F233439A42A2F2334202DC5242FFF705
:10070000D6BEFFF7C5BE000030B5041E71F100046F
:1007100004DB4FF00044404264EB0101141E73F10E
:10072000000405DB1C464FF00043524263EB040318
:10073000994208BF904230BD064C074D06E0E06884
:1007400040F0010394E8070098471034AC42F6D318
:10075000FFF724FD94760008B4760008202A06DB13
:10076000CB17203A41FA02F043EAE07306E041FA7F
:1007700002F3D040C2F1200291400843194670476D
:1007800070B58C1810F8015B15F0070301D110F853
:10079000013B2A1106D110F8012B03E010F8016B80
:1007A00001F8016B5B1EF9D12B0705D40023521E03
:1007B0000DD401F8013BFAE710F8013BCB1A921C6B
:1007C00003E013F8015B01F8015B521EF9D5A14269
:1007D000D8D3002070BD0000464910B54A6822F405
:1007E00040324A604A6843681A434A6001684A686E
:1007F00022F480724A6001684A68036942EA03226F
:100800004A6001684A6822F040724A6001684A689A
:1008100083681A434A6001688A6822F400628A6029
:1008200001688A68C3681A438A60816A6FF07062DF
:10083000D14201688A6822F070628A6001688A6821
:100840000CD0836A1A438A6001688A6822F0405299
:100850008A6001688A68C36A1A4301E022F0405244
:100860008A6001688A6822F002028A6001688A68E8
:10087000037E42EA43028A6090F820100029016852
:100880004A680FD042F400624A6001684A6822F464
:1008900060424A6001684A68174C436A04EB43337C
:1008A0001A4301E022F400624A600168CA6A22F435
:1008B0007002CA620168CA6A838B104C04EB03534E
:1008C0001A43CA6201688A6822F400728A60016869
:1008D0008A6890F8303042EA43228A6001688A6868
:1008E00022F480628A6001688A68406942EA802056
:1008F000886010BD0023014000E0FFFF0000F0FF12
:10090000FEE70000014800F0D9B90000D40400203F
:10091000014800F0D3B90000DC060020016818236C
:10092000CAB2103AB2FBF3F2054B6FF30901032A86
:100930009B5CC36500D9091D8165084670470000AE
:100940008075000810B5014600208B698A6A4FF057
:10095000C07453B1B3F5005F15D072B1012A0CD049
:10096000022A0AD0032A09D104E01AB1012A06D0CA
:10097000022A03D1C96AC90100D5012010BDC96A84
:10098000A142FAD010BD002AF7D0012AF2D0022AE3
:10099000F3D0032AF3D010BD30B50468256825F4E0
:1009A00080252560046863608368402B036803D05A
:1009B00099600068C26030BD9A600068C16030BD57
:1009C000704772B6FEE7000078B50024009490F8F6
:1009D0003C20012A19D0012280F83C200A68072512
:1009E0000368092A13D9DE680A3A02EB42029540ED
:1009F000AE43DE600A788B680A3A02EB420293400B
:100A00000268D5682B43D36010E0022078BD1E69D0
:100A100002EB42029540AE431E610A788B6802EBFE
:100A200042029340026815692B4313614A681F25EF
:100A3000072A13D203685E6B521E02EB82029540B6
:100A4000AE435E630A8893B20A79521E02EB8202B9
:100A500093400268556B2B43536327E003680D2ACC
:100A600012D21E6BD21F02EB82029540AE431E6370
:100A70000A8893B20A79D21F02EB8202934002687D
:100A8000156B2B43136311E0DE6A0D3A02EB820211
:100A90009540AE43DE620A8893B20A790D3A02EBC2
:100AA000820293400268D56A2B43D362164B0568D5
:100AB000144A9D4206D10D68122D03D1556845F4A4
:100AC0008005556005689D4218D10B68102B01D038
:100AD000112B13D1536843F40003536009681029A4
:100AE0000CD10A490A4A0968B1FBF2F101EB810114
:100AF000490000E0491E00910029FBD180F83C40EC
:100B0000002078BD00230140002001406C0200203D
:100B100040420F0070B504004FF0000603D0206C77
:100B2000002510B107E0012070BD204600F01CF840
:100B3000656484F83C50206CC00610D4206C20F40E
:100B4000885040F0020020642046FFF745FE6564AF
:100B5000206C20F0020040F00100206400E001263B
:100B600084F83C50304670BD70B586B006461421FE
:100B70006846FFF778FB1E493068884235D11D482A
:100B80000025016841F480710160006800F4807004
:100B9000059018481438016841F0020101600068AE
:100BA000694600F002000590022000900320CDE984
:100BB0000105114800F006FA114C1048C4E900057F
:100BC0000015A560C4E90350800060618000A06149
:100BD0008011E0614002C4E90805204600F03EF9BA
:100BE00008B1FFF7EEFEB463A66306B070BD000067
:100BF00000200140443802400004024010640240DA
:100C0000D40400202DE9F0410446876D00F0B2FACB
:100C1000054694F835000026022806D0802060653D
:100C200084F834600120BDE8F0812068016821F07B
:100C3000160101602068416921F080014161206C4A
:100C400008B9A06C20B12068016821F0080101609A
:100C50002068016821F0010101600CE000F08AFACF
:100C6000401B052807D920206065032084F8350043
:100C700084F83460D7E720680068C007EED194F8A4
:100C80005C103F208840B860012084F8350084F86B
:100C900034600020C7E790F83510022903D0802186
:100CA000416501207047052180F835100068016812
:100CB00021F0010101600020704700002DE9F84398
:100CC00004464FF00009CDF8009063484FF41651E8
:100CD000A56D0068B0FBF1F72E6894F85C20082140
:100CE00001FA02F030420FD02068026852070BD59B
:100CF000026822F00402026094F85C008140A9605E
:100D0000606D40F00100606594F85C104FF00108E0
:100D100008FA01F0304208D021684969090604D573
:100D2000A860606D40F00200606594F85C100420DB
:100D30008840304208D021680968890704D5A86036
:100D4000606D40F00400606594F85C1010208840ED
:100D5000304218D021680968090714D5A8602068B6
:100D60000168490304D50068000308D5A16C07E0B9
:100D70000168C90503D4016821F008010160216CF4
:100D800009B12046884794F85C1020208840304202
:100D900031D021680968C9062DD5A86094F83500BE
:100DA00005282068016806D0490347D5006800037C
:100DB0001DD4616C1CE021F01601016020684169BE
:100DC00021F080014161206C08B9A06C20B120683D
:100DD000016821F00801016094F85C103F20884010
:100DE000A86084F8358084F83490216D1FE0E16BB1
:100DF00009B120468847606D00282BD0606DC00780
:100E000014D0052084F835002068016821F0010124
:100E100001600098401C0090B84203D82068006828
:100E2000C007F6D184F8358084F83490E16C00294D
:100E300010D001B02046BDE8F04308470168C9055D
:100E4000D5D4016821F01001016084F8358084F860
:100E50003490CCE7BDE8F8836C0200202DE9F04126
:100E6000044600F087F905465CB1022084F835009D
:100E7000002684F834602068016821F001010160D7
:100E80000DE00120BDE8F08100F074F9401B052859
:100E900005D920206065032084F83500F2E720683A
:100EA0000068C007F0D121680A6820480240D4E9F0
:100EB00001031843D4E903352B43184363691843EE
:100EC000A3691843E3691843236A18431043626A0D
:100ED000042A03D1D4E90B231A4310430860206885
:100EE0004069656A20F0070128460D430127042860
:100EF0000CD1A06A0543E06A40B12046FFF722FD0D
:100F000020B14020606584F83570BAE720684561FB
:100F10002046FFF703FD94F85C203F21914081605B
:100F2000666584F835700020ACE700003F8010F063
:100F30002DE9F0410446866D90F834000025012823
:100F40000DD0012084F8340094F835700020012F72
:100F500007D084F8340002252846BDE8F08102203D
:100F6000FBE7022784F8357060652046FFF714FD23
:100F700094F85C103F208840B0602068016841F020
:100F800016010160206C20B12068016841F0080161
:100F900001602068016841F001010160DCE70000A8
:100FA00070B5044600F0E6F80546601C02D004481F
:100FB0000078044400F0DEF8401BA042FAD370BD74
:100FC000600200202DE9F84FDFF87C91002209F142
:100FD000040A0AF1040B03274FF00F0C0BF1040E67
:100FE00001250B6895402B40AB426ED10C7904F083
:100FF0000304012C01D0022C15D18668540007FA95
:1010000004F826EA0806D1F80C8008FA04F848EA41
:101010000608C0F808804468AC430D79C5F3001594
:101020009540254345600C79E443A40708D0C56882
:10103000540007FA04F6B5438E68A6402E43C660F6
:101040000C7904F00304022C11D1D40800EB8406BF
:10105000356A5407E40E0CFA04F825EA0805D1F8BD
:10106000108008FA04F848EA0508C6F820800568E8
:10107000540007FA04F6B5430E7906F00306A640BD
:101080002E4306604C6814F4403F57D02F4C25681F
:1010900045F480452560246822F0030504F480446B
:1010A00000942B4C05EB0408D8F808589407260F39
:1010B0000CFA06F4A543274CA04201D1002415E008
:1010C000254CA04202D1012410E037E0234CA0427D
:1010D00001D102240AE0224CA04201D1032405E000
:1010E000204CA04201D1042400E00724B4402C434A
:1010F000C8F80848D9F800404D464E689C43F603AE
:1011000000D51C432C60DAF8004055464E689C43DD
:10111000B60300D51C432C60DBF800405D464E68EA
:101120009C43F60200D51C432C60DEF80040754657
:101130004E689C43B60200D51C432C60521C102AFA
:10114000FFF44EAFBDE8F88F003C01404438024048
:10115000003001400000024000040240000802404C
:10116000000C0240001002400AB18161704709047E
:10117000FBE7000001488068704700006002002023
:101180000248816802781144816070476002002043
:101190000B4810B5016841F400710160016841F429
:1011A00080610160016841F480710160032000F0FA
:1011B00071F8002000F006F800F024F8002010BDBF
:1011C000003C024070B50D4D04464FF47A7128780A
:1011D000B1FBF0F00A490968B1FBF0F000F020FB28
:1011E00048B9102C07D200222146501E00F032F8D8
:1011F00000206C6070BD012070BD00006002002006
:101200006C0200200B4882B0016841F4804101600B
:10121000006800F4804000900648001F016841F01B
:1012200080510160006800F080500090072002B0FB
:1012300000F030B844380240002809DB00F01F02FB
:10124000012191404009800000F1E020C0F8001128
:1012500070470000F0B40E4B1B68C3F30223C3F1C8
:101260000704042C00D904241D1D072D01D20023DE
:1012700000E0DB1E012606FA04F56D1E0D409D40C0
:101280009E40761E164045EA0601F0BC04F0EAB91D
:101290000CED00E0064A00F0070110684FF6FF036E
:1012A000184040EA012003490843106070470000DD
:1012B0000CED00E00000FA052DE9F0470D460400B2
:1012C00065D0DFF81491D9F80000EFB200F0070004
:1012D000A84207D289F80070D9F8000000F0070092
:1012E000A84254D120683D4E810712D5400703D54E
:1012F000306840F4E05030602078000703D5306853
:1013000040F4604030603068A16820F0F00008438D
:1013100030602078C0072DD0304960680839012836
:1013200012D0022813D0032811D009688907002998
:101330002DDA316821F0030101433160FFF71AFF14
:10134000804641F2883A0EE009688903EFE70968B0
:101350008901ECE7FFF70EFFA0EB0801514502D928
:101360000320BDE8F0873068616800F00C00B0EB46
:10137000810FEFD1D9F80010484601F00701A942CA
:1013800007D90770006800F00700A84201D00120CB
:10139000E7E72078400705D53068E16820F4E050A1
:1013A000084330602078000706D53068216920F4B2
:1013B000604040EAC100306000F038F83168084A07
:1013C000C1F30311515CC840064908600648006833
:1013D000FFF7F8FE0020C4E7003C02400838024056
:1013E000887500086C02002064020020044805494A
:1013F00000680968044AC1F38221515CC840704703
:101400006C0200200838024098750008044805491D
:1014100000680968044AC1F34231515CC840704712
:101420006C0200200838024098750008154810B575
:10143000006810F00C01144813D0431004290FD099
:1014400008290ED10F4C241F216801F03F022168AA
:10145000490207D52068C0F38810A0FB030106E00D
:10146000184610BD2168C1F38811A1FB00010023BB
:10147000FEF7AEFE2168C1F30141491C4900B0FBF3
:10148000F1F010BD083802400024F4002DE9F84FB7
:10149000040075D02078DFF838A3C007AAF104054E
:1014A00048D00AF104000168C1F38101012908D084
:1014B0000068C0F3810002280AD1DAF80000400277
:1014C00006D52868800335D560680028E1D031E072
:1014D0006068B0F5803F10D0B0F5A02F286810D01C
:1014E00020F480302860286820F48020286060681C
:1014F000A0B1FFF73FFE06460CE0286840F48030BC
:10150000F4E740F480202860F7E7FFF733FE801B04
:10151000642871D828688003F7D50BE0FFF72AFE0E
:10152000064604E0FFF726FE801B6428F1D82868F1
:101530008003F7D42078DFF89C9280074FF0000BEF
:101540003DD5A348001D016811F00C0F08D00068BC
:10155000C0F3810002280AD1DAF80000400206D464
:101560002868800715D5E068012809D111E0E068F6
:10157000B8B10120C9F80000FFF7FCFD064605E000
:1015800022E1FFF7F7FD801B0228C2D828688007F8
:10159000F7D52868216920F0F80040EAC1002860EA
:1015A0000DE0C9F800B0FFF7E5FD064604E0FFF7DF
:1015B000E1FD801B02281FD828688007F7D4207817
:1015C000000722D5824F84486169703771B10121CB
:1015D0000160FFF7CFFD064604E0FFF7CBFD801B5F
:1015E000022809D838688007F7D50EE0C0F800B0A7
:1015F000FFF7C0FD064605E082E0FFF7BBFD801B5C
:1016000002287DD838688007F7D42078400765D550
:101610006F484FF000083C300068C0000BD46C48A5
:101620003C30016841F08051016000684FF00108D2
:1016300000F080500090694F3868C0050FD43868BA
:1016400040F480703860FFF795FD064604E0FFF730
:1016500091FD801B022853D83868C005F7D55C4F30
:10166000A0686C3701280FD00528386810D020F00A
:1016700001003860386820F004003860A068B0B11C
:10168000FFF778FD06460EE0386840F00100F4E709
:1016900040F004003860F7E7FFF76CFD811B41F272
:1016A0008830814263D838688007F5D50DE0FFF7B0
:1016B00061FD064606E0FFF75DFD811B41F28830C3
:1016C000814254D838688007F5D4B8F1000F05D0AE
:1016D0003F483C30016821F080510160A069B8B3F7
:1016E0003B49091D0968C1F38101022946D002283E
:1016F000584606D0C9F86000FFF73CFD044639E0C3
:1017000035E04F46C9F86000FFF734FD064604E0B7
:10171000FFF730FD801B022829D828688001F7D404
:10172000D4E907010843A16A2D4A490802EB0141A7
:10173000626A41EA8211084394F82C1040EA016180
:10174000CAF8001001203866FFF714FD044605E0D2
:101750003CE0FFF70FFD001B022808D82868800135
:10176000F7D533E0FFF706FD001B022802D903205E
:10177000BDE8F88F28688001F4D427E00128F7D06D
:10178000DAF80000E26900F4800191421CD1226A7B
:1017900000F03F01914217D147F6C071626A0140E3
:1017A000B1EB821F10D1A26A4FF0FF3300F4403139
:1017B00003EB5202B1EB024F06D194F82C1000F06B
:1017C0007060B0EB016F01D00120D1E70020CFE7BE
:1017D0000438024000004742800E4742007000403B
:1017E0000000FFFF0D4AD068401CD060D1684FF464
:1017F0007A7091FBF0F300FB1313012103B99160A0
:10180000936B5B1C9363936B834205D1116400203F
:101810009063D06B401CD06370470000040200202E
:1018200010B5401EB0F1807F01D3012010BD4FF0F4
:10183000E02460610F21601703F014FF0020A06115
:1018400007202061002010BD10B5FFF7CBFF10BDB1
:101850007047704710B590F83C20012A22D0012231
:1018600080F83C20CA688C6822F4407222434C689D
:1018700022F4806222430C6822F4006222430C6945
:1018800022F4805222434C6922F400522243C96957
:10189000002322F480420A4301684A6480F83C3005
:1018A000002010BD022010BD70B590F83C20012A28
:1018B0002CD0012580F83C50022280F83D2002689F
:1018C0005368946823F070060B6833435360104BE1
:1018D00002689A420ED0B2F1804F0BD00D4B9A4263
:1018E00008D00D4B9A4205D00C4B9A4202D00C4BBB
:1018F0009A4204D1496824F080031943916080F82A
:101900003D50002180F83C10084670BD022070BD9B
:10191000000001400004004000080040000C0040AE
:101920000040014010B5044649B104290AD00829F5
:101930000BD094F8450001280AD0012010BD94F87E
:101940004200F8E794F84300F5E794F84400F2E722
:10195000022061B304292DD008292ED084F8450037
:101960000422206803F099F92068416C41F4004199
:1019700041641349206888420ED0B0F1804F0BD0EB
:101980001049884208D01049884205D00F49884242
:1019900002D00F49884204D1816801F0070106296D
:1019A00003D0016841F001010160002010BD84F8FE
:1019B0004200D5E784F84300D2E784F84400CFE73B
:1019C000000001400004004000080040000C0040FE
:1019D0000040014070B504460D460068002203F047
:1019E0005CF92068026A41F211131A4240F2444144
:1019F00006D1026A0A4203D1426C22F400424264D8
:101A00002068026A1A4206D1026A0A4203D10168BA
:101A100021F00101016001203DB1042D08D0082D05
:101A200009D084F84500002070BD84F84200FAE730
:101A300084F84300F7E784F84400F4E710B50400A5
:101A400003D094F83D0010B107E0012010BD002044
:101A500084F83C00204600F01FF8022084F83D0086
:101A6000211D206803F0C0F8012084F8460084F8A6
:101A70003E0084F83F0084F8400084F8410084F878
:101A8000420084F8430084F8440084F8450084F858
:101A90003D00002010BD000030B587B00446142181
:101AA0006846FEF7E0FB206800242D49B0F1804F26
:101AB00026D02B4A2B4D103A0223A8422AD108687F
:101AC00040F002000860086800F00200059010680D
:101AD00040F0040010601068694600F004000590B2
:101AE0004FF4A0708DE81900CDE903431E48FFF7BD
:101AF00069FA002211461D20FFF7ACFB1D202BE0E8
:101B0000086840F001000860086800F001000590D6
:101B100007B030BD154DA842FAD1086840F0040066
:101B20000860086800F004000590106840F00200AA
:101B300010601068694600F002000590A8158DE855
:101B40001900CDE903430A48FFF73CFA0022114689
:101B50001E20FFF77FFB1E20FFF76EFBD8E700007B
:101B600040380240000400400008024000080040E5
:101B70000004024070B5044690F83C00002501289E
:101B800017D0012684F83C60022084F83D002068CC
:101B9000826822F0770222F47F428260086850282F
:101BA00038D00DDC20284FD005DC90B3102811D19F
:101BB0004AE0022070BD302846D040280AD13BE0E0
:101BC00060282FD070280DD0B0F5805F03D0B0F51D
:101BD000005F12D0012584F83D60002084F83C00AD
:101BE000284670BDCB68D1E90121206803F062F876
:101BF0002068816841F0770109E0CB68D1E90121D3
:101C0000206803F057F82068816841F480418160C2
:101C1000E1E719E0CA684968206803F005F9502136
:101C2000206806E0CA684968206803F045F9602129
:101C3000206803F049F8CEE7CA684968206803F0D5
:101C4000F3F840212068F4E7226801461046F0E7E7
:101C50002DE9F04105460068E549E64C88420AD185
:101C6000206D4FF004010028E34802D0FFF75AFE30
:101C700001E0FFF7AFFE206D80B1002121652A7FD2
:101C8000002301259FEDDD0ADFEDDD0ADD48042A92
:101C900000F1100104D0012A4FD09BE00121EDE7B3
:101CA000E669D94A1268AEB101EE102AB8EE411ABF
:101CB00084ED061A94ED061AD4ED051AB4EEE11A75
:101CC000F1EE10FA0EDD94ED060A94ED051A30EEF1
:101CD000410A18E000EE102AB8EE400A84ED050A29
:101CE000E56177E094ED051AD4ED061AB4EEE11A39
:101CF000F1EE10FA09DD94ED051A30EE410A94ED8B
:101D0000061A30EE010A84ED040A94ED040A80EE0E
:101D1000201A84ED081A90ED010A80ED000A90ED7A
:101D2000020A80ED010A90ED030A80ED020A94EDAB
:101D3000080A80ED030AE3614CE0266BB24A083AD8
:101D40001268AEB101EE102AB8EE411A84ED0B1AFA
:101D500094ED0B1AD4ED0A1AB4EEE11AF1EE10FA72
:101D60000EDD94ED0B0A94ED0A1A30EE410A18E0EC
:101D700000EE102AB8EE400A84ED0A0A256329E035
:101D800094ED0A1AD4ED0B1AB4EEE11AF1EE10FA42
:101D900009DD94ED0A1A30EE410A94ED0B1A30EE8B
:101DA000010A84ED090A94ED090A80EE201A84EDF7
:101DB0000D1A91ED010A81ED000A91ED020A81ED03
:101DC000010A91ED030A81ED020A94ED0D0A81EDFD
:101DD000030A236390ED030AD0ED020A8B4D8C4B6E
:101DE000B4EEE00A4FF07F56F1EE10FA21D290EDFA
:101DF000020AD0ED030A30EE600A10EE102AB24259
:101E000017DD90ED020AD0ED030A30EE600A10EE05
:101E1000102AAA420DDA90ED030A10EE102A9A4217
:101E200007DA90ED020A10EE102A9A4201DA012236
:101E300000E00022227090ED030AD0ED020A754FF7
:101E4000B4EEE00AF1EE10FA21D290ED020AD0EDE4
:101E5000030A30EE600A10EE102AAA4217DB90ED5A
:101E6000020AD0ED030A30EE600A10EE102ABA42E0
:101E70000DDA90ED030A10EE102A9A4207DA90ED7F
:101E8000020A10EE102A9A4201DA012200E0002232
:101E9000627090ED030AD0ED020AB4EEE00AF1EEB2
:101EA00010FA21DD90ED030AD0ED020A30EE600A4F
:101EB00010EE102AB24217DD90ED030AD0ED020AAF
:101EC00030EE600A10EE102AAA420DDA90ED030AF5
:101ED00010EE102A9A4207DA90ED020A10EE102A4C
:101EE0009A4201DA012200E00022A27090ED030A7A
:101EF000D0ED020AB4EEE00AF1EE10FA21DD90ED29
:101F0000030AD0ED020A30EE600A10EE102AAA424F
:101F100017DB90ED030AD0ED020A30EE600A10EEF6
:101F2000102ABA420DDA90ED030A10EE102A9A42F6
:101F300007DA90ED020A10EE100A984201DA012049
:101F400000E00020E07091ED030AD1ED020A324A70
:101F5000B4EEE00AF1EE10FA2AD291ED020AD1EDC8
:101F6000030A30EE600A10EE100A904220DA91ED7A
:101F7000020AD1ED030A294B30EE600A10EE100A76
:101F8000984215DD94ED0D0AB5EEC00AF1EE10FA97
:101F90000EDD91ED030A224810EE103A834207DA73
:101FA00091ED020A10EE103A834201DA012000E0BE
:101FB0000020207191ED030AD1ED020A30EE600A93
:101FC00010EE100A90420FDD94ED0D0AB5EEC00A36
:101FD000F1EE10FA08DD91ED020AB5EEC00AF1EE5D
:101FE00010FA01D0012000E000206071BDE8F0810E
:101FF00000080040040200203405002000FF7F4755
:1020000000006842500400203C0400400000704181
:102010000000A04200007042000048420000A040C2
:102020000000C8422DE9F041054690F83C0000262A
:102030000C46012810D0012085F83C0072B1042A1A
:102040001CD0082A2CD00C2A50D00126002085F85C
:102050003C003046BDE8F0810220FBE7D4E90012E5
:10206000E368286802F0F2FE2868816921F00C011B
:10207000816128688169A26811430FE0D4E90012E8
:10208000E368286802F02AFF2868816921F440612A
:10209000816128688169A26841EA02218161D5E7EE
:1020A0002868D4E9002C277B016A21F48071016241
:1020B000C169036A21F0030141EA0C0121F0F00C2F
:1020C00039074FF420674CEA116123F4206307EAD3
:1020D00002221A43C16102622868C16921F00C0121
:1020E000C1612868C169A268114329E02868D4E960
:1020F0000021E768036A23F480530362D0F81CC010
:10210000036A2CF4407C4CEA012121F4704C4FF618
:10211000FF7101EA07314FF4204741EA0C0123F433
:10212000204307EA02321A43C16102622868C1698A
:1021300021F44061C1612868C169A26841EA0221B5
:10214000C16183E710B5040003D094F83D0010B1DD
:1021500007E0012010BD002084F83C00204600F07C
:102160001EF8022084F83D00211D206802F03CFD8D
:10217000012084F8460084F83E0084F83F0084F88B
:10218000400084F8410084F8420084F8430084F859
:10219000440084F8450084F83D00002010BD7047DD
:1021A00030B50446002579B1042910D0082911D092
:1021B00094F8410089B1042912D0082913D094F869
:1021C0004520012814D111E094F83E00F2E794F87C
:1021D0003F00EFE794F84000ECE794F84220F0E786
:1021E00094F84320EDE794F84420EAE7012A01D06F
:1021F000012030BD022081B1042913D0082916D056
:1022000084F8410084F84500B1B1042919D00829A7
:102210003ED00C2941D0012538E084F83E0084F8F6
:102220004200F1E784F83F0084F84300ECE784F8CB
:10223000400084F84400E7E72068C26842F00202E8
:1022400003E02068C26842F00402C26001222068F4
:1022500002F016FD1349206888420ED0B0F1804F7D
:102260000BD01149884208D01049884205D0104946
:10227000884202D00F49884204D1816801F00701E9
:10228000062903D0016841F001010160284630BDF4
:102290002068C26842F00802D7E72068C26842F0AE
:1022A0001002D2E700000140000400400008004096
:1022B000000C00400040014070B504460068016910
:1022C0004FF00005C943890715D4C168C943890780
:1022D00011D4E91E01610120207720688069800700
:1022E000204602D0FFF7B4FC04E000F0D7F8204607
:1022F00000F07CF9257720680169C943490717D4A4
:10230000C168C943490713D46FF004010161022079
:1023100020772068806910F4407F204602D0FFF7C4
:1023200097FC04E000F0BAF8204600F05FF925774A
:1023300020680169C943090716D4C168C943090760
:1023400012D46FF008010161042020772068C06971
:102350008007204602D0FFF77BFC04E000F09EF8E7
:10236000204600F043F9257720680169C943C90672
:1023700017D4C168C943C90613D46FF010010161B5
:10238000082020772068C06910F4407F204602D0E2
:10239000FFF75EFC04E000F081F8204600F026F92B
:1023A000257720680169C943C90708D1C168C943B5
:1023B000C90704D1891E0161204600F075F9206823
:1023C0000169C943090609D4C168C943090605D48E
:1023D0006FF0800101612046FFF73AFA2068016939
:1023E000C943490609D4C168C943490605D46FF0F9
:1023F00040010161204600F058F920680169C94395
:1024000089060BD4C168C943890607D46FF020013F
:1024100001612046BDE87040FFF71BBA70BD0000A7
:1024200030B587B0044614216846FDF71CFF174DF0
:1024300020680022164902230124A8420ED1086810
:1024400040F0020008600868694600F0020005904C
:1024500058030090CDE901320E4811E0B0F1804FF1
:1024600012D1086840F0010008600868694600F071
:10247000010005904FF400400090CDE9013206487C
:10248000CDE90324FEF79EFD07B030BD00000140FA
:10249000303802400004024000000240704770B52E
:1024A000044690F83C0000260D4601280FD001207C
:1024B00084F83C006AB1042A1DD0082A2FD00C2AC7
:1024C0003FD00126002084F83C00304670BD022039
:1024D00070BD206802F000FC2068816941F00801AD
:1024E00081612068816921F004018161206881692E
:1024F0002A69114311E0206802F01AFC2068816902
:1025000041F4006181612068816921F48061816109
:10251000206881692A6941EA02218161D2E7206845
:1025200002F034FC2068C16941F00801C1612068F3
:10253000C16921F00401C1612068C1692A691143A0
:1025400011E0206802F04EFC2068C16941F400618E
:10255000C1612068C16921F48061C1612068C169DD
:102560002A6941EA0221C161ACE710B5040003D039
:1025700094F83D0010B107E0012010BD002084F860
:102580003C00204600F01EF8022084F83D00211D8A
:10259000206802F029FB012084F8460084F83E0000
:1025A00084F83F0084F8400084F8410084F8420039
:1025B00084F8430084F8440084F8450084F83D0022
:1025C000002010BD08B500680649884208D10648B9
:1025D000016841F001010160006800F00100009015
:1025E00008BD000000000140443802407047000070
:1025F00010B5044649B104290AD008290BD094F833
:10260000410001280AD0012010BD94F83E00F8E7EF
:1026100094F83F00F5E794F84000F2E7022071B328
:10262000042930D0082931D084F8410001222068E3
:1026300002F026FB17492068884203D1426C42F41D
:1026400000424264206888420ED0B0F1804F0BD027
:102650001149884208D01149884205D01049884262
:1026600002D01049884204D1816801F0070106298F
:1026700003D0016841F001010160002010BDFFE7B7
:1026800084F83E00D2E784F83F00CFE784F84000AA
:10269000CCE70000000001400004004000080040BA
:1026A000000C004000400140704770477047704781
:1026B000F8B5016804460868CA684B6910F00F0F46
:1026C0004FF0000559D003F0010602F4907737432C
:1026D00065D0C10705D0D10503D5216C41F00101BA
:1026E0002164410705D5D90703D0216C41F00201CF
:1026F0002164810705D5D90703D0216C41F004017D
:102700002164010707D502F02001314303D0216C79
:1027100041F008012164216C00293AD0800604D5DB
:10272000900602D5204602F07CFC20684069216CAE
:10273000C0F38010090700D460B3204602F03CFCCF
:1027400020684069400621D52068143050E8001FF9
:1027500021F0400140E80012002AF5D1A06BA8B199
:102760006C490165A06BFEF796FA002811D0A06BAA
:10277000016D01B0BDE8F040084783060FD5930610
:102780000DD52046BDE8F84002F04BBC2046FFF7CF
:102790008EFFF8BD2046FFF78AFF2564F8BD266B43
:1027A0002023012E79D1C60677D5D60675D50868BF
:1027B000486800904869400640D5A16B08684068A9
:1027C0000004000CEAD0A28D8242E7D9E085C869F6
:1027D000B0F5807F2DD020680C3050E8001F21F428
:1027E000807140E80012002AF5D12068143050E8CA
:1027F000001F21F0010140E80012002AF5D12068F5
:10280000143050E8001F21F0400140E80012002A77
:10281000F5D184F83E30256320680C3050E8001F65
:1028200021F0100140E80012002AF5D1A06BFEF75C
:10283000E9F9A08DE18D401A81B229E0A08DE18DEA
:10284000401A81B2E08D0028A8D00029A6D02068C7
:102850000C3050E8002F22F4907240E80026002E41
:10286000F5D12068143050E8002F22F0010240E832
:102870000026002EF5D184F83E30256320680C3008
:1028800050E8002F22F0100240E80023002BF5D181
:102890002046FFF70BFFF8BDFFE705062BD5150611
:1028A00029D594F83D002128F5D1A068B0F5805FC6
:1028B00001D12069B0B1206A411C216221680078F1
:1028C0004860E08C401E0004000CE084E3D12068E6
:1028D000C16821F08001C1602068C16841F04001F9
:1028E000C160D8E7206A0088C0F308004860206A09
:1028F000801C2062E5E74006CDD55006CBD5CA68DE
:10290000204622F04002CA6084F83D3000F098F979
:10291000C1E70000134F000870B5040004D094F81C
:102920003D00002510B106E0012070BD84F83C5048
:10293000204600F023F8242084F83D002068C16878
:1029400021F40051C160204602F0CCFB20680169EF
:1029500021F4904101612068416921F02A0141611F
:102960002068C16841F40051C1602564202084F8CA
:102970003D0084F83E00002070BD000070B586B0B8
:10298000064614216846FDF76EFC354C306800257C
:1029900034490223344AA0421DD132481030046821
:1029A00044F400340460006800F4003005900868C6
:1029B00040F0010008600868694600F001000590D9
:1029C0000C208DE829000720CDE903501046FEF7C2
:1029D000F9FA06B070BD254CA042FAD12148143056
:1029E000046844F020040460006800F020000590B2
:1029F000086840F0010008600868694600F00100BE
:102A000005904FF4C0508DE8290003200390082062
:102A100004901046FEF7D6FA164C154820604FF089
:102A2000206060604020C4E902050001C4E904059B
:102A30004FF44030A561C4E9075020466562FEF7B7
:102A40000DFA08B1FDF7BDFF74630022114647205F
:102A5000A663FEF7FFFB4720FEF7EEFBB9E7000099
:102A600000440040303802400000024000140140A1
:102A7000A0640240DC06002090F83E30202B0ED1EE
:102A800059B152B190F83C30012B08D0012380F8A5
:102A90003C300023036302F0ABBB012070470220EF
:102AA00070470000144B30B4D86C0124134A002145
:102AB00010B1012816D109E01154401C0C28FBD399
:102AC0009879FF280ED1DC6499640BE09879FE2890
:102AD0000FD09879072800D999719979986C115479
:102AE000401C98640449012230BC891D0448FFF74A
:102AF000C3BFD9645C64F5E7040200207E040020B3
:102B0000980600202DE9F843044690F83D001F4642
:102B100015460E4620284BD1C6B1BDB194F83C00F5
:102B2000012845D0012084F83C004FF00008C4F88B
:102B30004080212084F83D00FEF71CFBA5848146DF
:102B4000E584A068B0F5805F03D004E00120BDE813
:102B5000F883206920B13546002684F83C800EE0D9
:102B60000025FAE78021204602F05DFBA0B9ADB157
:102B700015F8010B21684860E08C401EE084E08C71
:102B80004B464FF0000200970028EBD14FF0400178
:102B9000204602F048FB30B10320D8E736F8020B9C
:102BA000C0F30800E6E7202084F83D000020CEE7CF
:102BB0000220CCE7F7B5044690F83D00202837D135
:102BC000019991B38AB394F83C00012830D00120D8
:102BD00084F83C002162A284E2840025256421203F
:102BE00084F83D00636B1348D863636B1248186424
:102BF000636B1248D864606B134605652668606B8A
:102C0000321DFEF795F921686FF04000086084F8E6
:102C10003C502068143050E8001F41F0800140E82B
:102C20000012002AF5D10020FEBDFFE70120FBE7DE
:102C30000220F9E76D4F0008AF4F0008234F00084E
:102C400070477047FEE700002DE9F84F01F00EF8DD
:102C50000746002401F0C6F9D74DA34649F2900873
:102C6000A5F818B03846AF83A7EB08014FF4805A97
:102C70004FF4F07C40F2134340F2034741F2134912
:102C800041F2040E4FF4A07240456ED04FDC45F285
:102C90001038A0EB0801404568D026DC41F22657E9
:102CA000A0EB0701B84273D011DC41F20557A0EB4D
:102CB0000701B8426DD005DC99286BD0B0F5AA7F2A
:102CC00069D17FE00C2967D01B29F9D187E05B2906
:102CD00075D0DC2974D0A1F530612D3971D0A1F205
:102CE000E241B1F5005FEBD183E042F27948A1EB1C
:102CF0000800414570D00DDCF8294AD001F60731B3
:102D0000B1F5005169D00B2968D0A1F570617A390D
:102D1000D6D18EE00A2874D00D2873D0A0F50060BB
:102D2000A83870D0A0F540702638C9D194E0B1F52C
:102D30002C7F69D01BDCB1F5267F73D00ADCA1F5AE
:102D4000007172396FD01E2923D023296AD025291A
:102D500021D1A8E0A1F50071993970D008296FD070
:102D60000C296DD00F2916D1B4E07CE04DE0B1F50F
:102D70007E7F0CD011DCA1F50071B13970D0914289
:102D80006FD0A1F5807145396CD0012903D1C0E025
:102D90002AE074E06DE078E01AE06FF4DC50081887
:102DA00072D0A0F50060F43803D0042829D0504533
:102DB0006BD141F208006883B02180481EE099E0A1
:102DC0007DE07FE041F2020068839C217C4815E0B1
:102DD000032068837B4C2AE033E057E024E0794C01
:102DE0006B8309340626A5E0754C6B839C340C2656
:102DF000A0E07348A5F81AA09C21A83003F0DCFAE3
:102E000098E08BE083E021E06DE06E4C40F61360CB
:102E10006883241F2BE068480A30A0F800C0801E99
:102E2000028087E035E053E0664C6F83E41C0326A4
:102E3000F1E741F21240688390216348DEE74BE0FE
:102E40002BE0614C6B839034412673E05E4CA5F817
:102E50001A90D13412266DE041F20340688304E0F9
:102E600043E049E04EE0A5F81A90564CA41E022615
:102E7000D1E7524CA5F81A90DB3C1D26CBE7A5F80C
:102E80001AE0D8215148B9E71FE090E041F2021062
:102E900001E04FF48850688301E0A5F81AA04B4880
:102EA000CC21D830AAE74448444C0A306F834FF411
:102EB000C871BE3C01801E26801EF02139E040F220
:102EC00013500BE041F2174008E0A5F81A9006E015
:102ED0006F8304E06B8302E041F203606883394C46
:102EE000A41D032626E0A5F81A90344C6B83A03C61
:102EF00065261FE06B8302E040F207406883344C94
:102F0000452688E72D4C6F833B3C3B2683E76F8348
:102F100000E06B832E4C45342B267CE72748A5F830
:102F20001AA0C021B03003F047FA23484FF4C8710B
:102F30000A300180688BC0F30030E8836CB124480C
:102F40000921703003F012FA3146204603F00EFAE0
:102F50001C4806210F3003F009FA002001F04CF95B
:102F6000002000F053FAA88BA0F5144188391CD139
:102F700085F806B04FF6E072084600F08FF80021A1
:102F8000084600F031FFA0F57F411F390DD1062022
:102F90008DF80000012269463A2000F0CFFA688BD4
:102FA00020F0100068830120A871BDE8F88F024866
:102FB00059460830BDE7000000000020D471000829
:102FC000D26E00083C6C00081670000844730008BC
:102FD000E874000800F0F800000201F0FC0140EA8B
:102FE000C10040EAD20070472DE9FF4F81B09A46F8
:102FF000DDE90EB60F468046F02840DAB7F5A07F2F
:103000003DDA06EB460108EB4100012837D407EB17
:10301000C600012833D40024052C2CD003981E4967
:1030200000EB80002044002511F800905FEAC97091
:103030000BD0012E02D0CDF800A00CE0781901B21F
:1030400008EB040000B2524622E0D3450DD0012E19
:1030500018D0CDF800B005FB067001B204FB068065
:10306000334600B21A4600F041F86D1C6DB24FEACB
:103070005909082DDADB641C64B2062CCCDB05B0E0
:10308000BDE8F08F781901B208EB040000B25A468F
:1030900000F004F8E9E70000516C00082DE9F04168
:1030A0000C46050017461CD4002C1ADB0E4EB6F950
:1030B0000C00854215DAB6F90E00844211DAB079B7
:1030C00018B1104602F038FF074623462A46194633
:1030D000104600F0E9FF3946F08CBDE8F04101F000
:1030E000E1BABDE8F0810000000000202DE9F04FBA
:1030F000DFF8EC9285B0074699F80600DDF83880D5
:103100001C4616460D4618B1404602F015FF804693
:10311000002E03DA704206B2B81B07B2B81900B22B
:10312000002F00DA0027B9F90C104E46884200DD66
:103130000846C01B0FFA80F9002C03DA604204B283
:10314000281B05B2281900B2002D00DA0025B6F9B7
:103150000E10884200DD0846401B04B22819401EAC
:1031600003B207EB0900401E02B22946384600F0C0
:103170009BFF9C494FF48030086001019A488161AF
:1031800097494FF0E06EC98CC0F818E00A0AC9B23E
:10319000944D4FF0876BC5F800B0944D4FF4000A82
:1031A0005646C5F800A0D3079B0D02F0040743EA7A
:1031B000072302F0800743EA4703836102F0080314
:1031C00002F0100743EA4707102303EA520C47EACC
:1031D0000C0702F0400C47EA0C17DFF808C2CCF8E5
:1031E000007002F002022F4692013A605A03826197
:1031F00082618261826182618261826182618261B7
:103200008261826182618261022282618261C0F890
:1032100018E0CCF800B03E60CE07B60D01F0040710
:1032200046EA072601F0800746EA4706866101F074
:10323000080601F0100746EA470603EA51073E4335
:1032400001F0400746EA071667463E6001F00201BA
:103250002E46890131601104816181618161816142
:10326000816181618161816181618161816181614E
:1032700081618261826183614C4502DD20464C465A
:1032800081464FEA182308F0FF0283E0D807800D3B
:1032900003F0040640EA062603F0800046EA4000F8
:1032A000049003F0080603F01000102146EA4000E5
:1032B00001EA5306304303F0400640EA061003904B
:1032C00003F0020080010290D007800D02F0040696
:1032D00040EA062002F0800640EA4600019002F033
:1032E000080002F01006022740EA460001EA5201F7
:1032F000084302F0400140EA0110009002F0020091
:10330000CC464FEA801E38484FF0E068C0F818807D
:10331000344EC6F800B0C5F800A004998161039945
:103320003160029929604FF40031816181618161CE
:10333000816181618161816181618161816181617D
:103340008161816187618761C0F81880C6F800B02B
:10335000C5F800A0DDF80480C0F81880DDF8008012
:10336000C6F80080C5F800E08161816181618161FA
:10337000816181618161816181618161816181613D
:10338000816187618761ACF1010C0FFA8CFCBCF1A3
:10339000000FB8D1201EA4F1010424B23FF776AF8C
:1033A0001048012101600E48817EC90707D0818B3A
:1033B000A1F5A852263A0FD18178C9070CD0C1894E
:1033C000808905B0491EBDE8F04F401E0BB202B225
:1033D0000021084600F068BE05B0BDE8F08F00008F
:1033E00000000020180402400000024018080240BB
:1033F00008B5002100900448B0F90E30B0F90C2057
:103400000846FFF773FE08BD0000002008B52C4BEE
:103410005A8BC2F3003141401846D983808BD207C2
:1034200021D05A79B2B1A0F50342473A06D0A0F5AF
:10343000A442523A02D031B1082005E009B1062079
:1034400002E0022000E00A208DF8000001216A4617
:10345000084605E009B1212000E0202000221146A5
:1034600001F032FF08BD49F22523C21A98421BD051
:103470000DDCB0F5AA7F17D0A0F5A150B0F58040C3
:1034800017D0A0F27330B0F5005F0BD111E0012A24
:103490000AD0A2F58072013A0BD0A2F2E312B2F583
:1034A000005F06D0612008E0132040EA8101072078
:1034B00003E041F0020140F2014001F0F3F808BDE1
:1034C000000000200FB41B487CB507AA069902F043
:1034D000B7F80026174D184C26E00A2A1DD00D2AF1
:1034E00021D02178E08ACDE90001A38AB4F9121035
:1034F000B4F91000FFF778FD2078228A00EB400134
:1035000002EB410109B22182E27862B1A0EB8000B6
:10351000F02202EB4000884205DA608A617800EB15
:10352000C100608226826D1C2A78002AD5D17CBC1D
:103530005DF814FB780200200000002013460A46C4
:10354000194601F0C1BE00002DE9FF4FFF4F81B0C9
:103550009146F88C00900E990498484304B20026D6
:103560007879354620B9B87EC00701D02E2000906A
:1035700002980844401E03B2049901980844401E72
:1035800002B2DDE9010100F08FFD4FF4803B4BE317
:10359000DFF8B8A39AF81A00C0070DD10198574672
:1035A000284481B2BAF8220001F07CF80298304435
:1035B00081B2B88C01F076F8E549C1F800B0E54871
:1035C0004FF48011816100994FF0E0630A0AC9B29B
:1035D0008361DF4F4FF087633B60DF4B4FF40008A0
:1035E000C3F80080D707BF0D02F0040C47EA0C2790
:1035F00002F0800C47EA4C07876102F0080702F0EE
:10360000100C47EA4C074FF0100E0EEA520C47EA36
:103610000C0702F0400C47EA0C17DFF834C3CCF873
:10362000007002F0020292011A604FF400328261CF
:103630008261826182618261826182618261826172
:1036400082618261826182614FF0020CC0F818C011
:10365000C0F818C04FF0E0628261BD4F4FF0876242
:103660003A60C3F80080CA07920D01F0040742EAED
:10367000072201F0800742EA4702826101F0080256
:1036800001F0100742EA47020EEA51073A4301F0FF
:10369000400742EA0712AE4F3A6001F00201890189
:1036A00019604FF4003181618161816181618161C3
:1036B00081618161816181618161816181618161FA
:1036C000C0F818C0C0F818C0C0F818E0016821F4AC
:1036D0007C1101609E4918390A68A04B1A400A60A3
:1036E0009D4918390A6822F440420A60BAF81A1053
:1036F00057464A0658D4C9075DD1B98BA1F59052F7
:10370000893A58D0012383615946C0F818B0C0F8EF
:1037100018B0C0F818B0C0F818B0C0F818B0C0F8A9
:1037200018B0C0F818B0C0F818B0C0F818B0C0F899
:1037300018B0C0F818B0C0F818B0C0F818B0C0F889
:1037400018B0C0F818B00269DFF80C82A8F10808B8
:10375000D8F8002002697E4A083AD2F800C0D2F8B0
:1037600000C0D2F800C0D2F800C0D0F810C0836109
:103770008361836181618161816181618161816135
:103780008161816181618161816181618161816129
:1037900081610169D8F80010016911681168116828
:1037A0001168016983618361BAF81C10A1F5A85200
:1037B000113A2FD007E201228261C0F818B0C0F898
:1037C00018B0C0F818B0C0F818B0C0F818B0C0F8F9
:1037D00018B0C0F818B0C0F818B0C0F818B0C0F8E9
:1037E00018B0C0F818B0C0F818B0C0F818B0C0F8D9
:1037F00018B0C0F818B0016957490839096801695B
:10380000534908390B680B680B68096801698261C4
:103810008261C9E701228261C0F818B0C0F818B00F
:10382000C0F818B0C0F818B0C0F818B0C0F818B098
:10383000C0F818B0C0F818B0C0F818B0C0F818B088
:10384000C0F818B0C0F818B0C0F818B0C0F818B078
:10385000C0F818B0016940490839096801693C4954
:1038600008390B680B680B6809680169826182611D
:10387000A9E13648478BF80672D5364B4FF0010C5C
:10388000C3F818C05846C3F818B0C3F818B0C3F846
:1038900018B0C3F818B0C3F818B0C3F818B0C3F81C
:1038A00018B0C3F818B0C3F818B0C3F818B0C3F80C
:1038B00018B0C3F818B0C3F818B0C3F818B0C3F8FC
:1038C00018B01969DFF890E0C1F34022AEF1080E9C
:1038D000DEF8001001F0800142EA91111A6902F449
:1038E000806241EA12211A4A083AD2F8008008F0B0
:1038F000080841EA0801D2F8008008F0200841EAEF
:103900005801D2F8008008F0100841EA4801D2F8C6
:10391000008008F4806841EA1811D3F81080C3F8D9
:1039200018C008F4807841EA580AC3F818C0C3F8F0
:1039300018C09861986198619861986198619861E0
:10394000986198619861986198610AE00000002090
:103950001804024000000240180802403FF0CFFF68
:103960007CE09861986198611969C1F34028DEF89C
:10397000001001F0800148EA9111D3F8108008F49A
:10398000806841EA1821D2F8008008F0080841EA6E
:103990000801D2F8008008F0200841EA5801D2F866
:1039A000008008F0100841EA4801D2F8008008F4CD
:1039B000806841EA1811D3F81080C3F818C008F4E1
:1039C000807841EA5801C3F818C0C3F818C098615C
:1039D000986198619861986198619861986198611F
:1039E0009861986198619861986198611869C0F3CD
:1039F0004028DEF8000000F0800048EA9010D3F87C
:103A0000108008F4806840EA1820D2F8008008F09E
:103A1000080840EA0800D2F8008008F0200840EAD0
:103A20005800D2F80080126808F0100840EA4800F8
:103A300002F4806240EA12101A69C3F818C002F456
:103A4000807240EA5200C3F818C07A0701D5524686
:103A500001E002465046FFF7BDFAA1E07D48012390
:103A600083615946C0F818B0C0F818B0C0F818B053
:103A7000C0F818B0C0F818B0C0F818B0C0F818B046
:103A8000C0F818B0C0F818B0C0F818B0C0F818B036
:103A9000C0F818B0C0F818B0C0F818B0C0F818B026
:103AA0000269DFF8B4A1C2F3402CDAF8002002F07A
:103AB00080024CEA9212D0F810C00CF4806C42EAFA
:103AC0001C2C664AD2F8008008F008084CEA080C62
:103AD000D2F8008008F020084CEA580CD2F8008098
:103AE00008F010084CEA480CD2F8008008F480680E
:103AF0004CEA181CD0F81080836108F480784CEAF6
:103B0000580C83618361816181618161816181611F
:103B10008161816181618161816181618161816195
:103B2000816181610169C1F34028DAF8001001F078
:103B3000800148EA9111D0F8108008F4806841EAC9
:103B40001821D2F8008008F0080841EA0801D2F8EC
:103B5000008008F0200841EA5801D2F8008012687D
:103B600008F0100841EA480102F4806241EA1211AB
:103B70000269836102F4807241EA5201836141EA81
:103B80000C20390703D5010A41EA002080B27907E9
:103B900006D500F4FC6141EAD02141EAC02080B2A0
:103BA0002F4A917941B1202320F03F0103EA5013BD
:103BB0001943C0F34400084329F8020B641E907EA9
:103BC00024B2800702D5002C7FF453AE6D1C0498FC
:103BD0002DB2854206DB761C0E98002536B2864251
:103BE00000DB00261B48012181611C4A083211605C
:103BF000016821F47C110160184910390A68194BD9
:103C00001A400A60144A103A136823F440431360C0
:103C1000036843F4A81303600868134B1843086053
:103C2000106840F480401060002C3FF7B1AC0C48A5
:103C3000817EC90709D1C1898089491E0BB2401E06
:103C400002B20021084600F02FFA05B00020BDE8BE
:103C5000F08F0000000002401008024010040240F3
:103C6000000000203FF0CFFF4005100038B50021D4
:103C7000084600F0C3F845F20841884265D045F295
:103C80002041884261D0A0F50941893912D0002134
:103C9000672000F0B3F8A0F58E4147390DD0A12080
:103CA00000F07EF980B246F20111884208D141F657
:103CB000631038BD41F2892038BD48F2473038BD25
:103CC000A0F57F4141F22654FF3914D0BF2000F007
:103CD00074F981B248F257308142F0D049F2814004
:103CE0008142ECD041F211508142E8D0A01F8142C4
:103CF000E5D0A14201D1204638BD41F28150814238
:103D0000FAD0B1F5A05F22D0D42000F049F980B2FA
:103D100045F21031884218D0D72000F041F980B226
:103D200048F23101884210D0EF2000F046F980B20D
:103D300049F22731884208D0FE2000F031F9C0F363
:103D40000F2042F25301884204D1084638BD46F69E
:103D5000140038BD042000F023F9C0F3074281B2FB
:103D600012B9B1F5004F28D020468142F1D0A1F51B
:103D7000054052381ED04AF611408142E9D0D32086
:103D800000F00EF980B2010A9329E2D09429E0D024
:103D90009829DED07729DCD01629DAD0D328D8D0DC
:103DA000A0F55341D339D4D0BDE8384000210846AE
:103DB00000F024B847F2897038BD0AA003220068D9
:103DC00000906946B920FFF7B9FB0021D02000F030
:103DD00015F8C0B29928EFD09028D0D149F29000C0
:103DE00038BD0000FF8357001CB501221346009226
:103DF00001AAFFF7A9FBBDF804001CBD2DE9F05F87
:103E0000054661480C46007908B900F0EBF85F4EB2
:103E10004FF480303060DFF878A100015246CAF8D4
:103E200018004FF0E06B290AEBB2CAF818B04FF057
:103E3000876CC6F800C0574D4FF40009C5F80090D4
:103E4000C807800D01F0040740EA072001F0800751
:103E500040EA4700906101F0080001F0100740EAD5
:103E60004700102707EA510840EA080001F040081F
:103E700040EA0810306001F00200800128607803F9
:103E800090619061906190619061906190619061AA
:103E90009061906190619061906102219161916166
:103EA000C2F818B0C6F800C0C5F800904FEAC37C4D
:103EB0004FEA9C5C03F004084CEA082C03F08008ED
:103EC0004CEA480CC2F818C003F0080C03F01008C4
:103ED0004CEA480C07EA53084CEA080C03F0400887
:103EE0004CEA081CC6F800C003F002039B012B60DB
:103EF000906190619061906190619061906190613A
:103F00009061906190619061906191619161976120
:103F1000106820F47C1010601C4D183D28681E4F5E
:103F2000384028601B4E183E306820F44040306016
:103F3000012002F028F802F0B9FB641E64B2002CE4
:103F4000F9DA0122CAF81820104B1A60DAF80020BA
:103F500022F47C12CAF800202A683A402A603268AB
:103F600022F440423260DAF8002042F4A812CAF883
:103F700000202968094A11432960316841F48041D1
:103F80003160BDE8F09F00000000002018040240EE
:103F900000000240180802403FF0CFFF400510002B
:103FA00070B505460021FFF729FF04460121284688
:103FB000FFF724FF40EA044070BD70B506460021BB
:103FC000FFF71CFF044601213046FFF717FF0546A7
:103FD00002213046FFF712FF210641EA052141EA9E
:103FE000102070BD70B52A4801230371294801686B
:103FF00021F47C11016028490A68284C22400A609B
:10400000274A146824F440441460046844F4A81453
:1040100004600C68234D2C430C60146844F4804405
:104020001460046824F00304641C0460046824F031
:104030000C04241D0460046824F4407444F4807467
:1040400004600C6824F00304641C0C60116821F007
:104050000C01091D1160104918310B6083610223A6
:1040600083610F4C18342360322001F08CFF4FF431
:1040700000302060642001F086FF2360642001F09E
:1040800082FFBDE870400021B02000F00BBB0000B3
:104090000000002000000240000402403FF0CFFF7B
:1040A00000080240400510002DE9F84317464E4A2B
:1040B0000D460646918B10461C468078A1F51343A9
:1040C000273B0DD1022802D0032805D008E0203577
:1040D00020342DB224B203E02036203736B23FB26E
:1040E000A1F5A853263B0FD1C0070DD0B81B01B2D4
:1040F000601B00B208B119B106E0641C24B203E0F1
:104100003918201A0FB204B2907EC00737D0F8B227
:104110000090F1B2904692F828000A46C7F30723B0
:10412000C6F307210F4601F0C0F8E0B20090C4F3D7
:104130000723C5F30721EAB298F82C000C4601F0DA
:10414000B4F898F80500002817D0B8F81C006528C6
:1041500013D18DF800708DF801606A460221B8F81D
:10416000220001F0B1F88DF800408DF801506A4648
:104170000221B8F8240001F0A7F8BDE8F883B1B235
:104180009046508C00F08EFAA9B2B8F8240000F0E6
:1041900089FABE4201D1A542EFD098F81A008006F4
:1041A0000CD598F80200C00704D045EA042004B2F8
:1041B000254603E046EA072006B23746B1B2B8F812
:1041C000280000F06FFAA9B2B8F82C0000F06AFAE3
:1041D000B9B2B8F82A0000F065FAA1B2B8F82E001A
:1041E000BDE8F84300F05EBA00000020014A1082EA
:1041F00051827047000000202DE9FC47C64C00F0BA
:1042000003012246A170B2F90A30CD07B2F90820A5
:10421000002D01D01D4600E01546A58100D11A46AB
:10422000E28131B1012906D002297BD0032905D1D1
:104230007AE0482100E028218DF80010618BCA0542
:1042400005D59DF8002082F080028DF800208A05B7
:1042500005D59DF8002082F040028DF800200A0567
:1042600005D59DF8002082F008028DF80020AA4AAA
:10427000CD074FF02001928B4FF022034FF0080939
:1042800074D0A2F5D045143D2FD041F6631149F208
:10429000814541F211568A4203D0AA4201D0B2426E
:1042A00044D19DF80000030603D540F001008DF8CD
:1042B0000000C0B2430603D540F002008DF80000B4
:1042C0008A4203D100F03F008DF80000AA4203D1DA
:1042D00000F02F008DF80000B2425DD100F0EF0039
:1042E00040F0C0008DF8000056E09DF8000040222C
:1042F00002EA500201EA500100F028008DF80000A7
:1043000000200A438DF8040042F002008DF80500F9
:104310003B208DF8060001AA0321B62000F0D4FF4F
:104320003AE0FFE7982187E7F82185E7617979B3DB
:10433000022161840625A584E38421850421618509
:10434000A585A4F82E90652A11D0A2F5A440523874
:104350002CD19DF8000040F002008DF80000C1064D
:1043600024D540F004008DF800001FE02BE09DF8FC
:104370000010CA0603D481F081018DF80010C20735
:104380004FF082004FF0800103D06084A1840DE0E3
:1043900002E06184A08409E02A202B216084A184AA
:1043A0002C22E28420856085A185E185607908B1B1
:1043B000162000E036206A46012100F085FF9DF8B6
:1043C0000000208483E047F29375501B21264FF4B0
:1043D00000774FF480784FF4004CAA423ED006DCC0
:1043E000B2F5AA7F1FD0A2F5A840203807E000F25E
:1043F0006D40B0F5005031D0A0F50450E33868B3FB
:104400006184A684E3845020208551206085522059
:10441000A0855320E0859DF800000CEA002040F4C0
:104420001C5160203CE037202085362060853920F3
:10443000A0853820E0856184A684E3849DF800008F
:1044400007EA800108EA80000143A2F5807039384C
:1044500002D02820014329E02720FBE7678440F2AF
:104460000120A084401CE0844FF404702085401C8F
:104470006085401CA085401CE0859DF80000A2F5E9
:1044800013430CEA00214FF4D440263B03D0A2F59D
:10449000A843203B01D14FF4545001434FF48060B6
:1044A00000F000F99DF8001008EA8101012000F0F9
:1044B000F9F89DF8001009EA9100090701D540F4C8
:1044C000805040F030012184032000F0EBF8A07808
:1044D000C0070ED0608B40050BD4608CA18C61842A
:1044E000A084208DA18D2185A085608DE18D6185C1
:1044F000E085E0890021401E03B2A089401E02B27F
:104500000846FFF7D1FD0022B4F90A10104600F06A
:104510000BF8BDE8FC87000000000020014A9082F3
:10452000D1827047000000202DE9FC415C4F164607
:1045300049F22733BA8B04469A4206D1B87802284A
:1045400001D0032801D1203424B27889001B401AFD
:1045500000B29A4201D1203000B24B429E4201DDAE
:104560008E4200DB0026A3191DB2002E01DA6B1863
:104570001DB263185B1E97F81AC01BB25FEACC7CB1
:1045800049D0220A8DF800208DF801400A0A8DF8E2
:1045900002208DF80310010A8DF804108DF8050033
:1045A000787908B10E2000E033206A46062100F039
:1045B0008BFE280A8DF800008DF80150787908B13B
:1045C000142000E037206A46022100F07DFE787951
:1045D000A8B148F2473136B1B88B884201D10220E8
:1045E00002E0082000E000208DF80000B88B88422F
:1045F00001D1182000E001206A46012107E0002EC9
:1046000007D1B87EC00704D000221146132000F065
:104610005BFEBDE8FC81224849F22527D61BC18BF1
:10462000BA4241F0020022D00FDCB2F5AA7F1ED0C0
:10463000A2F5A152B2F5804225D0A2F26332B2F5C2
:1046400000520ED0102A0BD11DE0012E0FD0A6F57E
:104650008076013E17D0A6F2E316B6F5005F12D0C1
:104660000146612000F01EF8A9B26A2013E099B259
:10467000312000F017F8A1B2322000F013F8281B07
:1046800081B2332007E0014640F2014000F00AF811
:10469000A9B240F20440BDE8FC4100F003B80000BC
:1046A0000000002002F0D4B97FB500241648009421
:1046B000019402941349039401604FF48031C0E9DE
:1046C00001140461047680F820400903C1620125C9
:1046D000C5614FF0C061C460816280F830504561AF
:1046E000FCF718FA08B1FCF76CF90920CDE90005D0
:1046F000694602940448FCF767F9002801D0FCF7EA
:1047000060F97FBD002001408C0400200D4808B5F1
:10471000016841F4800101600068002200F480001B
:10472000009011463820FCF795FD3820FCF784FDF9
:10473000002211464520FCF78DFDBDE808404520CC
:10474000FCF77ABD30380240F0B587B014216846D6
:10475000FBF789FD30480024016841F00401016045
:10476000016801F004010591016841F080010160D8
:10477000016801F080010591016841F001010160CB
:10478000016801F001010591016841F00201016039
:104790000068224E00F002000590002241F60C4114
:1047A0003046FCF7E1FC1E4F002220213846FCF782
:1047B000DBFC4FF4005000904FF40410CDE90104ED
:1047C00069463046FCF7FEFB41F20C400090112098
:1047D000CDE90104694630460394FCF7F3FB202041
:1047E00000900125CDE90154694638460394FCF751
:1047F000E9FB30208DE8310069463046FCF7E2FBEA
:10480000E8020090CDE90154694630460394FCF774
:10481000D9FB07B0F0BD000030380240000802406C
:104820000000024010B592B000240F941C2108A88B
:104830001094FBF718FD20216846FBF714FD204873
:104840001E49C0E9001440F6A101C0E9024104611B
:1048500044618461FDF789FE08B1FCF7B2F80F945A
:104860000FA917481094FDF71FF808B1FCF7A9F835
:104870006020CDE908040A940B940C940D94042252
:1048800008A90F480E94FDF70AFE08B1FCF799F845
:1048900000944FF40050CDE9044002940194039435
:1048A000694607480794FCF7D5FF08B1FCF789F87B
:1048B0000348FDF7B5FD12B010BD00000000014037
:1048C0003405002010B58EB0002407940894099494
:1048D0000A940B941C2168460C94FBF7C4FC1E48F8
:1048E0004FF0804101605321C0E901141B49C0E928
:1048F00003148461FDF7A2F808B1FCF762F84FF4E5
:104900008050079007A91448FDF734F908B1FCF767
:1049100058F81148FDF729FE08B1FCF752F80B943E
:104920000BA90D480C94FCF7BFFF08B1FCF749F840
:10493000602000900A20CDE9010400226946064863
:104940000494FDF7ACFD08B1FCF73BF80248FDF715
:1049500067FD0EB010BD00007C0500203F0D030078
:1049600010B58AB00024274800940194029403945F
:1049700004940594069407940894214909940160CD
:104980005321C0E901144FF6FF71C0E9031484619B
:10499000FDF754F808B1FCF714F84FF4805000907C
:1049A00069461848FDF7E6F808B1FCF70AF815481B
:1049B000FDF7C8FB08B1FCF704F8049404A91148FA
:1049C0000594FCF771FF08B1FBF7FBFF0A20069086
:1049D0000120CDE90704002206A90A480994FDF741
:1049E00021FB08B1FBF7EDFF082206A90548FDF7FA
:1049F00019FB002801D0FBF7E4FF0AB010BD00004E
:104A000000040040C405002010B58AB000242348EB
:104A100000940194029403940494059406940794DA
:104A200008941D49099401605321C0E901144FF60F
:104A3000FF71C0E903148461FDF700F808B1FBF7CA
:104A4000C0FF4FF48050009069461448FDF792F87B
:104A500008B1FBF7B6FF1148FDF774FB08B1FBF78F
:104A6000B0FF049404A90D480594FCF71DFF08B19C
:104A7000FBF7A7FF0A2006900120CDE907040822D2
:104A800006A906480994FDF7CDFA002801D0FBF7E6
:104A900098FF0AB010BD0000000800400C0600207E
:104AA0000C4810B50A4901604FF4E1314160002122
:104AB00081600C22C160C0E904128161C161FDF70F
:104AC0002BFF002803D0BDE81040FBF77ABF10BDD4
:104AD00000440040540600200C4810B50A4901600B
:104AE0004FF416614160002181600C22C160C0E971
:104AF00004128161C161FDF70FFF002803D0BDE8FA
:104B00001040FBF75EBF10BD001401409806002066
:104B1000FEE7FEE77047704710B5FCF731FBBDE8D4
:104B20001040FCF791BE000030B593B030216846CC
:104B3000FBF799FB14210CA8FBF795FB1E480025F9
:104B4000016841F080510160006800F080501190D0
:104B50001A48016821F4404141F4004101600068B5
:104B6000022400F440401190012003901020009492
:104B700006940490CDE907504FF4A87009900420E2
:104B80000A9007200B906846FCF780FC08B172B6CB
:104B9000FEE70CA90F2081E831004FF48050CDE9E9
:104BA0000F0502210CA8FCF787FB002801D072B684
:104BB000FEE713B030BD00004038024000700040F6
:104BC0000248016841F470010160704788ED00E01F
:104BD0000148FDF771BB0000C40500200148FDF746
:104BE0006BBB00000C060020F0B502681D4C1E4D8A
:104BF0001E4E1F4F4FF0804CA04207D0604505D09D
:104C0000A84203D0B04201D0B84203D122F07003D1
:104C10004A681A43A04210D060450ED0A8420CD07A
:104C2000B0420AD0B84208D0124B984205D0124B7D
:104C3000984202D0114B984203D122F44073CA68C3
:104C40001A434B6922F080021A4302608A68C262EA
:104C50000A688262A04201D10969016301214161B0
:104C6000F0BD0000000001400004004000080040CA
:104C7000000C004000400140004401400048014059
:104C800010B501F01F010123046A8B409C430462AC
:104C9000036A8A401343036210BD10B501F01F017F
:104CA0000423046A8B409C430462036A8A401343D2
:104CB000036210BD10B5846842EA032224F47F44E5
:104CC0000A432243826010BD826822F070020A43C8
:104CD00042F007018160704730B5026A22F001029C
:104CE0000262036A4268846924F073050C682C43ED
:104CF00023F002058B682B430C4DA84206D123F00C
:104D00000805CB6843EA050323F0040307D14D6986
:104D100022F4407245EA02058A6942EA05024260CD
:104D2000846149684163036230BD000000000140B6
:104D300030B5026A22F010020262026A4368846996
:104D40000D6824F4E64444EA05248D6822F020022C
:104D500042EA05120C4DA84206D1CD6822F080022D
:104D600042EA051222F0400207D14D6923F4406364
:104D700043EA85038D6943EA85034360846149689A
:104D80008163026230BD00000000014030B5026A5C
:104D900022F480720262036A4268C46923F40073D9
:104DA00024F073050C682C438D6843EA05230C4DF1
:104DB000A84206D1CD6823F4006343EA052323F417
:104DC000806307D14D6922F4405242EA05128D6991
:104DD00042EA05124260C4614968C163036230BDA2
:104DE0000000014030B5026A22F480520262036A78
:104DF0004268C4690D6824F4E64444EA05248D68D9
:104E000023F4005343EA0533064DA84204D14D690B
:104E100022F4804242EA85124260C461496801641A
:104E2000036230BD0000014010B5046A036A23F03C
:104E300001030362836923F0F00343EA021324F0C1
:104E40000A020A438361026210BD000070B5046A61
:104E500024F0010404628469056A124EB0420ED047
:104E6000B0F1804F0BD0104EB04208D00F4EB04280
:104E700005D00F4EB04202D00E4EB04203D124F006
:104E80000304144301E044F001041A0724F0F00481
:104E900044EA126225F00A0301F00A011943826113
:104EA000016270BD000001400004004000080040A5
:104EB000000C00400040014010B5036A23F01003CD
:104EC00003628469036A24F4704444EA023223F0E2
:104ED000A00343EA01118261016210BD30B5046A8A
:104EE00024F0100404628569046A25F4407545EADB
:104EF000022222F470454FF6FF7202EA033224F0D8
:104F0000A0032A43A02404EA01111943826101622B
:104F100030BD10B5806B0021C185C184FDF7C7FB92
:104F200010BD70B5846B2068406994F83D10C0F3E3
:104F3000C0100025212904D118B1E584204600F0D5
:104F400062F82068406994F83E10C0F3801022296E
:104F500004D118B1E585204600F02EF8206C40F011
:104F6000100020642046FDF7A2FB70BD10B501467D
:104F7000806B09680968C90516D40021C1840168DD
:104F8000143151E8002F22F0800241E80023002B69
:104F9000F5D101680C3151E8002F42F0400241E8A0
:104FA0000023002BF5D110BDFDF74AFE10BD10B552
:104FB000806BFDF746FE10BD01680C3151E8002FF3
:104FC00022F4907241E80023002BF5D101681431DE
:104FD00051E8002F22F0010241E80023002BF5D117
:104FE000016B012909D101680C3151E8002F22F031
:104FF000100241E80023002BF5D1202180F83E105B
:1050000000210163704701680C3151E8002F22F044
:10501000C00241E80023002BF5D1202180F83D108B
:10502000704708B590F83E10222901D0022008BD33
:1050300081684FF48053994201D1026922B1826A9A
:1050400099421BD049B10AE00268816A5268C2F3F2
:1050500008020A80816A891C08E0016971B101684F
:10506000496801F07F011170816A491C8162C18D1C
:10507000491E0904090CC18503D019E0016849687B
:10508000F1E70168CA6822F02002CA600168CA68B4
:1050900022F48072CA6001684A6922F001024A6102
:1050A000202180F83E10016B012903D0FDF7FAFCA6
:1050B000002008BD0021016301680C3151E8002F78
:1050C00022F0100241E80023002BF5D101680A68A4
:1050D000D20602D50A6849680091818DFDF7E6FA8B
:1050E000E6E7000070B5044600680169E26821F453
:1050F000405111430161A1682069E269014360697F
:10510000104301432068C26849F20C639A430A4382
:10511000C26020684169A26921F440711143416174
:1051200031492068884202D03049884202D1FCF7D8
:105130006DF901E0FCF75AF9E269002319216425B1
:105140003226B2F5004F626828D0A0FB0101930F10
:105150009200FBF73DF80146B0FBF5F06FF0180246
:10516000504301EB800006EB0010B0FBF5F000F0BF
:10517000F002B1FBF5F002EB0012B1FBF5F06FF0BD
:105180001803584301EB800006EB0010B0FBF5F06C
:1051900000F00F0021681044886070BDA0FB010181
:1051A00092185B41FBF714F80146B0FBF5F00201E1
:1051B000B1FBF5F06FF01803584301EB800006EBEC
:1051C000C000B0FBF5F000F0F80002EB4002B1FBCC
:1051D000F5F0584301EB800006EBC000B0FBF5F0A2
:1051E00000F00700D6E70000001001400014014065
:1051F00081628285C28500210164222280F83E20DE
:1052000080F83C100168CA6842F48072CA60016884
:105210004A6942F001024A610068C16841F0200118
:10522000C160002070472DE9F0411E4617468846B0
:105230000446069D26E0681C24D025B1FBF79AFFA2
:10524000801BA8421ED920680C3050E8001F21F4B2
:10525000D07140E80012002AF5D12068143050E8DF
:10526000001F21F0010140E80012002AF5D12020A2
:1052700084F83D0084F83E00002084F83C000320C0
:10528000BDE8F0812068016838EA010004D0002000
:10529000B842D0D00020F3E70120F9E70148FDF73C
:1052A00007BA000098060020FEE738B58DF8001018
:1052B0008DF80120049C8DF802308DF803406A4679
:1052C000042100F001F838BD2DE9F04FC64B4FF432
:1052D00080341C602301C54CA3614FF0E068050ACF
:1052E000C3B2C4F81880C04F4FF08769C7F8009068
:1052F000BF4F4FF4000AC7F800A0EE07B60D05F047
:10530000040746EA072605F0800746EA4706A66135
:1053100005F0080605F0100746EA4707102606EADA
:10532000550C47EA0C0705F0400C47EA0C17DFF86C
:10533000B8C2CCF80070AE4F05F00205AD013D607B
:105340004FF4003BC4F818B0C4F818B0C4F818B053
:10535000C4F818B0C4F818B0C4F818B0C4F818B03D
:10536000C4F818B0C4F818B0C4F818B0C4F818B02D
:10537000C4F818B0C4F818B04FF0020E7546C4F85F
:1053800018E0C4F818E0C4F81880CCF80090BC46C7
:10539000CCF800A0DF07BF0D03F0040C47EA0C2790
:1053A00003F0800C47EA4C07A76103F0080703F0FD
:1053B000100C47EA4C0706EA530C47EA0C0703F0C7
:1053C000400C47EA0C17DFF820C2CCF80070884F79
:1053D00003F002039B013B607303A361A361A3611C
:1053E000A361A361A361A361A361A361A361A3619D
:1053F000A361A361A561A561A6616746EAE012F811
:10540000013B4FF0E065A5614FF087653D60DFF837
:10541000E0814FF40005C8F80050DD07AD0D03F042
:10542000040645EA062503F0800645EA4605A5611F
:1054300003F0080503F0100645EA4606102505EAC4
:10544000530C46EA0C0603F0400C46EA0C163E608C
:1054500003F002039B01C8F80030C4F818B0C4F888
:1054600018B0C4F818B0C4F818B0C4F818B0C4F82C
:1054700018B0C4F818B0C4F818B0C4F818B0C4F81C
:1054800018B0C4F818B0C4F818B0C4F818B0C4F80C
:1054900018E0C4F818E000297ED0564B5B79002B49
:1054A0007AD0401C2B0480B2A3614FF0E06C060A56
:1054B000C3B2C4F818C04FF0876CC7F800C04FF4EF
:1054C000000CC146C8F800C04FEAC67C4FEA9C5C9D
:1054D00006F004084CEA082C06F080084CEA480C58
:1054E000C4F818C006F0080C06F01008AA464CEAEA
:1054F000480C05EA56054CEA050C06F040054CEA56
:1055000005153D6006F00205AE01C9F800605D4674
:10551000C4F818B0C4F818B0C4F818B0C4F818B07B
:10552000C4F818B0C4F818B0C4F818B0C4F818B06B
:10553000C4F818B0C4F818B0C4F818B0C4F818B05B
:10554000C4F818B07646C4F818E0C4F818E04FF074
:10555000E06CC4F818C04FF0876CC7F800C04FF477
:10556000000CC9F800C04FEAC37C4FEA9C5C03F012
:1055700004084CEA082C03F080084CEA480CC4F8F4
:1055800018C003F0080C03F010084CEA480C0AEAB3
:1055900053084CEA080C00E01CE003F040084CEA19
:1055A000081CC7F800C003F002034FEA831CC9F8C7
:1055B00000C0A561A561A561A561A561A561A56101
:1055C000A561A561A561A561A561A561A661A661A9
:1055D000C4F818A00B1EA1F1010149B23FF70FAFAB
:1055E00001203860BDE8F08F18040240000002403E
:1055F00018080240000000200FB4054B10B503A9A5
:10560000044A029800F010F910BC5DF814FB000089
:1056100055630008740200200FB4084B10B504A9AC
:1056200002AA039800F000F9044602A9002000F045
:105630007EFC204610BC5DF814FB00002F5F0008C4
:1056400037B514460846064B6A46214600F0ECF88A
:1056500004466946002000F06AFC20463EBD00007A
:105660002F5F00080907090E002804DB00F1E02085
:1056700080F80014704700F00F0000F1E02080F87F
:10568000141D704702E008C8121F08C1002AFAD191
:1056900070477047002001E001C1121F002AFBD1B2
:1056A000704700002DE9FF5F82B00021DDE9043082
:1056B000020DDDF840B0034318D044F61050A2F2BA
:1056C000FF3242431514119801281FD0A5EB0B009F
:1056D000401C5FEA000A4FF000064E4FDFF8389199
:1056E000B046504615D5CAF1000413E011980124C4
:1056F0004AA3012801D16FEA0B010298119AC0E96F
:105700000031C0E9024206B0BDE8F09FCBF10000D5
:10571000DFE704460021404A491842EB0450CDE936
:10572000001012E0E00707D032463B4640464946AB
:10573000FAF7A4FD8046894632463B461046194694
:10574000FAF79CFD06460F466410002CEAD1DDE90D
:105750000401DDE90023BAF1000F06DAFAF78EFD45
:1057600042464B46FAF78AFD05E0FAF7F9FD424654
:105770004B46FAF7F5FD04460E460022284BFAF791
:10578000C3FF03D84FF0FF30014607E00022254B4E
:1057900020463146FAF7F8FEFAF79DFF102409E09B
:1057A000002C0ADB0A220023FAF712FD039B303299
:1057B0001A55641E50EA0102F2D1641C039AC4F126
:1057C00011031444119A012A03D0012208430DD178
:1057D0000AE0084304D000204FF0110B119072E74B
:1057E000A3EB0B056D1E0DE05B4504DD4FF00002E1
:1057F00005F1010504E003DA4FF00002A5F101050F
:10580000002AECD002981199C0E90231C0E90045A4
:1058100079E70000000014400000F03F3000000075
:105820000000F0430000E03F2DE9FF4F95B09A469D
:10583000884606460025EEE1252877D10024274634
:10584000F94A0121039400E0044316F8013F203B8C
:1058500001FA03F01042F7D130782A2811D06FF006
:105860002F033078A0F13002092A16D8039A44F0A9
:10587000020402EB820203EB42021044761C039006
:10588000EFE758F8042B0392002A03DA504244F45D
:105890000054039044F00204761C30782E2816D170
:1058A00016F8010F44F004042A280DD06FF02F02DF
:1058B0003078A0F13003092B09D807EB870302EBFE
:1058C0004303C718761CF3E758F8047B761C30783E
:1058D0006C280FD006DC4C2817D068280DD06A2819
:1058E00014D104E0742810D07A280FD10DE044F4CC
:1058F00000140AE044F4801401E044F44014727887
:10590000824202D104F58014761C761C3078662819
:105910000BD013DC582877D009DC002875D0452837
:10592000F6D04628F4D047281AD193E118E063282E
:1059300035D0642879D0652812D18BE1702873D0D6
:1059400008DC6728F1D069286FD06E280DD06F2849
:1059500006D1ACE073282CD0752874D0782853D0A9
:105960005246179990476D1C54E1C4F30250022827
:1059700009D003280DD0D8F8001004280DD00D60F0
:1059800008F1040846E1D8F80010EA17C1E900520E
:10599000F6E7D8F800100D80F2E70D70F0E718F880
:1059A000041B8DF8001000208DF80100EB4601204B
:1059B00003E058F804BB4FF0FF3061074FF00001DF
:1059C00002D40DE009F101018946B9420FDA81459F
:1059D000F8DB1BF809100029F4D108E009F10101F6
:1059E00089468142FADB1BF809100029F6D1039899
:1059F0005346A0EB090721463846179A00F080FA73
:105A0000284400EB090507E044E008E10DE01BF83D
:105A1000010B524617999047B9F10109F7D2534645
:105A200021463846179AF2E039E00A21C4F30252BF
:105A30004FF0000B0091022A06D058F8040BC11752
:105A4000032A09D00AE023E008F1070020F007024A
:105A5000F2E80201904605E000B2C117042A01D124
:105A600040B2C117002906DA0A460021404261EB24
:105A700002012D2202E0220504D52B228DF80420FC
:105A8000012203E0E20701D02022F7E7914657E028
:105A90000A2100E010214FF0000B00910BE01021D3
:105AA0004FF0000B44F004040827009103E00820A5
:105AB0004FF0000B0090C4F30252022A05D058F8B0
:105AC000040B0021032A08D008E008F1070020F0A9
:105AD0000702F2E80201904603E080B2042A00D1F6
