:020000040800F2
:10000000100A0020AD0100083F3F000889240008C5
:100010003D3F0008010900089F440008000000005F
:10002000000000000000000000000000433F000846
:100030008D09000800000000413F0008453F00080E
:10004000C7010008C7010008C7010008C701000870
:10005000C7010008C7010008C7010008C701000860
:10006000C7010008C7010008C7010008C701000850
:10007000C7010008C7010008C7010008C701000840
:10008000C7010008C7010008C70100080000000000
:10009000000000000000000000000000C701000890
:1000A000C7010008C7010008C7010008C701000810
:1000B000C7010008FD3F0008C7010008C70100088C
:1000C000C7010008C7010008C7010008C7010008F0
:1000D000C7010008C7010008C701000800000000B0
:1000E000C7010008C7010008C701000800000000A0
:1000F000000000000000000000000000C701000830
:1001000000000000C7010008C7010008C70100087F
:1001100000000000000000000000000000000000DF
:1001200005090008C7010008C7010008C701000849
:10013000C7010008000000000000000000000000EF
:10014000000000000000000000000000C7010008DF
:10015000C7010008C7010008C7010008C70100085F
:10016000C7010008C70100080000000000000000EF
:10017000000000000000000000000000000000007F
:1001800000000000C701000800000000000000009F
:10019000C7010008DFF810D000F0CEFA0048004791
:1001A000FD550008AFF30080100A00200648804784
:1001B00006480047FEE7FEE7FEE7FEE7FEE7FEE74C
:1001C000FEE7FEE7FEE7FEE7ED3F000895010008C9
:1001D0002DE9F05F0546002092469B46884606467C
:1001E000814640241BE0284641464746224600F00F
:1001F0005EF953465A46C01A914110D3114618462B
:10020000224600F045F92D1A67EB01084F462246B9
:100210000120002100F03CF917EB00094E41201E9F
:10022000A4F10104DFDC484631462A464346BDE8D6
:10023000F09F00000649074A0868504343F239021C
:10024000104408604008704701490860704700008A
:100250004C0200206D4EC641D2B201E000F8012BE5
:10026000491EFBD270470022F6E710B513460A4636
:1002700004461946FFF7F0FF204610BD2DE9FE4F5A
:1002800081EA030404F0004421F0004100944FF09F
:10029000000B23F0004350EA01045ED052EA03044D
:1002A0005BD0C3F30A54C1F30A552C44A4F2F334CF
:1002B0000194A0FB0254C1F3130141F48011C3F374
:1002C000130343F4801301FB024400FB034E840A32
:1002D000970A44EA815447EA8357A4FB07680295CA
:1002E0008D0A05FB07854FEA932C04FB0C54270568
:1002F000029D4FEA065847EA1637B5EB08056EEB44
:10030000070C870E920E47EA811742EA8312A7FB79
:100310000201B6EB0B0164EB00042B0D43EA0C3336
:100320005E1844EB1C50DA465146E7FB0201C5F368
:1003300013044FEA0B3343EA14534FEA0432019C8F
:1003400043EA0603A4F10C040294009CCDE900B436
:1003500000F0CCF803B0BDE8F08F00200146F9E7CB
:100360002DE9F04D81EA030404F0004B21F0004533
:1003700014464FF0000A23F0004150EA050220D055
:1003800054EA01021DD0C5F30A570246C5F3130310
:10039000C1F31300C1F30A5640F4801543F48013EF
:1003A000A7EB0608101BD64608F2FD3873EB0500D4
:1003B00002D308F1010801E092185B41B8F1000F87
:1003C00003DA00200146BDE8F08D00204FF48011D3
:1003D000064684460EE0171B73EB050705D3121B78
:1003E00063EB050306434CEA010C49084FEA300071
:1003F00092185B4150EA0107EDD152EA030012D096
:1004000082EA040083EA0501084305D0101BAB41D2
:1004100006D20122002306E000224FF0004302E052
:100420006FF0010253101AEB06004CEB085110EB71
:100430000A0041EB0B01BDE8F04D00F048B800F0B8
:10044000004230F000400AD0C10D01F56071C0F3E8
:10045000160042EA0151C2084007114370470020CC
:100460000146704730B50B4601460020202201248A
:1004700009E021FA02F59D4205D303FA02F5491B72
:1004800004FA02F52844151EA2F10102F1DC30BD88
:10049000202A04DB203A00FA02F100207047914044
:1004A000C2F1200320FA03F3194390407047202A39
:1004B00004DB203A21FA02F00021704721FA02F30E
:1004C000D040C2F12002914008431946704710B550
:1004D000141E73F1000408DA401C41F10001921867
:1004E0005B411A4301D120F0010010BD2DE9F04D10
:1004F00092469B4611B1B1FA81F202E0B0FA80F265
:1005000020329046FFF7C4FF04460F4640EA0A0037
:1005100041EA0B0153465A46084313D0114653EAA9
:10052000010019D0C8F140025046FFF7C0FF054650
:100530000E46504659464246FFF7AAFF084305D0EB
:10054000012004E020463946BDE8F08D0020054337
:1005500046EAE0762C4337430A986305E40AA0EBA9
:1005600008000022FD0A44EA47540A3002D5002060
:100570000146E9E7010510196941DDE9084500195F
:100580006941BDE8F04DA2E72DE9FE4F804681EAC2
:100590000300C00F0C46009021F0004123F00045FD
:1005A000B8EB0200A94105D24046214690461C46C0
:1005B0000B46024623F00040104347D0270DC7F3F7
:1005C0000A00C3F30A510290401A019040286BDAE6
:1005D000C3F3130040F4801B0098924620B100231F
:1005E000D2EB030A63EB0B0B01985946C0F14002B2
:1005F0005046FFF74DFF06460D4650465946019AB4
:1006000000F0ACF810EB08006141002487EA1152B9
:1006100084EAE7731A4340D0009A62B3019A012A30
:100620004FEA075215DC001B61EB02014FF000425C
:1006300002EA0752CDE90042001C41F58011324622
:100640002B46FFF753FF03B0BDE8F08F404621462D
:10065000F9E7001B61EB0201001C41F58013001853
:100660005B412018A2F5001747EB030140EAD57063
:10067000B6196D4111E06D084FEA360645EAC075BE
:100680004FEA0752001B61EB0201001C41F580118B
:1006900049084FEA30000019514132462B4603B059
:1006A000BDE8F04FFFF713BF009801224000002380
:1006B000D0EB020263EBE073009821464FEAE0744E
:1006C000B8EB000061EB0401E9E783F000435BE76E
:1006D00081F0004158E7C1F30A52C1F3130140F21F
:1006E000FF3341F480119A4202DA0020014670473C
:1006F00040F233439A42A2F2334202DC5242FFF705
:10070000D6BEFFF7C5BE000030B5041E71F100046F
:1007100004DB4FF00044404264EB0101141E73F10E
:10072000000405DB1C464FF00043524263EB040318
:10073000994208BF904230BD064C074D06E0E06884
:1007400040F0010394E8070098471034AC42F6D318
:10075000FFF724FD0466000824660008202A06DB53
:10076000CB17203A41FA02F043EAE07306E041FA7F
:1007700002F3D040C2F1200291400843194670476D
:1007800070B58C1810F8015B15F0070301D110F853
:10079000013B2A1106D110F8012B03E010F8016B80
:1007A00001F8016B5B1EF9D12B0705D40023521E03
:1007B0000DD401F8013BFAE710F8013BCB1A921C6B
:1007C00003E013F8015B01F8015B521EF9D5A14269
:1007D000D8D3002070BD0000464910B54A6822F405
:1007E00040324A604A6843681A434A6001684A686E
:1007F00022F480724A6001684A68036942EA03226F
:100800004A6001684A6822F040724A6001684A689A
:1008100083681A434A6001688A6822F400628A6029
:1008200001688A68C3681A438A60816A6FF07062DF
:10083000D14201688A6822F070628A6001688A6821
:100840000CD0836A1A438A6001688A6822F0405299
:100850008A6001688A68C36A1A4301E022F0405244
:100860008A6001688A6822F002028A6001688A68E8
:10087000037E42EA43028A6090F820100029016852
:100880004A680FD042F400624A6001684A6822F464
:1008900060424A6001684A68174C436A04EB43337C
:1008A0001A4301E022F400624A600168CA6A22F435
:1008B0007002CA620168CA6A838B104C04EB03534E
:1008C0001A43CA6201688A6822F400728A60016869
:1008D0008A6890F8303042EA43228A6001688A6868
:1008E00022F480628A6001688A68406942EA802056
:1008F000886010BD0023014000E0FFFF0000F0FF12
:10090000FEE70000014800F063B9000094040020F5
:1009100001681823CAB2103AB2FBF3F2054B6FF329
:100920000901032A9B5CC36500D9091D816508463E
:1009300070470000F064000810B5014600208B6984
:100940008A6A4FF0C07453B1B3F5005F15D072B12D
:10095000012A0CD0022A0AD0032A09D104E01AB1D4
:10096000012A06D0022A03D1C96AC90100D5012093
:1009700010BDC96AA142FAD010BD002AF7D0012AE1
:10098000F2D0022AF3D0032AF3D010BD704772B61A
:10099000FEE7000078B50024009490F83C20012A7E
:1009A00019D0012280F83C200A6807250368092A2B
:1009B00013D9DE680A3A02EB42029540AE43DE608C
:1009C0000A788B680A3A02EB420293400268D568C3
:1009D0002B43D36010E0022078BD1E6902EB420277
:1009E0009540AE431E610A788B6802EB4202934049
:1009F000026815692B4313614A681F25072A13D221
:100A000003685E6B521E02EB82029540AE435E634A
:100A10000A8893B20A79521E02EB8202934002685E
:100A2000556B2B43536327E003680D2A12D21E6BCC
:100A3000D21F02EB82029540AE431E630A8893B236
:100A40000A79D21F02EB820293400268156B2B4396
:100A5000136311E0DE6A0D3A02EB82029540AE4369
:100A6000DE620A8893B20A790D3A02EB8202934061
:100A70000268D56A2B43D362164B0568144A9D421F
:100A800006D10D68122D03D1556845F480055560D7
:100A900005689D4218D10B68102B01D0112B13D182
:100AA000536843F400035360096810290CD10A49C4
:100AB0000A4A0968B1FBF2F101EB8101490000E04B
:100AC000491E00910029FBD180F83C40002078BDF0
:100AD00000230140002001404802002040420F0056
:100AE00070B504004FF0000603D0206C002510B153
:100AF00007E0012070BD204600F01CF8656484F812
:100B00003C50206CC00610D4206C20F4885040F07B
:100B1000020020642046FFF75FFE6564206C20F031
:100B2000020040F00100206400E0012684F83C50FF
:100B3000304670BD70B586B0064614216846FFF792
:100B400092FB1E493068884235D11D480025016856
:100B500041F480710160006800F4807005901848CD
:100B60001438016841F0020101600068694600F034
:100B700002000590022000900320CDE901051148F4
:100B800000F072F9114C1048C4E900050015A56089
:100B9000C4E90350800060618000A0618011E061C1
:100BA0004002C4E90805204600F0E2F808B1FFF76A
:100BB000EEFEB463A66306B070BD000000200140E5
:100BC00044380240000402401064024094040020B3
:100BD0002DE9F84304464FF00009CDF80090634832
:100BE0004FF41651A56D0068B0FBF1F72E6894F82C
:100BF0005C20082101FA02F030420FD02068026820
:100C000052070BD5026822F00402026094F85C00DF
:100C10008140A960606D40F00100606594F85C104F
:100C20004FF0010808FA01F0304208D02168496904
:100C3000090604D5A860606D40F00200606594F874
:100C40005C1004208840304208D021680968890778
:100C500004D5A860606D40F00400606594F85C10F5
:100C600010208840304218D021680968090714D53F
:100C7000A86020680168490304D50068000308D50E
:100C8000A16C07E00168C90503D4016821F00801DF
:100C90000160216C09B12046884794F85C1020203F
:100CA0008840304231D021680968C9062DD5A86036
:100CB00094F8350005282068016806D0490347D517
:100CC000006800031DD4616C1CE021F01601016076
:100CD0002068416921F080014161206C08B9A06C55
:100CE00020B12068016821F00801016094F85C10CF
:100CF0003F208840A86084F8358084F83490216DC6
:100D00001FE0E16B09B120468847606D00282BD0B9
:100D1000606DC00714D0052084F835002068016894
:100D200021F0010101600098401C0090B84203D8F6
:100D300020680068C007F6D184F8358084F83490C4
:100D4000E16C002910D001B02046BDE8F04308470F
:100D50000168C905D5D4016821F01001016084F84B
:100D6000358084F83490CCE7BDE8F8834802002051
:100D70002DE9F041044600F04FF905465CB1022030
:100D800084F83500002684F834602068016821F07A
:100D9000010101600DE00120BDE8F08100F03CF9A7
:100DA000401B052805D920206065032084F8350004
:100DB000F2E720680068C007F0D121680A6820487F
:100DC0000240D4E901031843D4E903352B43184307
:100DD00063691843A3691843E3691843236A1843F6
:100DE0001043626A042A03D1D4E90B231A43104347
:100DF000086020684069656A20F0070128460D43B5
:100E0000012704280CD1A06A0543E06A40B12046BE
:100E1000FFF792FD20B14020606584F83570BAE795
:100E2000206845612046FFF773FD94F85C203F2160
:100E300091408160666584F835700020ACE7000061
:100E40003F8010F070B5044600F0E6F80546601CDF
:100E500002D004480078044400F0DEF8401BA042B1
:100E6000FAD370BD3C0200202DE9F84FDFF87C91E9
:100E7000002209F1040A0AF1040B03274FF00F0CBA
:100E80000BF1040E01250B6895402B40AB426ED14F
:100E90000C7904F00304012C01D0022C15D18668D2
:100EA000540007FA04F826EA0806D1F80C8008FA7C
:100EB00004F848EA0608C0F808804468AC430D7995
:100EC000C5F300159540254345600C79E443A4071C
:100ED00008D0C568540007FA04F6B5438E68A640EA
:100EE0002E43C6600C7904F00304022C11D1D408FF
:100EF00000EB8406356A5407E40E0CFA04F825EA80
:100F00000805D1F8108008FA04F848EA0508C6F880
:100F100020800568540007FA04F6B5430E7906F000
:100F20000306A6402E4306604C6814F4403F57D099
:100F30002F4C256845F480452560246822F0030580
:100F400004F4804400942B4C05EB0408D8F80858AE
:100F50009407260F0CFA06F4A543274CA04201D1B2
:100F6000002415E0254CA04202D1012410E037E016
:100F7000234CA04201D102240AE0224CA04201D11C
:100F8000032405E0204CA04201D1042400E0072402
:100F9000B4402C43C8F80848D9F800404D464E6884
:100FA0009C43F60300D51C432C60DAF800405546FC
:100FB0004E689C43B60300D51C432C60DBF8004010
:100FC0005D464E689C43F60200D51C432C60DEF85B
:100FD000004075464E689C43B60200D51C432C6009
:100FE000521C102AFFF44EAFBDE8F88F003C0140C0
:100FF000443802400030014000000240000402403A
:1010000000080240000C0240001002400AB1816159
:1010100070470904FBE70000014880687047000042
:101020003C020020024881680278114481607047C8
:101030003C0200200B4810B5016841F400710160CA
:10104000016841F480610160016841F480710160D0
:10105000032000F071F8002000F006F800F024F8FA
:10106000002010BD003C024070B50D4D04464FF409
:101070007A712878B1FBF0F00A490968B1FBF0F009
:1010800000F014FB48B9102C07D200222146501E54
:1010900000F032F800206C6070BD012070BD0000CF
:1010A0003C020020480200200B4882B0016841F455
:1010B00080410160006800F4804000900648001FF5
:1010C000016841F080510160006800F0805000909C
:1010D000072002B000F030B844380240002809DB95
:1010E00000F01F02012191404009800000F1E02042
:1010F000C0F8001170470000F0B40E4B1B68C3F33A
:101100000223C3F10704042C00D904241D1D072D5C
:1011100001D2002300E0DB1E012606FA04F56D1E55
:101120000D409D409E40761E164045EA0601F0BCEB
:1011300003F094BB0CED00E0064A00F007011068D4
:101140004FF6FF03184040EA0120034908431060AE
:10115000704700000CED00E00000FA052DE9F047B3
:101160000D46040065D0DFF81491D9F80000EFB205
:1011700000F00700A84207D289F80070D9F80000F3
:1011800000F00700A84254D120683D4E810712D5D7
:10119000400703D5306840F4E05030602078000705
:1011A00003D5306840F4604030603068A16820F0BA
:1011B000F000084330602078C0072DD030496068C7
:1011C0000839012812D0022813D0032811D0096849
:1011D000890700292DDA316821F0030101433160CC
:1011E000FFF71AFF804641F2883A0EE0096889034A
:1011F000EFE709688901ECE7FFF70EFFA0EB0801B4
:10120000514502D90320BDE8F0873068616800F0DD
:101210000C00B0EB810FEFD1D9F80010484601F077
:101220000701A94207D90770006800F00700A8422B
:1012300001D00120E7E72078400705D53068E16854
:1012400020F4E050084330602078000706D530686D
:10125000216920F4604040EAC100306000F038F8B5
:101260003168084AC1F30311515CC840064908605F
:1012700006480068FFF7F8FE0020C4E7003C024083
:1012800008380240F86400084802002040020020AC
:101290000448054900680968044AC1F38221515C89
:1012A000C84070474802002008380240086500081E
:1012B0000448054900680968044AC1F34231515C99
:1012C000C8407047480200200838024008650008FE
:1012D000154810B5006810F00C01144813D04310E5
:1012E00004290FD008290ED10F4C241F216801F0CA
:1012F0003F022168490207D52068C0F38810A0FB8F
:10130000030106E0184610BD2168C1F38811A1FB56
:1013100000010023FEF75CFF2168C1F30141491C75
:101320004900B0FBF1F010BD083802400024F40081
:101330002DE9F84F040075D02078DFF838A3C007F6
:10134000AAF1040548D00AF104000168C1F3810143
:10135000012908D00068C0F3810002280AD1DAF818
:101360000000400206D52868800335D56068002853
:10137000E1D031E06068B0F5803F10D0B0F5A02F2B
:10138000286810D020F480302860286820F480205D
:1013900028606068A0B1FFF73FFE06460CE02868B1
:1013A00040F48030F4E740F480202860F7E7FFF74E
:1013B00033FE801B642871D828688003F7D50BE0C2
:1013C000FFF72AFE064604E0FFF726FE801B64288E
:1013D000F1D828688003F7D42078DFF89C92800742
:1013E0004FF0000B3DD5A348001D016811F00C0F14
:1013F00008D00068C0F3810002280AD1DAF80000A2
:10140000400206D42868800715D5E068012809D174
:1014100011E0E068B8B10120C9F80000FFF7FCFD59
:10142000064605E022E1FFF7F7FD801B0228C2D83F
:1014300028688007F7D52868216920F0F80040EA7D
:10144000C10028600DE0C9F800B0FFF7E5FD0646D1
:1014500004E0FFF7E1FD801B02281FD82868800701
:10146000F7D42078000722D5824F8448616970370D
:1014700071B101210160FFF7CFFD064604E0FFF7DF
:10148000CBFD801B022809D838688007F7D50EE00D
:10149000C0F800B0FFF7C0FD064605E082E0FFF7A8
:1014A000BBFD801B02287DD838688007F7D42078E0
:1014B000400765D56F484FF000083C300068C00019
:1014C0000BD46C483C30016841F0805101600068E9
:1014D0004FF0010800F080500090694F3868C00557
:1014E0000FD4386840F480703860FFF795FD0646E9
:1014F00004E0FFF791FD801B022853D83868C0052F
:10150000F7D55C4FA0686C3701280FD005283868E4
:1015100010D020F001003860386820F004003860F6
:10152000A068B0B1FFF778FD06460EE0386840F0DD
:101530000100F4E740F004003860F7E7FFF76CFDC6
:10154000811B41F28830814263D838688007F5D525
:101550000DE0FFF761FD064606E0FFF75DFD811B2C
:1015600041F28830814254D838688007F5D4B8F108
:10157000000F05D03F483C30016821F080510160E8
:10158000A069B8B33B49091D0968C1F3810102296B
:1015900046D00228584606D0C9F86000FFF73CFD47
:1015A000044639E035E04F46C9F86000FFF734FDE6
:1015B000064604E0FFF730FD801B022829D8286882
:1015C0008001F7D4D4E907010843A16A2D4A4908EC
:1015D00002EB0141626A41EA8211084394F82C103F
:1015E00040EA0161CAF8001001203866FFF714FDD7
:1015F000044605E03CE0FFF70FFD001B022808D879
:1016000028688001F7D533E0FFF706FD001B0228AC
:1016100002D90320BDE8F88F28688001F4D427E0C0
:101620000128F7D0DAF80000E26900F48001914265
:101630001CD1226A00F03F01914217D147F6C071D8
:10164000626A0140B1EB821F10D1A26A4FF0FF33F2
:1016500000F4403103EB5202B1EB024F06D194F893
:101660002C1000F07060B0EB016F01D00120D1E7C9
:101670000020CFE70438024000004742800E474276
:10168000007000400000FFFF074AD068401CD06097
:10169000D0684FF47A7190FBF1F301FB130000283E
:1016A00001D10120906070470402002010B5401E57
:1016B000B0F1807F01D3012010BD4FF0E0246061C4
:1016C0000F21601703F0CAF80020A06107202061F5
:1016D000002010BD10B5FFF7D7FF10BD7047704751
:1016E00070B590F83C20012A2CD0012580F83C50A0
:1016F000022280F83D2002685368946823F0700647
:101700000B6833435360104B02689A420ED0B2F11B
:10171000804F0BD00D4B9A4208D00D4B9A4205D00A
:101720000C4B9A4202D00C4B9A4204D1496824F0E7
:1017300080031943916080F83D50002180F83C10EF
:10174000084670BD022070BD00000140000400404A
:1017500000080040000C00400040014010B50400AB
:1017600003D094F83D0010B107E0012010BD002027
:1017700084F83C00204600F01FF8022084F83D0069
:10178000211D206802F040FC012084F8460084F806
:101790003E0084F83F0084F8400084F8410084F85B
:1017A000420084F8430084F8440084F8450084F83B
:1017B0003D00002010BD000010B586B00446142185
:1017C0006846FEF750FD206800222149B0F1804FA5
:1017D0002AD0204B98422FD1086840F002000860C0
:1017E000086800F00200059019481038016841F0BF
:1017F000040101600068694600F0040005904FF4A0
:10180000A07000900220CDE90102CDE9032012482A
:10181000FFF72AFB002211461D20FFF76DFC1D205B
:10182000FFF75CFC06B010BD086840F001000860DE
:10183000086800F0010009E0084A9042F2D1086807
:1018400040F004000860086800F004000590E9E733
:1018500040380240000400400008024000080040F8
:1018600070B5044690F83C000025012817D00126E9
:1018700084F83C60022084F83D002068826822F0F1
:10188000770222F47F4282600868502838D00DDC4D
:1018900020284FD005DC90B3102811D14AE0022057
:1018A00070BD302846D040280AD13BE060282FD0B8
:1018B00070280DD0B0F5805F03D0B0F5005F12D076
:1018C000012584F83D60002084F83C00284670BD66
:1018D000CB68D1E90121206802F0EFFB2068816824
:1018E00041F0770109E0CB68D1E90121206802F0DD
:1018F000E4FB2068816841F480418160E1E719E000
:10190000CA684968206802F093FC5021206806E00C
:10191000CA684968206802F0D3FC6021206802F0A0
:10192000D6FBCEE7CA684968206802F081FC4021F6
:101930002068F4E7226801461046F0E7F0B5027F20
:10194000002401259FEDD90ADFEDD90AD948DA4BE9
:1019500000F11001042A02D0012A4DD099E0DE697D
:10196000D64A1268AEB101EE102AB8EE411A83EDE4
:10197000061A93ED061AD3ED051AB4EEE11AF1EE4C
:1019800010FA0EDD93ED060A93ED051A30EE410ACA
:1019900018E000EE102AB8EE400A83ED050ADD617A
:1019A00077E093ED051AD3ED061AB4EEE11AF1EEE5
:1019B00010FA09DD93ED051A30EE410A93ED061A8F
:1019C00030EE010A83ED040A93ED040A80EE201A3A
:1019D00083ED081A90ED010A80ED000A90ED020AED
:1019E00080ED010A90ED030A80ED020A93ED080AEA
:1019F00080ED030ADC614CE01E6BB04A083A1268C5
:101A0000AEB101EE102AB8EE411A83ED0B1A93ED38
:101A10000B1AD3ED0A1AB4EEE11AF1EE10FA0EDD4C
:101A200093ED0B0A93ED0A1A30EE410A18E000EE2E
:101A3000102AB8EE400A83ED0A0A1D6329E093EDEF
:101A40000A1AD3ED0B1AB4EEE11AF1EE10FA09DD21
:101A500093ED0A1A30EE410A93ED0B1A30EE010AAB
:101A600083ED090A93ED090A80EE201A83ED0D1A21
:101A700091ED010A81ED000A91ED020A81ED010A62
:101A800091ED030A81ED020A93ED0D0A81ED030A3F
:101A90001C6390ED030AD0ED020A894D894CB4EE27
:101AA000E00A4FF07F56F1EE10FA21D290ED020AD3
:101AB000D0ED030A30EE600A10EE102AB24217DDB4
:101AC00090ED020AD0ED030A30EE600A10EE102A03
:101AD000AA420DDA90ED030A10EE102AA24207DAAC
:101AE00090ED020A10EE102AA24201DA012200E073
:101AF00000221A7090ED030AD0ED020A724FB4EE84
:101B0000E00AF1EE10FA21D290ED020AD0ED030ABC
:101B100030EE600A10EE102AAA4217DB90ED020A9E
:101B2000D0ED030A30EE600A10EE102ABA420DDA48
:101B300090ED030A10EE102AA24207DA90ED020A95
:101B400010EE102AA24201DA012200E000225A70AF
:101B500090ED030AD0ED020AB4EEE00AF1EE10FABD
:101B600021DD90ED030AD0ED020A30EE600A10EE9E
:101B7000102AB24217DD90ED030AD0ED020A30EED2
:101B8000600A10EE102AAA420DDA90ED030A10EE58
:101B9000102AA24207DA90ED020A10EE102AA242A1
:101BA00001DA012200E000229A7090ED030AD0EDE4
:101BB000020AB4EEE00AF1EE10FA21DD90ED030A1C
:101BC000D0ED020A30EE600A10EE102AAA4217DBAE
:101BD00090ED030AD0ED020A30EE600A10EE102AF2
:101BE000BA420DDA90ED030A10EE102AA24207DA8B
:101BF00090ED020A10EE100AA04201DA012000E086
:101C00000020D87091ED030AD1ED020A2F4AB4EEFC
:101C1000E00AF1EE10FA2AD291ED020AD1ED030AA0
:101C20002B4C30EE600A10EE100AA0421FDA91ED44
:101C3000020AD1ED030A274C30EE600A10EE100ABA
:101C4000A04214DD93ED0D0AB5EEC00AF1EE10FAD4
:101C50000DDD91ED030A10EE100A904207DA91EDC6
:101C6000020A10EE100A904201DA012000E0002082
:101C7000187191ED030AD1ED020A30EE600A10EE00
:101C8000100A90420FDD93ED0D0AB5EEC00AF1EE99
:101C900010FA08DD91ED020AB5EEC00AF1EE10FA75
:101CA00001D0012000E000205871F0BD00FF7F4707
:101CB000000068422C040020040200203C04004084
:101CC000000070410000A042000070420000C842C5
:101CD000000048420000A0402DE9F041054690F880
:101CE0003C0000260C46012810D0012085F83C005D
:101CF00072B1042A1CD0082A2CD00C2A50D00126FC
:101D0000002085F83C003046BDE8F0810220FBE76A
:101D1000D4E90012E368286802F09CFA2868816917
:101D200021F00C01816128688169A26811430FE0EC
:101D3000D4E90012E368286802F0D4FA28688169BF
:101D400021F44061816128688169A26841EA022129
:101D50008161D5E72868D4E9002C277B016A21F44A
:101D600080710162C169036A21F0030141EA0C013B
:101D700021F0F00C39074FF420674CEA116123F48D
:101D8000206307EA02221A43C16102622868C1691E
:101D900021F00C01C1612868C169A268114329E0E2
:101DA0002868D4E90021E768036A23F480530362BA
:101DB000D0F81CC0036A2CF4407C4CEA012121F4C9
:101DC000704C4FF6FF7101EA07314FF4204741EAAA
:101DD0000C0123F4204307EA02321A43C161026274
:101DE0002868C16921F44061C1612868C169A2689D
:101DF00041EA0221C16183E710B5040003D094F8E1
:101E00003D0010B107E0012010BD002084F83C0027
:101E1000204600F01EF8022084F83D00211D2068B5
:101E200002F0F2F8012084F8460084F83E0084F8BD
:101E30003F0084F8400084F8410084F8420084F8B0
:101E4000430084F8440084F8450084F83D000020F5
:101E500010BD704730B50446002579B1042910D073
:101E6000082911D094F8410089B1042912D0082919
:101E700013D094F84520012814D111E094F83E00C5
:101E8000F2E794F83F00EFE794F84000ECE794F8AD
:101E90004220F0E794F84320EDE794F84420EAE785
:101EA000012A01D0012030BD022081B1042913D0C4
:101EB000082916D084F8410084F84500B1B10429FE
:101EC00019D008293ED00C2941D0012538E084F8EA
:101ED0003E0084F84200F1E784F83F0084F84300B4
:101EE000ECE784F8400084F84400E7E72068C26823
:101EF00042F0020203E02068C26842F00402C260BD
:101F00000122206802F0CCF81349206888420ED0E4
:101F1000B0F1804F0BD01149884208D01049884257
:101F200005D01049884202D00F49884204D1816807
:101F300001F00701062903D0016841F001010160A9
:101F4000284630BD2068C26842F00802D7E7206802
:101F5000C26842F01002D2E70000014000040040D5
:101F600000080040000C00400040014070B50446ED
:101F7000006801694FF00005C943890715D4C1689D
:101F8000C943890711D4E91E016101202077206827
:101F900080698007204602D0FFF7D0FC04E000F003
:101FA000C1F8204600F053F9257720680169C9433C
:101FB000490717D4C168C943490713D46FF0040116
:101FC0000161022020772068806910F4407F20465C
:101FD00002D0FFF7B3FC04E000F0A4F8204600F0C4
:101FE00036F9257720680169C943090716D4C16805
:101FF000C943090712D46FF008010161042020775A
:102000002068C0698007204602D0FFF797FC04E0F3
:1020100000F088F8204600F01AF925772068016959
:10202000C943C90617D4C168C943C90613D46FF0A0
:1020300010010161082020772068C06910F4407FFA
:10204000204602D0FFF77AFC04E000F06BF820464F
:1020500000F0FDF8257720680169C943C90708D158
:10206000C168C943C90704D1891E0161204600F037
:102070004BF920680169C943090609D4C168C943FD
:10208000090605D46FF0800101612046FFF726FBA9
:1020900020680169C943490609D4C168C943490692
:1020A00005D46FF040010161204600F02EF9206850
:1020B0000169C94389060BD4C168C943890607D49D
:1020C0006FF0200101612046BDE87040FFF707BBBB
:1020D00070BD000010B586B0044614216846FEF7B6
:1020E000C2F82068B0F1804F16D10C480021026878
:1020F00042F001020260006800F0010005904FF418
:10210000004000900220CDE901010120CDE903103B
:1021100069460348FEF7A8FE06B010BD30380240FD
:1021200000000240704770B5044690F83C0000265D
:102130000D4601280FD0012084F83C006AB1042A22
:102140001DD0082A2FD00C2A3FD00126002084F869
:102150003C00304670BD022070BD206801F0C0FF19
:102160002068816941F0080181612068816921F05E
:1021700004018161206881692A69114311E02068A6
:1021800001F0DAFF2068816941F400618161206813
:10219000816921F480618161206881692A6941EA4D
:1021A00002218161D2E7206801F0F4FF2068C16953
:1021B00041F00801C1612068C16921F00401C161D9
:1021C0002068C1692A69114311E0206802F00EF805
:1021D0002068C16941F40061C1612068C16921F4CE
:1021E0008061C1612068C1692A6941EA0221C16137
:1021F000ACE710B5040003D094F83D0010B107E03F
:10220000012010BD002084F83C00204600F01EF89C
:10221000022084F83D00211D206801F0F5FE012018
:1022200084F8460084F83E0084F83F0084F84000BB
:1022300084F8410084F8420084F8430084F84400A4
:1022400084F8450084F83D00002010BD70477047B9
:1022500010B5044649B104290AD008290BD094F8D6
:10226000410001280AD0012010BD94F83E00F8E793
:1022700094F83F00F5E794F84000F2E7022071B3CC
:10228000042930D0082931D084F841000122206887
:1022900001F006FF17492068884203D1426C42F4DE
:1022A00000424264206888420ED0B0F1804F0BD0CB
:1022B0001149884208D01149884205D01049884206
:1022C00002D01049884204D1816801F00701062933
:1022D00003D0016841F001010160002010BDFFE75B
:1022E00084F83E00D2E784F83F00CFE784F840004E
:1022F000CCE700000000014000040040000800405E
:10230000000C0040004001407047704770B5040069
:1023100004D094F83D00002510B106E0012070BD06
:1023200084F83C50204600F023F8242084F83D0037
:102330002068C16821F40051C160204601F0EEFF21
:102340002068016921F4904101612068416921F010
:102350002A0141612068C16841F40051C1602564CF
:10236000202084F83D0084F83E00002070BD00006D
:1023700010B586B0044614216846FDF774FF134972
:10238000206888421FD112480021026842F40032BE
:102390000260006800F4003005900D4810380268B3
:1023A00042F001020260006800F0010005900C207C
:1023B00000900220CDE901010720CDE90310694614
:1023C0000448FEF751FD06B010BD00000044004077
:1023D00040380240000002402DE9F843044690F8DE
:1023E0003D001F4615460E4620284BD1C6B1BDB153
:1023F00094F83C00012845D0012084F83C004FF0BF
:102400000008C4F84080212084F83D00FEF704FE57
:10241000A5848146E584A068B0F5805F03D004E020
:102420000120BDE8F883206920B13546002684F8F4
:102430003C800EE00025FAE78021204601F0F4FF01
:10244000A0B9ADB115F8010B21684860E08C401EC1
:10245000E084E08C4B464FF0000200970028EBD15F
:102460004FF04001204601F0DFFF30B10320D8E7F4
:1024700036F8020BC0F30800E6E7202084F83D00A0
:102480000020CEE70220CCE7FEE700002DE9F84F60
:1024900044F24777002501F049F8F14CAB4648F289
:1024A0005731A4F818B0EF48A7834FF4805A4FF47F
:1024B000F0724FF4A07340F2134C40F2034841F223
:1024C000134941F2040E8F425CDC45F21031A7EB58
:1024D00001008F4274D02EDC41F22651A7EB01009F
:1024E0008F426ED011DC41F20551A7EB01008F4203
:1024F00068D005DC992F74D0B7F5AA7F72D1A8E017
:102500000C2870D01B28F9D1ADE040F62D37A0F68D
:102510002D31B84268D004DC5B2878D0DC28EDD1BE
:102520001BE1A1F2E241B1F5005171D0A1F50071BA
:102530001239E3D1CEE042F27347C11BB84268D0F2
:1025400015DC41F2F947A0EB0701B8427CD007DC6B
:10255000F82837D000F6A930B0F5005FCED1C0E042
:102560000B2972D0A1F550616C39C7D1B9E00629A9
:102570006CD010296BD013296AD0A1F50061AE3957
:10258000BCD1A1E040F6E977A0F6E971B84270D07D
:102590002BDC40F6D177A0F6D171B8426AD017DCB7
:1025A00040F6C977A0F6C971B8420BD00BDCA0F594
:1025B0005060393873D0A0F5007072389ED1D5E0E4
:1025C00067E058E0AAE0052954D007290AD1B7E00E
:1025D000012971D0092970D00D296ED0102901D19F
:1025E000C7E095E07CE03AE0BAE040F25527A1F27E
:1025F0005520B94275D014DCB1F5A37F6ED009DC4B
:1026000001296CD0A1F58071413969D1C6E0C2E0E1
:1026100037E04BE0A1F58071473901D001295FD146
:10262000CBE000F68410B0F5005070D0A0F500604B
:10263000F43803D004280AD0504551D141F20800A3
:102640006083B021884821E06DE029E036E0BAE0FF
:10265000B0E041F2020060839C21844816E0032030
:102660006083834D20E0824DA4F81AC00935062608
:10267000B5E088E05AE07D4DA4F81AC09C350C26E0
:10268000ADE07A48A4F81AA09C21A83002F07CFFA3
:10269000A5E0774D40F6136060832D1F30E02BE0FE
:1026A000734DA4F81A80ED1C03262AE041F2124073
:1026B000608390216F48E9E75EE03BE06D4DA4F850
:1026C0001AC0903541268AE06A4DA4F81A90D13597
:1026D000122684E041F2016005E002E064E054E08B
:1026E000BAE041F2014060830120607161487021CD
:1026F000E33002F023FF72E05D4DA4F81A90AD1EA6
:10270000022657480A300280801E038067E02AE0D4
:10271000554DA4F81A90DB3D1D26F2E7A4F81AE007
:10272000D8215548B2E741F2021001E04FF4885039
:10273000608301E0A4F81AA04F48CC21D830A5E767
:102740004748494D0A30A4F81A804FF4C871BE3D7D
:1027500001801E26801EF02140E040F213500DE063
:1027600041F217400AE0A4F81A9008E0A4F81A8091
:1027700005E0A4F81AC002E041F2036060833C4D1A
:10278000AD1D03262BE0A4F81A90374DA4F81AC00B
:10279000A03D652623E0A4F81AC002E040F20740FD
:1027A0006083364D4526ACE72F4DA4F81A803B3D9B
:1027B0003B26A6E7A4F81A8001E0A4F81AC02F4D22
:1027C00045352B269DE72848A4F81AA0C021B03033
:1027D00002F0DAFE22484FF4C8710A300180608BA3
:1027E000C0F30030E0836DB124480921703002F05D
:1027F000A5FE3146284602F0A1FE1D4806210F30F5
:1028000002F09CFE002000F09BFF002000F054FA34
:10281000A08BA0F5144188391CD184F806B04FF67E
:10282000E072084600F090F80021084600F074FEBF
:10283000A0F57F411F390DD106208DF8000001223F
:1028400069463A2000F0D0FA608B20F010006083D7
:102850000120A071BDE8F88F014859460830BDE756
:1028600000000020F0C3FFFF40610008CE5D0008BB
:10287000385B0008125F0008B0620008546400086A
:1028800000F0F800000201F0FC0140EAC10040EA5B
:10289000D20070472DE9FF4F81B09A46DDE90EB6B0
:1028A0000F468046F02840DAB7F5A07F3DDA06EB08
:1028B000460108EB4100012837D407EBC600012888
:1028C00033D40024052C2CD003981E4900EB800043
:1028D0002044002511F800905FEAC9700BD0012E4A
:1028E00002D0CDF800A00CE0781901B208EB04008A
:1028F00000B2524622E0D3450DD0012E18D0CDF8BB
:1029000000B005FB067001B204FB0680334600B23E
:102910001A4600F041F86D1C6DB24FEA5909082DB6
:10292000DADB641C64B2062CCCDB05B0BDE8F08FAA
:10293000781901B208EB040000B25A4600F004F81E
:10294000E9E700004D5B00082DE9F0410C46050069
:1029500017461CD4002C1ADB0E4EB6F90C0085422B
:1029600015DAB6F90E00844211DAB07918B11046C2
:1029700002F0DEFB074623462A461946104600F0C1
:1029800037FE3946F08CBDE8F04101F02FB9BDE8C3
:10299000F0810000000000202DE9F04FDFF8EC92FC
:1029A00085B0074699F80600DDF838801C461646C3
:1029B0000D4618B1404602F0BBFB8046002E03DAFC
:1029C000704206B2B81B07B2B81900B2002F00DA85
:1029D0000027B9F90C104E46884200DD0846C01B9E
:1029E0000FFA80F9002C03DA604204B2281B05B20A
:1029F000281900B2002D00DA0025B6F90E10884221
:102A000000DD0846401B04B22819401E03B207EB44
:102A10000900401E02B22946384600F0E9FD9C49F3
:102A20004FF48030086001019A48816197494FF066
:102A3000E06EC98CC0F818E00A0AC9B2944D4FF094
:102A4000876BC5F800B0944D4FF4000A5646C5F8A0
:102A500000A0D3079B0D02F0040743EA072302F00E
:102A6000800743EA4703836102F0080302F010077E
:102A700043EA4707102303EA520C47EA0C0702F027
:102A8000400C47EA0C17DFF808C2CCF8007002F0DF
:102A900002022F4692013A605A038261826182618A
:102AA000826182618261826182618261826182610E
:102AB00082618261022282618261C0F818E0CCF8F2
:102AC00000B03E60CE07B60D01F0040746EA0726C7
:102AD00001F0800746EA4706866101F0080601F02A
:102AE000100746EA470603EA51073E4301F0400754
:102AF00046EA071667463E6001F002012E4689014C
:102B000031601104816181618161816181618161D3
:102B100081618161816181618161816181618261A4
:102B2000826183614C4502DD20464C4681464FEA76
:102B3000182308F0FF0283E0D807800D03F0040695
:102B400040EA062603F0800046EA4000049003F0C5
:102B5000080603F01000102146EA400001EA53067F
:102B6000304303F0400640EA0610039003F00200F1
:102B700080010290D007800D02F0040640EA062092
:102B800002F0800640EA4600019002F0080002F0E0
:102B90001006022740EA460001EA5201084302F00B
:102BA000400140EA0110009002F00200CC464FEADA
:102BB000801E38484FF0E068C0F81880344EC6F8E0
:102BC00000B0C5F800A004998161039931600299B1
:102BD00029604FF40031816181618161816181618E
:102BE00081618161816181618161816181618161D5
:102BF00087618761C0F81880C6F800B0C5F800A0EA
:102C0000DDF80480C0F81880DDF80080C6F8008088
:102C1000C5F800E0816181618161816181618161CB
:102C2000816181618161816181618161816187618E
:102C30008761ACF1010C0FFA8CFCBCF1000FB8D12C
:102C4000201EA4F1010424B23FF776AF1048012101
:102C500001600E48817EC90707D0818BA1F5A8527B
:102C6000263A0FD18178C9070CD0C189808905B077
:102C7000491EBDE8F04F401E0BB202B200210846CB
:102C800000F0B6BC05B0BDE8F08F000000000020E9
:102C900018040240000002401808024008B5002154
:102CA00000900448B0F90E30B0F90C200846FFF748
:102CB00073FE08BD0000002008B52C4B5A8BC2F3F0
:102CC000003141401846D983808BD20721D05A79F0
:102CD000B2B1A0F50342473A06D0A0F5A442523A59
:102CE00002D031B1082005E009B1062002E002203F
:102CF00000E00A208DF8000001216A46084605E040
:102D000009B1212000E020200022114601F0D8FB6B
:102D100008BD49F22523C21A98421BD00DDCB0F53C
:102D2000AA7F17D0A0F5A150B0F5804017D0A0F22F
:102D30007330B0F5005F0BD111E0012A0AD0A2F583
:102D40008072013A0BD0A2F2E312B2F5005F06D016
:102D5000612008E0132040EA8101072003E041F0F0
:102D6000020140F2014000F041FF08BD00000020D8
:102D70000FB41B487CB507AA069901F05DFD00263B
:102D8000174D184C26E00A2A1DD00D2A21D0217893
:102D9000E08ACDE90001A38AB4F91210B4F9100059
:102DA000FFF778FD2078228A00EB400102EB410119
:102DB00009B22182E27862B1A0EB8000F02202EB3E
:102DC0004000884205DA608A617800EBC1006082C9
:102DD00026826D1C2A78002AD5D17CBC5DF814FBB4
:102DE000540200200000002013460A46194601F054
:102DF00067BB00002DE9FF4FFF4F81B09146F88C73
:102E000000900E990498484304B20026787935461C
:102E100020B9B87EC00701D02E2000900298084447
:102E2000401E03B2049901980844401E02B2DDE935
:102E3000010100F0DDFB4FF4803B4BE3DFF8B8A36A
:102E40009AF81A00C0070DD101985746284481B25C
:102E5000BAF8220000F0CAFE0298304481B2B88C61
:102E600000F0C4FEE549C1F800B0E5484FF4801118
:102E7000816100994FF0E0630A0AC9B28361DF4FB4
:102E80004FF087633B60DF4B4FF40008C3F80080CE
:102E9000D707BF0D02F0040C47EA0C2702F0800CA4
:102EA00047EA4C07876102F0080702F0100C47EA76
:102EB0004C074FF0100E0EEA520C47EA0C0702F0D6
:102EC000400C47EA0C17DFF834C3CCF8007002F06E
:102ED000020292011A604FF40032826182618261C3
:102EE00082618261826182618261826182618261CA
:102EF000826182614FF0020CC0F818C0C0F818C09F
:102F00004FF0E0628261BD4F4FF087623A60C3F8D4
:102F10000080CA07920D01F0040742EA072201F07F
:102F2000800742EA4702826101F0080201F01007BF
:102F300042EA47020EEA51073A4301F0400742EAEB
:102F40000712AE4F3A6001F00201890119604FF497
:102F50000031816181618161816181618161816112
:102F6000816181618161816181618161C0F818C085
:102F7000C0F818C0C0F818E0016821F47C110160A5
:102F80009E4918390A68A04B1A400A609D491839B1
:102F90000A6822F440420A60BAF81A1057464A06F4
:102FA00058D4C9075DD1B98BA1F59052893A58D050
:102FB000012383615946C0F818B0C0F818B0C0F8B2
:102FC00018B0C0F818B0C0F818B0C0F818B0C0F801
:102FD00018B0C0F818B0C0F818B0C0F818B0C0F8F1
:102FE00018B0C0F818B0C0F818B0C0F818B0C0F8E1
:102FF00018B00269DFF80C82A8F10808D8F80020A0
:1030000002697E4A083AD2F800C0D2F800C0D2F86D
:1030100000C0D2F800C0D0F810C083618361836122
:103020008161816181618161816181618161816190
:1030300081618161816181618161816181610169F8
:10304000D8F80010016911681168116811680169E8
:1030500083618361BAF81C10A1F5A852113A2FD0F0
:1030600007E201228261C0F818B0C0F818B0C0F8B9
:1030700018B0C0F818B0C0F818B0C0F818B0C0F850
:1030800018B0C0F818B0C0F818B0C0F818B0C0F840
:1030900018B0C0F818B0C0F818B0C0F818B0C0F830
:1030A00018B0016957490839096801695349083955
:1030B0000B680B680B680968016982618261C9E766
:1030C00001228261C0F818B0C0F818B0C0F818B07A
:1030D000C0F818B0C0F818B0C0F818B0C0F818B0F0
:1030E000C0F818B0C0F818B0C0F818B0C0F818B0E0
:1030F000C0F818B0C0F818B0C0F818B0C0F818B0D0
:10310000016940490839096801693C4908390B6877
:103110000B680B680968016982618261A9E1364820
:10312000478BF80672D5364B4FF0010CC3F818C028
:103130005846C3F818B0C3F818B0C3F818B0C3F8AD
:1031400018B0C3F818B0C3F818B0C3F818B0C3F873
:1031500018B0C3F818B0C3F818B0C3F818B0C3F863
:1031600018B0C3F818B0C3F818B0C3F818B019698C
:10317000DFF890E0C1F34022AEF1080EDEF8001057
:1031800001F0800142EA91111A6902F4806241EA79
:1031900012211A4A083AD2F8008008F0080841EAD9
:1031A0000801D2F8008008F0200841EA5801D2F85E
:1031B000008008F0100841EA4801D2F8008008F4C5
:1031C000806841EA1811D3F81080C3F818C008F4D9
:1031D000807841EA580AC3F818C0C3F818C098614B
:1031E0009861986198619861986198619861986117
:1031F0009861986198610AE000000020180402407C
:1032000000000240180802403FF0CFFF7CE09861C8
:10321000986198611969C1F34028DEF8001001F047
:10322000800148EA9111D3F8108008F4806841EADF
:103230001821D2F8008008F0080841EA0801D2F805
:10324000008008F0200841EA5801D2F8008008F018
:10325000100841EA4801D2F8008008F4806841EA89
:103260001811D3F81080C3F818C008F4807841EA28
:103270005801C3F818C0C3F818C0986198619861E4
:103280009861986198619861986198619861986176
:1032900098619861986198611869C0F34028DEF8D8
:1032A000000000F0800048EA9010D3F8108008F485
:1032B000806840EA1820D2F8008008F0080840EA48
:1032C0000800D2F8008008F0200840EA5800D2F840
:1032D0000080126808F0100840EA480002F480629A
:1032E00040EA12101A69C3F818C002F4807240EA6A
:1032F0005200C3F818C07A0701D5524601E00246D1
:103300005046FFF7BDFAA1E07D480123836159468D
:10331000C0F818B0C0F818B0C0F818B0C0F818B0AD
:10332000C0F818B0C0F818B0C0F818B0C0F818B09D
:10333000C0F818B0C0F818B0C0F818B0C0F818B08D
:10334000C0F818B0C0F818B0C0F818B00269DFF8BB
:10335000B4A1C2F3402CDAF8002002F080024CEA5B
:103360009212D0F810C00CF4806C42EA1C2C664A11
:10337000D2F8008008F008084CEA080CD2F8008067
:1033800008F020084CEA580CD2F8008008F0100829
:103390004CEA480CD2F8008008F480684CEA181C0B
:1033A000D0F81080836108F480784CEA580C83616F
:1033B00083618161816181618161816181618161FB
:1033C00081618161816181618161816181618161ED
:1033D0000169C1F34028DAF8001001F0800148EAE1
:1033E0009111D0F8108008F4806841EA1821D2F8D1
:1033F000008008F0080841EA0801D2F8008008F0CF
:10340000200841EA5801D2F80080126808F010083C
:1034100041EA480102F4806241EA121102698361C3
:1034200002F4807241EA5201836141EA0C203907BB
:1034300003D5010A41EA002080B2790706D500F4DD
:10344000FC6141EAD02141EAC02080B22F4A917943
:1034500041B1202320F03F0103EA50131943C0F388
:103460004400084329F8020B641E907E24B28007B2
:1034700002D5002C7FF453AE6D1C04982DB285420A
:1034800006DB761C0E98002536B2864200DB00264D
:103490001B48012181611C4A08321160016821F436
:1034A0007C110160184910390A68194B1A400A60EA
:1034B000144A103A136823F440431360036843F43A
:1034C000A81303600868134B18430860106840F4A1
:1034D00080401060002C3FF7B1AC0C48817EC907DA
:1034E00009D1C1898089491E0BB2401E02B2002158
:1034F000084600F07DF805B00020BDE8F08F000020
:1035000000000240100802401004024000000020A9
:103510003FF0CFFF400510001CB50122134600927A
:1035200001AAFFF767FCBDF804001CBD70B52A486E
:10353000012303712948016821F47C1101602849A5
:103540000A68284C22400A60274A146824F4404440
:103550001460046844F4A81404600C68234D2C43E0
:103560000C60146844F480441460046824F003047C
:10357000641C0460046824F00C04241D04600468C6
:1035800024F4407444F4807404600C6824F0030450
:10359000641C0C60116821F00C01091D11601049B8
:1035A00018310B608361022383610F4C1834236050
:1035B000322001F0D0FD4FF400302060642001F093
:1035C000CAFD2360642001F0C6FDBDE87040002103
:1035D000B02000F00BBB0000000000200000024003
:1035E000000402403FF0CFFF0008024040051000F9
:1035F0002DE9F84317464E4A0D460646918B104674
:103600001C468078A1F51343273B0DD1022802D038
:10361000032805D008E0203520342DB224B203E081
:103620002036203736B23FB2A1F5A853263B0FD142
:10363000C0070DD0B81B01B2601B00B208B119B1B0
:1036400006E0641C24B203E03918201A0FB204B259
:10365000907EC00737D0F8B20090F1B2904692F851
:1036600028000A46C7F30723C6F307210F4600F0D8
:1036700017FFE0B20090C4F30723C5F30721EAB2B5
:1036800098F82C000C4600F00BFF98F80500002875
:1036900017D0B8F81C00652813D18DF800708DF88C
:1036A00001606A460221B8F8220000F009FF8DF897
:1036B00000408DF801506A460221B8F8240000F05D
:1036C000FFFEBDE8F883B1B29046508C00F08EFA50
:1036D000A9B2B8F8240000F089FABE4201D1A5428F
:1036E000EFD098F81A0080060CD598F80200C007B1
:1036F00004D045EA042004B2254603E046EA072048
:1037000006B23746B1B2B8F8280000F06FFAA9B295
:10371000B8F82C0000F06AFAB9B2B8F82A0000F044
:1037200065FAA1B2B8F82E00BDE8F84300F05EBA21
:1037300000000020014A10825182704700000020E2
:103740002DE9FC47C64C00F003012246A170B2F9F6
:103750000A30CD07B2F90820002D01D01D4600E047
:103760001546A58100D11A46E28131B1012906D062
:1037700002297BD0032905D17AE0482100E02821E5
:103780008DF80010618BCA0505D59DF8002082F0E8
:1037900080028DF800208A0505D59DF8002082F072
:1037A00040028DF800200A0505D59DF8002082F022
:1037B00008028DF80020AA4ACD074FF02001928B15
:1037C0004FF022034FF0080974D0A2F5D045143D04
:1037D0002FD041F6631149F2814541F211568A42D8
:1037E00003D0AA4201D0B24244D19DF800000306A2
:1037F00003D540F001008DF80000C0B2430603D5A8
:1038000040F002008DF800008A4203D100F03F0032
:103810008DF80000AA4203D100F02F008DF80000BF
:10382000B2425DD100F0EF0040F0C0008DF8000022
:1038300056E09DF80000402202EA500201EA5001E1
:1038400000F028008DF8000000200A438DF80400E5
:1038500042F002008DF805003B208DF8060001AA19
:103860000321B62000F02CFE3AE0FFE7982187E71D
:10387000F82185E7617979B3022161840625A58461
:10388000E384218504216185A585A4F82E90652A0D
:1038900011D0A2F5A44052382CD19DF8000040F080
:1038A00002008DF80000C10624D540F004008DF818
:1038B00000001FE02BE09DF80010CA0603D481F041
:1038C00081018DF80010C2074FF082004FF0800197
:1038D00003D06084A1840DE002E06184A08409E04B
:1038E0002A202B216084A1842C22E28420856085FB
:1038F000A185E185607908B1162000E036206A468E
:10390000012100F0DDFD9DF80000208483E047F2F6
:103910009375501B21264FF400774FF480784FF4B5
:10392000004CAA423ED006DCB2F5AA7F1FD0A2F519
:10393000A840203807E000F26D40B0F5005031D0CB
:10394000A0F50450E33868B36184A684E384502072
:103950002085512060855220A0855320E0859DF868
:1039600000000CEA002040F41C5160203CE03720AD
:103970002085362060853920A0853820E085618447
:10398000A684E3849DF8000007EA800108EA80002D
:103990000143A2F58070393802D02820014329E084
:1039A0002720FBE7678440F20120A084401CE084CC
:1039B0004FF404702085401C6085401CA085401C8D
:1039C000E0859DF80000A2F513430CEA00214FF4B6
:1039D000D440263B03D0A2F5A843203B01D14FF4AD
:1039E000545001434FF4806000F000F99DF800103E
:1039F00008EA8101012000F0F9F89DF8001009EAB9
:103A00009100090701D540F4805040F03001218435
:103A1000032000F0EBF8A078C0070ED0608B4005C3
:103A20000BD4608CA18C6184A084208DA18D218514
:103A3000A085608DE18D6185E085E0890021401ED3
:103A400003B2A089401E02B20846FFF7D1FD002252
:103A5000B4F90A10104600F00BF8BDE8FC8700002E
:103A600000000020014A9082D182704700000020AF
:103A70002DE9FC415C4F164649F22733BA8B0446C8
:103A80009A4206D1B878022801D0032801D1203407
:103A900024B27889001B401A00B29A4201D120302A
:103AA00000B24B429E4201DD8E4200DB0026A3198C
:103AB0001DB2002E01DA6B181DB263185B1E97F859
:103AC0001AC01BB25FEACC7C49D0220A8DF80020D4
:103AD0008DF801400A0A8DF802208DF80310010AC2
:103AE0008DF804108DF80500787908B10E2000E0FB
:103AF00033206A46062100F0E3FC280A8DF8000016
:103B00008DF80150787908B1142000E037206A461A
:103B1000022100F0D5FC7879A8B148F2473136B1DE
:103B2000B88B884201D1022002E0082000E000208A
:103B30008DF80000B88B884201D1182000E00120E8
:103B40006A46012107E0002E07D1B87EC00704D0E5
:103B500000221146132000F0B3FCBDE8FC8122488E
:103B600049F22527D61BC18BBA4241F0020022D070
:103B70000FDCB2F5AA7F1ED0A2F5A152B2F58042A9
:103B800025D0A2F26332B2F500520ED0102A0BD12A
:103B90001DE0012E0FD0A6F58076013E17D0A6F2CB
:103BA000E316B6F5005F12D00146612000F01EF862
:103BB000A9B26A2013E099B2312000F017F8A1B23F
:103BC000322000F013F8281B81B2332007E00146B1
:103BD00040F2014000F00AF8A9B240F20440BDE80A
:103BE000FC4100F003B800000000002001F0AEBE70
:103BF0007FB500241648009401940294134903945D
:103C000001604FF48031C0E901140461047680F84A
:103C100020400903C1620125C5614FF0C061C46045
:103C2000816280F830504561FCF75AFF08B1FCF71B
:103C3000AEFE0920CDE90005694602940448FCF770
:103C4000A9FE002801D0FCF7A2FE7FBD00200140A4
:103C50004C040020094808B5016841F48001016066
:103C60000068002200F48000009011463820FDF723
:103C700043FABDE808403820FDF730BA303802403A
:103C8000F0B587B014216846FCF7EDFA30480024FF
:103C9000016841F004010160016801F0040105912F
:103CA000016841F080010160016801F08001059127
:103CB000016841F001010160016801F00101059115
:103CC000016841F0020101600068224E00F002002C
:103CD0000590002241F28C413046FDF797F91E4FC6
:103CE000002220213846FDF791F94FF40050009052
:103CF0004FF40410CDE9010469463046FDF7B4F8ED
:103D000041F20C4000901120CDE901046946304693
:103D10000394FDF7A9F8202000900125CDE9015476
:103D2000694638460394FDF79FF830208DE831004E
:103D300069463046FDF798F880200090CDE901549F
:103D4000694630460394FDF78FF807B0F0BD0000D8
:103D500030380240000802400000024010B58EB02A
:103D600000240794089409940A940B941C21684633
:103D70000C94FCF778FA1E484FF080410160532103
:103D8000C0E901141B49C0E903148461FDF7E6FC96
:103D900008B1FCF7FCFD4FF48050079007A91448C8
:103DA000FDF75EFD08B1FCF7F2FD1148FEF721FAC0
:103DB00008B1FCF7ECFD0B940BA90D480C94FDF732
:103DC0008FFC08B1FCF7E3FD602000900A20CDE9EC
:103DD00001040022694606480494FEF7A4F908B1DC
:103DE000FCF7D5FD0248FEF775F90EB010BD0000D6
:103DF000F40400203F0D030010B58AB000242748CA
:103E000000940194029403940494059406940794F6
:103E100008942149099401605321C0E901144FF627
:103E2000FF71C0E903148461FDF798FC08B1FCF749
:103E3000AEFD4FF48050009069461848FDF710FD24
:103E400008B1FCF7A4FD1548FDF7D6FF08B1FCF753
:103E50009EFD049404A911480594FDF741FC08B1A6
:103E6000FCF795FD0A2006900120CDE90704002209
:103E700006A90A480994FDF72FFF08B1FCF787FD52
:103E8000082206A90548FDF727FF002801D0FCF706
:103E90007EFD0AB010BD0000000400403C0500207B
:103EA00010B586B00024164800940194029403943F
:103EB000049412490594C0E900144FF6FF71C0E95B
:103EC000024104618461FDF749FC08B1FCF75FFD24
:103ED0004FF48050009069460948FDF7C1FC08B1D5
:103EE000FCF755FD049404A905480594FDF7F8FB7B
:103EF000002801D0FCF74BFD06B010BD00080040C3
:103F0000840500200C4810B50A4901604FF4E131E6
:103F10004160002181600C22C160C0E9041281610E
:103F2000C161FEF7F3F9002803D0BDE81040FCF7AB
:103F30002EBD10BD00440040CC050020FEE7FEE78A
:103F40007047704710B5FDF76DF8BDE81040FDF7FC
:103F5000C1BB000030B593B030216846FCF783F94F
:103F600014210CA8FCF77FF91E480025016841F0D8
:103F700080510160006800F0805011901A4801687B
:103F800021F4404141F4004101600068022400F442
:103F9000404011900120039010200094069404905A
:103FA000CDE907504FF4A870099004200A9007202B
:103FB0000B906846FDF7BCF908B172B6FEE70CA994
:103FC0000F2081E831004FF48050CDE90F05022128
:103FD0000CA8FDF7C3F8002801D072B6FEE713B0B5
:103FE00030BD0000403802400070004002480168C7
:103FF00041F470010160704788ED00E00148FDF771
:10400000B5BF00003C050020F0B502681D4C1E4DF8
:104010001E4E1F4F4FF0804CA04207D0604505D088
:10402000A84203D0B04201D0B84203D122F07003BD
:104030004A681A43A04210D060450ED0A8420CD066
:10404000B0420AD0B84208D0124B984205D0124B69
:10405000984202D0114B984203D122F44073CA68AF
:104060001A434B6922F080021A4302608A68C262D6
:104070000A688262A04201D109690163012141619C
:10408000F0BD0000000001400004004000080040B6
:10409000000C004000400140004401400048014045
:1040A00010B501F01F010123046A8B409C43046298
:1040B000036A8A401343036210BD10B5846842EA64
:1040C000032224F47F440A432243826010BD8268A5
:1040D00022F070020A4342F007018160704700003D
:1040E00030B5026A22F001020262036A4268846902
:1040F00024F073050C682C4323F002058B682B43D6
:104100000C4DA84206D123F00805CB6843EA05030D
:1041100023F0040307D14D6922F4407245EA0205F9
:104120008A6942EA05024260846149684163036228
:1041300030BD00000000014030B5026A22F01002DC
:104140000262026A436884690D6824F4E64444EA22
:1041500005248D6822F0200242EA05120C4DA84287
:1041600006D1CD6822F0800242EA051222F0400218
:1041700007D14D6923F4406343EA85038D6943EA1F
:1041800085034360846149688163026230BD000039
:104190000000014030B5026A22F480720262036AB4
:1041A0004268C46923F4007324F073050C682C433F
:1041B0008D6843EA05230C4DA84206D1CD6823F44F
:1041C000006343EA052323F4806307D14D6922F499
:1041D000405242EA05128D6942EA05124260C4610A
:1041E0004968C163036230BD0000014030B5026A16
:1041F00022F480520262036A4268C4690D6824F4A2
:10420000E64444EA05248D6823F4005343EA053369
:10421000064DA84204D14D6922F4804242EA85123B
:104220004260C46149680164036230BD000001401E
:1042300010B5046A036A23F001030362836923F063
:10424000F00343EA021324F00A020A438361026284
:1042500010BD000070B5046A24F001040462846992
:10426000056A124EB0420ED0B0F1804F0BD0104E06
:10427000B04208D00F4EB04205D00F4EB04202D02F
:104280000E4EB04203D124F00304144301E044F085
:1042900001041A0724F0F00444EA126225F00A032C
:1042A00001F00A0119438261016270BD0000014002
:1042B0000004004000080040000C004000400140A5
:1042C00010B5036A23F0100303628469036A24F4BF
:1042D000704444EA023223F0A00343EA01118261F0
:1042E000016210BD30B5046A24F0100404628569CF
:1042F000046A25F4407545EA022222F470454FF61F
:10430000FF7202EA033224F0A0032A43A02404EA45
:10431000011119438261016230BD000070B504468D
:1043200000680169E26821F4405111430161A1680C
:104330002069E26901436069104301432068C26853
:1043400049F20C639A430A43C26020684169A2693A
:1043500021F440711143416131492068884202D003
:104360003049884202D1FCF7A3FF01E0FCF790FF3F
:10437000E2690023192164253226B2F5004F6268F4
:1043800028D0A0FB0101930F9200FBF721FF01460B
:10439000B0FBF5F06FF01802504301EB800006EB24
:1043A0000010B0FBF5F000F0F002B1FBF5F002EB0D
:1043B0000012B1FBF5F06FF01803584301EB8000D9
:1043C00006EB0010B0FBF5F000F00F002168104480
:1043D000886070BDA0FB010192185B41FBF7F8FEFD
:1043E0000146B0FBF5F00201B1FBF5F06FF01803E8
:1043F000584301EB800006EBC000B0FBF5F000F085
:10440000F80002EB4002B1FBF5F0584301EB8000ED
:1044100006EBC000B0FBF5F000F00700D6E70000A7
:1044200000100140001401402DE9F0411E461746DE
:1044300088460446069D26E0681C24D025B1FCF77A
:10444000EBFD801BA8421ED920680C3050E8001FED
:1044500021F4D07140E80012002AF5D12068143010
:1044600050E8001F21F0010140E80012002AF5D1B8
:10447000202084F83D0084F83E00002084F83C00B1
:104480000320BDE8F0812068016838EA010004D00B
:104490000020B842D0D00020F3E70120F9E7FEE782
:1044A00038B58DF800108DF80120049C8DF802308D
:1044B0008DF803406A46042100F002F838BD000080
:1044C0002DE9F04FC64B4FF480341C602301C54CDE
:1044D000A3614FF0E068050AC3B2C4F81880C04F6A
:1044E0004FF08769C7F80090BF4F4FF4000AC7F834
:1044F00000A0EE07B60D05F0040746EA072605F012
:10450000800746EA4706A66105F0080605F0100791
:1045100046EA4707102606EA550C47EA0C0705F05D
:10452000400C47EA0C17DFF8B8C2CCF80070AE4F69
:1045300005F00205AD013D604FF4003BC4F818B032
:10454000C4F818B0C4F818B0C4F818B0C4F818B05B
:10455000C4F818B0C4F818B0C4F818B0C4F818B04B
:10456000C4F818B0C4F818B0C4F818B0C4F818B03B
:104570004FF0020E7546C4F818E0C4F818E0C4F80D
:104580001880CCF80090BC46CCF800A0DF07BF0D27
:1045900003F0040C47EA0C2703F0800C47EA4C07B1
:1045A000A76103F0080703F0100C47EA4C0706EA7E
:1045B000530C47EA0C0703F0400C47EA0C17DFF8EE
:1045C00020C2CCF80070884F03F002039B013B60CF
:1045D0007303A361A361A361A361A361A361A36149
:1045E000A361A361A361A361A361A361A561A561A7
:1045F000A6616746EAE012F8013B4FF0E065A5616D
:104600004FF087653D60DFF8E0814FF40005C8F8A2
:104610000050DD07AD0D03F0040645EA062503F062
:10462000800645EA4605A56103F0080503F010067B
:1046300045EA4606102505EA530C46EA0C0603F047
:10464000400C46EA0C163E6003F002039B01C8F8DA
:104650000030C4F818B0C4F818B0C4F818B0C4F8E2
:1046600018B0C4F818B0C4F818B0C4F818B0C4F83A
:1046700018B0C4F818B0C4F818B0C4F818B0C4F82A
:1046800018B0C4F818B0C4F818E0C4F818E000294D
:104690007ED0564B5B79002B7AD0401C2B0480B225
:1046A000A3614FF0E06C060AC3B2C4F818C04FF023
:1046B000876CC7F800C04FF4000CC146C8F800C0B2
:1046C0004FEAC67C4FEA9C5C06F004084CEA082CD2
:1046D00006F080084CEA480CC4F818C006F0080C34
:1046E00006F01008AA464CEA480C05EA56054CEAC2
:1046F000050C06F040054CEA05153D6006F0020584
:10470000AE01C9F800605D46C4F818B0C4F818B02E
:10471000C4F818B0C4F818B0C4F818B0C4F818B089
:10472000C4F818B0C4F818B0C4F818B0C4F818B079
:10473000C4F818B0C4F818B0C4F818B07646C4F875
:1047400018E0C4F818E04FF0E06CC4F818C04FF05F
:10475000876CC7F800C04FF4000CC9F800C04FEADE
:10476000C37C4FEA9C5C03F004084CEA082C03F07D
:1047700080084CEA480CC4F818C003F0080C03F099
:1047800010084CEA480C0AEA53084CEA080C00E00E
:104790001CE003F040084CEA081CC7F800C003F016
:1047A00002034FEA831CC9F800C0A561A561A56199
:1047B000A561A561A561A561A561A561A561A561C9
:1047C000A561A561A661A661C4F818A00B1EA1F1A0
:1047D000010149B23FF70FAF01203860BDE8F08F0B
:1047E00018040240000002401808024000000020A7
:1047F0000FB4054B10B503A9044A029800F010F954
:1048000010BC5DF814FB0000255500085002002084
:104810000FB4084B10B504A902AA039800F000F9E0
:10482000044602A9002000F07EFC204610BC5DF882
:1048300014FB00002751000837B514460846064B04
:104840006A46214600F0ECF804466946002000F074
:104850006AFC20463EBD0000275100080907090EEA
:10486000002804DB00F1E02080F80014704700F01D
:104870000F0000F1E02080F8141D704702E008C826
:10488000121F08C1002AFAD170477047002001E0CA
:1048900001C1121F002AFBD1704700002DE9FF5F04
:1048A00082B00021DDE90430020DDDF840B00343A1
:1048B00018D044F61050A2F2FF324243151411985A
:1048C00001281FD0A5EB0B00401C5FEA000A4FF047
:1048D00000064E4FDFF83891B046504615D5CAF164
:1048E000000413E0119801244AA3012801D16FEAC2
:1048F0000B010298119AC0E90031C0E9024206B0EA
:10490000BDE8F09FCBF10000DFE704460021404AFC
:10491000491842EB0450CDE9001012E0E00707D03F
:1049200032463B4640464946FBF7A8FC804689464E
:1049300032463B4610461946FBF7A0FC06460F469A
:104940006410002CEAD1DDE90401DDE90023BAF1AD
:10495000000F06DAFBF792FC42464B46FBF78EFC53
:1049600005E0FBF7FDFC42464B46FBF7F9FC04462D
:104970000E460022284BFBF7C7FE03D84FF0FF304E
:10498000014607E00022254B20463146FBF7FCFD9F
:10499000FBF7A1FE102409E0002C0ADB0A22002309
:1049A000FBF716FC039B30321A55641E50EA0102D5
:1049B000F2D1641C039AC4F111031444119A012A20
:1049C00003D0012208430DD10AE0084304D000209F
:1049D0004FF0110B119072E7A3EB0B056D1E0DE06C
:1049E0005B4504DD4FF0000205F1010504E003DA48
:1049F0004FF00002A5F10105002AECD002981199B0
:104A0000C0E90231C0E9004579E700000000144028
:104A10000000F03F300000000000F0430000E03FE5
:104A20002DE9FF4F95B09A46884606460025EEE1EF
:104A3000252877D100242746F94A0121039400E074
:104A4000044316F8013F203B01FA03F01042F7D16E
:104A500030782A2811D06FF02F033078A0F130027F
:104A6000092A16D8039A44F0020402EB820203EBEF
:104A700042021044761C0390EFE758F8042B03928F
:104A8000002A03DA504244F40054039044F0020434
:104A9000761C30782E2816D116F8010F44F0040445
:104AA0002A280DD06FF02F023078A0F13003092BA7
:104AB00009D807EB870302EB4303C718761CF3E71B
:104AC00058F8047B761C30786C280FD006DC4C2814
:104AD00017D068280DD06A2814D104E0742810D0AB
:104AE0007A280FD10DE044F400140AE044F4801455
:104AF00001E044F440147278824202D104F580143B
:104B0000761C761C307866280BD013DC582877D0BA
:104B100009DC002875D04528F6D04628F4D047286F
:104B20001AD193E118E0632835D0642879D065283C
:104B300012D18BE1702873D008DC6728F1D0692886
:104B40006FD06E280DD06F2806D1ACE073282CD022
:104B5000752874D0782853D05246179990476D1C09
:104B600054E1C4F30250022809D003280DD0D8F82C
:104B7000001004280DD00D6008F1040846E1D8F8B3
:104B80000010EA17C1E90052F6E7D8F800100D80CE
:104B9000F2E70D70F0E718F8041B8DF80010002004
:104BA0008DF80100EB46012003E058F804BB4FF0FC
:104BB000FF3061074FF0000102D40DE009F101015F
:104BC0008946B9420FDA8145F8DB1BF80910002944
:104BD000F4D108E009F1010189468142FADB1BF8B2
:104BE00009100029F6D103985346A0EB0907214686
:104BF0003846179A00F080FA284400EB090507E0D0
:104C000044E008E10DE01BF8010B5246179990476C
:104C1000B9F10109F7D2534621463846179AF2E016
:104C200039E00A21C4F302524FF0000B0091022A2E
:104C300006D058F8040BC117032A09D00AE023E074
:104C400008F1070020F00702F2E80201904605E0B3
:104C500000B2C117042A01D140B2C117002906DAF7
:104C60000A460021404261EB02012D2202E02205AA
:104C700004D52B228DF80420012203E0E20701D0A5
:104C80002022F7E7914657E00A2100E010214FF07B
:104C9000000B00910BE010214FF0000B44F00404D6
:104CA0000827009103E008204FF0000B0090C4F3A8
:104CB0000252022A05D058F8040B0021032A08D01A
:104CC00008E008F1070020F00702F2E80201904630
:104CD00003E080B2042A00D1C0B24FF000092207DD
:104CE0002AD53278702A07D0DDF800C08CF0100C7D
:104CF0005CEA0B0C05D00EE040228DF80420012266
:104D000008E050EA010306D030238DF804308DF816
:104D1000052002229146009B83F0080353EA0B030F
:104D20000AD150EA010201D1620705D530228DF87F
:104D300004204FF001097F1E3278582A04D039A28E
:104D40000C920CAA02920BE03BA2F9E75B46009A98
:104D5000FBF73EFA0C9B9B5C029A521E0292137068
:104D600050EA0102F2D1029804A9081A00F1200BBE
:104D7000600702D524F4803400E001275F4502DD9E
:104D8000A7EB0B0000E0002000EB0B010090039864
:104D90004944401A0390E00306D453462146179A2B
:104DA000039800F0A9F90544002706E001A852463F
:104DB000C05D179990476D1C7F1C4F45F6DBE003E3
:104DC0000CD553462146179A039800F095F90544EF
:104DD00004E030205246179990476D1C0099481EF8
:104DE00000900029F5DC08E002980299524600780C
:104DF000491C0291179990476D1CBBF10001ABF162
:104E0000010BF1DC5BE100F065F90544761C3078BC
:104E100000287FF40DAE19B02846BDE8F08F0000E1
:104E20000928010030313233343536373839616280
:104E30006364656600000000303132333435363744
:104E4000383941424344454600000000600700D421
:104E5000062708F1070020F00700F0E8022380464B
:104E600003F0004C5FEA0C0001D097A009E0200598
:104E700001D596A005E0E00701D095A001E0AFF2D2
:104E80004C001390307823F0004365280CD006DCEA
:104E9000452809D046281DD047287FD13BE0662809
:104EA00018D067287AD136E00021112F01DB1120BC
:104EB00000E0781CCDE9000104A90CA8FFF7EEFC86
:104EC000DDE90D010C9A4FF0000B07F1010910927A
:104ED00000914EE04FF000400097CDE9011004A989
:104EE0000CA8FFF7DBFCDDE90D020C9B0F994FF0DE
:104EF000000B91461093009211B9791C00EB010947
:104F0000B7EB090003D4C0F1FF3B07F10109A9EB9E
:104F10000700019042E0012F00DA01270021112F44
:104F200001DD112000E03846CDE9000104A90CA8FC
:104F3000FFF7B4FCDDE90D010C9A00914FF0000B76
:104F4000B946109221070FD4009A4A4503DA9146D8
:104F500001E0A9F10109B9F1010F05DD109AA9F1EC
:104F60000101515C3029F4D0B84202DA10F1040F8B
:104F700003DA0121CDE9011010E0002803DC8344AD
:104F8000A9EB000102E0411C494500DD8946A0EB88
:104F90000B00401C01904FF000400290200705D408
:104FA0000198484502DB4FF0FF30019000208DF85A
:104FB0004B0002980DF14B07B0F1004F25D00220B5
:104FC0000C902B200D90029800280CDA40420290A1
:104FD0002D200D9007E00A210298FBF743FA3031AB
:104FE000029007F8011D0C99481E0C900029F2DC74
:104FF00002980028EFD1791E0D980870307800F0E3
:10500000200040F0450007F8020D11A8C01BC01D8C
:1050100002901398007800B1012000EB090101987B
:1050200001EBE071029801440398401A401E03907E
:10503000E00306D453462146179A039800F05CF823
:1050400005441398007818B15246179990476D1C83
:10505000E00323D553462146179A039800F04CF8F5
:1050600005441BE0BBF1000F07DB0098584504DD49
:105070001098179910F80B0001E01799302052464C
:10508000904701980BF1010B401E05F101050190BD
:1050900004D12E205246179990476D1CB9F100019A
:1050A000A9F10109DEDC05E017F8010B524617995A
:1050B00090476D1C0299481E02900029F4DC53466B
:1050C0002146179A03989EE62D0000002B00000051
:1050D000200000002DE9F041044600251E46174639
:1050E000880404D405E039462020B0476D1C641EB6
:1050F000F9D52846BDE8F0812DE9F04104460025A8
:105100001E469046C80301D5302700E020278804BA
:1051100004D505E041463846B0476D1C641EF9D5FC
:105120002846BDE8F0810A68531C0B601070704778
:1051300020F03F0100F01F0241EA420100F00100AF
:105140000843704702880A8042884A8042794A713F
:1051500000790871704700214FF47A72504305E0DE
:1051600000FB00F2491E02FB0011401E0028F7DC84
:1051700008467047F0B51B491B4C0379497904EB8D
:10518000831301F0030103EB011CB0F9027017490E
:10519000B0F90000002200EB010E0020511E39443E
:1051A0000CEB82060DB2315C09B1012400E0002451
:1051B000290000D5002101EB410100EB81011EF81F
:1051C000011009B1012300E000231C4201D001209D
:1051D000F0BD401C0428E6DB521C042ADDDB002065
:1051E000F0BD0000F8010020300000205403002032
:1051F00010B5044600F008F820B92046FFF7BAFFC2
:10520000002800D0012010BDF0B51A4E017900250C
:1052100006EB811146792C4606F0030603232A4645
:1052200001EB0617002107EB820616F801C0BCF15E
:10523000000F08D0954200DA15468C4200DA0C4681
:105240008B4200DD0B46491C0429EEDB521C042A6C
:10525000E8DBB0F90010B0F902000A19D94228447D
:1052600003D40C2A01DA132801DB0120F0BD002051
:10527000F0BD0000300000207CB50D460646144607
:1052800069461046FFF75EFFBDF800003044ADF8F8
:105290000000BDF802002844ADF802006846FFF7A0
:1052A000A7FF08B101207CBD204600F005F9208849
:1052B00030442080608828446080204600F09EF8BA
:1052C00000207CBDF8B54FF6FF700090B423782223
:1052D00046213C20FDF760FB134F002505EB450000
:1052E000002407EB8006305DB8B104EB84013C225A
:1052F00002EB410C05EB8501462202EB41010B4A12
:105300000A2302EB40001A4630F8020C09B280B2C0
:1053100000900FFA8CF0FDF73FFB641C0C2CE2DBD5
:105320006D1C122DDADBF8BD54030020D064000898
:105330000EB5094809A142686846FFF769FA3221AB
:105340000020FEF7F7F947F6EF310020FEF78AFB61
:105350006846FDF70DFD0EBDF0010020256400003C
:10536000F8B5174E0025002416480179437906EB5D
:10537000811203F0030302EB031202EB8502125DBC
:10538000B2B102884088224402EB820257002844CE
:1053900000EB8000642202EB40000B4A0A2332F843
:1053A00011101A4689B2009101B238B2FDF7F4FA31
:1053B000641C042CD8DB6D1C042DD4DBF8BD00006C
:1053C00030000020FE010020D06400080EB509481E
:1053D000094902686846FFF71BFA00210846FEF7F4
:1053E000A9F947F6EF310020FEF73CFB6846FDF7D0
:1053F000BFFC0EBDF00100205C530008F8B51A4F49
:105400000646002500243279717907EB821001F0FD
:10541000030100EB011000EB8500005DE0B1B6F97F
:1054200000003C21204400EB800001EB400CB6F969
:105430000200284400EB800301EB430100280BDD50
:105440000A480A2309B230F812001A4680B20090C6
:105450000FFA8CF0FDF7A0FA641C042CD3DB6D1C52
:10546000042DCFDBF8BD000030000020D064000820
:1054700030B5401E01B2094B0DE001EB41020020A6
:1054800003EB82021518145C401C00B22C730C282C
:10549000F8DB491E09B20029EFDC30BD54030020BF
:1054A00008B547F6EF30282300901A466421002003
:1054B000FDF772FA08BD0000F8B5194F0646002541
:1054C00000243079717907EB801001F0030100EBC3
:1054D000011000EB8500005DD0B1B6F900003C2161
:1054E000204400EB800001EB400CB6F90200284498
:1054F00000EB800201EB4201002809DD4FF6FF704E
:105500000A2300901A4609B20FFA8CF0FDF744FA0C
:10551000641C042CD5DB6D1C042DD1DBF8BD000010
:105520003000002013B54FF6FF7301226946024890
:10553000FCF752FF00981CBDCC05002070B586B06A
:105540000E4604461CE014F8013B14F8015B7F2B67
:1055500002D00020694609E02846FFF7FCFD00253F
:105560000BE014F8012B0A54401CC0B2A842F8D337
:105570000A4669B21846FEF7A3FF701B801E06B2EA
:10558000002EE0DC06B070BD70B50D4604464FF647
:10559000FF760DE034F8020B34F8021BB04203D161
:1055A0000846FFF7D8FD01E000F0D0F92D1F2DB21D
:1055B000002DEFDC70BD000010B5D8210D48FAF7C2
:1055C00052FEFAF737FE072190FBF1F201FB1200C1
:1055D00009490871881F00F005F9074800210E38B5
:1055E00001604160FFF7F2FEFFF7A2FEBDE8104048
:1055F000FFF7B6BE54030020FE01002086B0FBF783
:1056000019FDFEF7A7FCFEF73BFBFEF77BFCFEF760
:10561000EFFAFEF71FFBFEF7A1FBFEF7EDFBFEF72F
:105620003FFCFCF733FF1420FBF70CFC0020FEF7D7
:1056300087F80020FDF732FB47F6EF30FDF72EFB31
:10564000FFF7BAFFFFF73EFE00215348FCF700FECC
:1056500008215248FCF7FEFB00215048FCF7FAFBFA
:1056600000244F48FFF7C4F8E0077DD1DFF834B1DC
:105670009BED000A10EE100AFAF7E1FE9BED010A1D
:1056800081468A4610EE100AFAF7D9FE9BED020A0F
:105690000746884610EE100AFAF7D1FE9BED030A82
:1056A00005460E4610EE100AFAF7C9FE8DE8E0072F
:1056B00041EC100B3C4853EC102BFFF799F83B4F93
:1056C000387808B97878B8B1387820B1384A0021EC
:1056D0000120FFF7D1FD787870B1354A0021012013
:1056E000FFF7CAFD324A00210120FFF7C5FD304A0D
:1056F00000210120FFF7C0FDB87808B9F878C0B1E3
:10570000B87820B100212A4A481EFFF7B5FDF87885
:1057100078B100214D1E264A2846FFF7ADFD244AE8
:1057200000212846FFF7A8FD214A00212846FFF75F
:10573000A3FD387998B11FA0FFF75AF8002542F26F
:1057400028361B4A01210020FFF796FD10B96D1C79
:10575000B542F6D3B8680028FCD00020B86078794C
:1057600010B1387900B900E005E0114800F05CF8AC
:1057700018A0FFF73DF8641C00F072F820B14FF458
:105780007840FDF78BFAFEE71920FBF75BFB7D20E5
:10579000FBF758FB68E70000F40400203C050020FC
:1057A000106500083C040020646500080402002025
:1057B000F801002044657363656E74652076657238
:1057C00073206C6520626173212121212121212117
:1057D0000D0A000020526F746174696F6E202121E0
:1057E0003A0D0A0070B504460420208000200D4DBB
:1057F0006080607128792071FAF71CFD072190FB09
:10580000F1F201FB12002871FFF74AFEFFF7A8FD35
:105810002046FFF7F3FD2046FFF7ACFC002800D040
:10582000012070BDFE0100201CB504466946FFF74B
:1058300089FC9DF80500401C8DF805006846FFF7BF
:10584000D7FC08B101201CBD2046FFF735FE60796A
:10585000401C60712046FFF7D1FD00201CBD0000F8
:105860002DE9F047354A01210020FFF705FD00280A
:1058700061D03248324B334D427990F804C0B0F9D0
:1058800002A0B0F9008002F0030203EB8C100021AB
:1058900000EB021900204A1E524412B209EB8107A4
:1058A00008EB00031CB23B5C03B1012343B1122A95
:1058B00006DA02EB420305EB83030CF101061E55E9
:1058C000401C0428ECDB491C0429E3DB00261124DE
:1058D000012204EB4400002105EB8000435C5BB136
:1058E000491C09B20C29F9DB32B12046FFF7C0FD93
:1058F000761C641C36B224B2641E24B2002CE7DC91
:1059000096B1FFF7DFFC104800EB860050F8041C4E
:105910000A48083802681144016041683144416016
:10592000FFF754FDFFF704FD0448FFF75BFF10B1DC
:105930000120BDE8F0870020FBE70000F80100200F
:105940003000002054030020E06400082DE9F04FEF
:10595000754C88464FF4803121600A0173498A6191
:105960004FF0E069030AC2B2C1F818904FF0876A9D
:10597000C4F800A06E4D4FF4000BC5F800B0D80776
:10598000800D03F0040640EA062603F0800046EA94
:105990004000886103F0080603F0100046EA40006A
:1059A000102707EA5306304303F0400640EA06108A
:1059B000206003F00200800128607803886188611C
:1059C000886188618861886188618861886188618F
:1059D00088618861886102268E618E61C1F81890A5
:1059E000C4F800A0C5F800B0D3079B0D02F0040C6A
:1059F00043EA0C2302F0800C43EA4C038B6102F073
:105A0000080302F0100C43EA4C0307EA520C43EA85
:105A10000C0302F0400C43EA0C13236002F0020274
:105A200092012A60886188618861886188618861E3
:105A300088618861886188618861886188618E6118
:105A40008E618F614FEA182308F0FF02C1F81890A9
:105A5000C4F800A0C5F800B04FEAC37C4FEA9C5CD4
:105A600003F004084CEA082C03F080084CEA480CC8
:105A7000C1F818C003F0080C03F010084CEA480CF9
:105A800007EA53084CEA080C03F040084CEA081CEB
:105A9000C4F800C003F002039B012B608861886199
:105AA00088618861886188618861886188618861AE
:105AB0008861886188618E618E61C1F81890C4F830
:105AC00000A0C5F800B0D3079B0D02F0040C43EA18
:105AD0000C2302F0800C43EA4C038B6102F00803B4
